:020000040800F2
:1000000000000320F5170008CD100008CF100008ED
:10001000D1100008D3100008D5100008000000001F
:10002000000000000000000000000000D7100008E1
:10003000D910000800000000DB100008DD100008E7
:10004000491800084918000849180008E11000087C
:100050004918000849180008271100082D11000848
:10006000491800084918000821110008491800081B
:100070004918000849180008E51000084918000848
:1000800049180008491800084918000849180008CC
:1000900049180008491800084918000849180008BC
:1000A00049180008491800084918000849180008AC
:1000B000491800084918000849180008491800089C
:1000C000491800084918000849180008491800088C
:1000D000F1100008FD100008491800084918000830
:1000E000491800084918000849180008491800086C
:1000F000091100080D110008111100084918000825
:10010000491800084918000849180008491800084B
:10011000491800084918000849180008491800083B
:100120004918000849180008151100084918000866
:0C01300049180008491800084918000888
:10013C0010B5054C237833B9044B13B10448AFF315
:10014C0000800123237010BD8C00002000000000F3
:10015C00D04E000808B5034B1BB103490348AFF35D
:10016C00008008BD0000000090000020D04E000868
:10017C0010F8012B11F8013B012A28BF9A42F7D045
:10018C00D01A70474FF0B04382B0DA6C0243DA6495
:10019C00DB6C18400190019B02B070474FF0B043EC
:1001AC0082B0D3F84C210243C3F84C21D3F84C3124
:1001BC0018400190019B02B070470000F0B58BB065
:1001CC00032200244FF0B0454FF460430120CDE9E9
:1001DC0000326946CDE902440494FFF7D3FF4FF097
:1001EC00904001F093FDEB6C3A4F23F00103EB646C
:1001FC000220182369460093FFF7C4FF354801F02D
:10020C0085FDEB6C23F00203EB6401F009FC01F0BB
:10021C000FFC01F015FC142221460DEB020004F03A
:10022C0049FE2D48DFF8B4C021462546264600EB92
:10023C00C1039A7952B150F83120BA4243D0624589
:10024C0044D0B2F1904F01D19B881E430131262935
:10025C00EDD1012003230690089386B10596FFF794
:10026C0091FF0120FFF79AFF05A94FF0904001F094
:10027C004DFD002231464FF0904001F0FDFD7DB167
:10028C0002200595FFF77EFF0220FFF787FF05A9E7
:10029C00104801F03BFD0F480022294601F0ECFD0F
:1002AC007CB104200594FFF76DFF0420FFF776FF67
:1002BC0005A90A4801F02AFD08480022214601F050
:1002CC00DBFD0BB0F0BD9B881D43BFE79B881C4337
:1002DC00BCE700BF00040048604F0008000800485D
:1002EC0070B50C4B88B001AA03F1180615461868B6
:1002FC005968144603C40833B3422246F7D119880F
:10030C009B782180A37004F00BFC284604F03EF986
:10031C0008B070BDE84E00087047000070B51C4D69
:10032C002B88FF2B15D81B4A1B4C12780D2A2AD16F
:10033C001A492046FFF71CFF98B91948194B03605E
:10034C0001F0D6FC0021144829804FF4807204F08F
:10035C00B1FDBDE87040144B0E490122002000F0A5
:10036C005DBC12492046FFF703FF18B90C484FF04B
:10037C00B053E4E70E492046FFF7FAFE0028E1D11E
:10038C0007480C4BDBE7591CE2542980E1E700BF1E
:10039C00B8010020A8010020A800002090500008FF
:1003AC00B001002004000016290300089450000836
:1003BC00985000080100001630B54368B3F80B30B4
:1003CC00B3F5124F89B0044626D1684604F0FAF80A
:1003DC00102200210DEB020004F06CFD63685D7BC4
:1003EC00E5B9FFF77DFF0F230F4A8DF810307F23FF
:1003FC008DF8123013681B0CADF81C30136804A870
:10040C00C3F30B03ADF81E3004F0CEF800F0F8FE89
:10041C002946012004F0B2FB09B030BD012D04BF08
:10042C0000232370F8E700BF002004E008B50B4B55
:10043C004FF400421A61002004F08AF868B14FF0C2
:10044C00B042074B8179C2F89C30D2F89C3023F42F
:10045C007C5343EA0123C2F89C3008BD004000588D
:10046C00FECAFECA034AD2F8903043F05003C2F8D9
:10047C00903070470008005810B588B0FFF7F2FFB5
:10048C002C4B2D4CCA225A6253225A629A6822F083
:10049C0007029A60FF225A624FF0B042936843F40D
:1004AC000043936004F060FB244A2549D2F8803065
:1004BC0023F0070343F00403C2F88030002000F05F
:1004CC0083F9FFF77BFE0121084604F057FB01215D
:1004DC00002001F0C1F90121084601F0BDF901210C
:1004EC00022001F0B9F9174B17490122002000F046
:1004FC0095FB04F027FA154A0021402004F098FCE3
:10050C006946134B13480094019304F0B1F804F5B9
:10051C008673029304F50673039302A840F23C53CE
:10052C0004F549740593049404F0CCFA04F008FA29
:10053C0008B010BD00280040F8010320000400584A
:10054C000404002029030008A8010020D14600085B
:10055C0025030008C503000870B5044601F040FAF5
:10056C00631C054602D001F047FA0444064E04E031
:10057C00336923F00403336130BF01F031FA431BBC
:10058C00A342F5D370BD00BF00ED00E04FF0FF308B
:10059C0004F088BB04F008BB4FF0FF3004F082BBC2
:1005AC000021402004F020BB022004F04DBB0220AF
:1005BC0004F00CBC022807D0102803D0012805D168
:1005CC0000F078BF00F074BF00F07ABF70470000F5
:1005DC00054A906A936A80B29BB2984200D17047E8
:1005EC00916A18468BB2F8E700280040F0B51B4A18
:1005FC00137883421A4B17D114781A4DE4B22C702D
:10060C00182404FB0034647DE4B21470182404FB39
:10061C000033012018731378062B04D119B9124B2F
:10062C004FF0FF321A60F0BD182707FB0034267D0F
:10063C0094F815E094F815C007FB06365FFA8CFCAD
:10064C00BEF1060F86F815C018BF267D5FFA8EF531
:10065C001EBF07FB0534F6B22675D7E7BB01002099
:10066C00C8010020BE010020C001002010B50D4CB7
:10067C002368013313D0FFF7ABFF236883423DBFE0
:10068C00094B22681B88236838BF9B18181A074B24
:10069C001B785843064B1B78D84080B210BD002005
:1006AC00FBE700BFC0010020C4010020BA010020FC
:1006BC00C6010020F8B53B4B3B4E9A68336812F4E8
:1006CC00806F03D0DA6812F0040FFAE79A68374F9C
:1006DC0022F480629A60364B1B781822DDB202FB42
:1006EC0003739C68FFF7C2FFA042324B06D901226C
:1006FC001A70002418214FF0000C1CE02E490A88B7
:10070C0010FA82F2A24239BF0C880022241A01226C
:10071C0034BFA4B2A4B21A70ECE701FB057301FB61
:10072C0005759A68904297BF9A68C3F808C0121A68
:10073C009A606D7DEDB2062DEFD144B9FFF748FFFD
:10074C001E4B1860BDE8F840032001F0FBB9012CEA
:10075C0003D11B4B1B78012B01D0013CA4B2326896
:10076C00D3685B07FCD5D368DBB263F49063D360CA
:10077C00144B4FF40022DA60032001F0F3F9094A1C
:10078C0053691B0C1B0423435361FFF721FF0B4BD5
:10079C0032681860936843F480639360AFF3008011
:1007AC00F8BD00BF0028004004040020C801002050
:1007BC00BB010020C7010020BC010020C0010020AB
:1007CC00C60100200008005870B5404C404A25680E
:1007DC00CA236B6253236B62936843F020039360CC
:1007EC00936803F00703C3F10403DEB2394B1E70A8
:1007FC0013694FF4FE0103F4FE0391FAA1F1B1FA6F
:10080C0081F1CB400133D9B2334B19701269334BA0
:10081C00C2F30E0201321A80531E4B43A3F5A07390
:10082C00F3404FF6FE7293422D4A8CBF4FF6FF7386
:10083C009BB213802B4A136843F400231360D2F845
:10084C00803043F40023C2F88030002836D1264B88
:10085C0001211970254B4FF0FF311960244B18738F
:10086C0083F8240083F83C0083F8540083F86C0070
:10087C0083F884001F4B06211970AB6823F4806346
:10088C00AB60EB68DBB263F49063EB604FF4002376
:10089C00D360032001F066F92268936843F4804327
:1008AC0093602368FF2203215A620846002201F05C
:1008BC00E1F8BDE87040032001F00EB9EB685B0570
:1008CC00EFD5032001F03EF9EBE700BF0404002054
:1008DC0000280040C6010020BA010020C4010020FD
:1008EC00BC01002000080058C7010020C0010020F6
:1008FC00C8010020BB0100202DE9F047EFF3108761
:10090C0072B6DFF8449000254FF0180A0AFB0594E4
:10091C005FFA85FE94F80CC00CF0FF06BCF1000FDA
:10092C000BD10125257387F3108820616273236036
:10093C0081F800E03046BDE8F0870135062DE5D1A1
:10094C0087F310880126F5E7C801002070B504462E
:10095C00EFF3108672B6234D032001F0CBF82B6811
:10096C00CA225A6253225A621F4B182202FB0433CA
:10097C001B7B022B25D100212046FFF737FE1B4B9A
:10098C001B78062BDAB225D1194B9A682B6812F416
:10099C00806F03D0DA6812F0040FFAE79A6822F439
:1009AC0080629A60DA685207FCD5DA68D2B262F4D7
:1009BC009062DA600F4B4FF40022DA60032001F0F2
:1009CC00D1F82B68FF225A62032001F085F886F3D8
:1009DC00108870BD084B1B789342F2D0FFF76AFE6B
:1009EC00EFE700BF04040020C8010020BB01002079
:1009FC000028004000080058BE0100202DE9F047F7
:100A0C004F4C182303FB004305461B7B022B0F4660
:100A1C0001D1FFF79BFFEFF3108672B6DFF8309130
:100A2C00032001F067F8D9F80030CA224FF0180AF9
:100A3C005A620AFB054853225A62022388F80C308A
:100A4C00C8F80870C8F804703E4F3B78062BDAB231
:100A5C001DD13B783C49DBB20B703C4B3D7088F8A8
:100A6C0015204FF0FF321A600020374A3B7812787D
:100A7C009A425ED0FFF71EFED9F80030FF225A6270
:100A8C00032001F029F886F31088BDE8F087FFF702
:100A9C00EDFDD8F808300344C8F80830D8F8081031
:100AAC003B780AFB03439B68994225D33A78D3B22F
:100ABC000AFB0242527DD2B2062A04D00AFB024241
:100ACC009268914214D2182202FB0341497D5FFACD
:100ADC0081FC06291CBF02FB0C421575182202FB77
:100AEC00054181F815C00B7502FB03435D75BCE72E
:100AFC000AFB03435A7DDAE73B783A789342D9B242
:100B0C000AFB03F311D023441A7D5FFA82FC0AFB23
:100B1C000242557588F8151088F814C01D753B787D
:100B2C00094ADBB213703D709FE788F81510234417
:100B3C00F4E7182303FB0544A368181AA0609BE78D
:100B4C00C8010020BB010020BE010020C001002014
:100B5C0004040020104700002DE9F84FEFF3108536
:100B6C0072B6294C294923684FF0CA094FF0530833
:100B7C00C3F82490C3F824809A6822F480629A60A7
:100B8C00234A12781820D6B242438F18387B022899
:100B9C002DD1204B51F802B0D7F810A01B780BB315
:100BAC007B7B012BD9B217D13046FFF71FFD85F3A4
:100BBC00108879683046FFF721FF23685A46C3F83E
:100BCC0024903146C3F824805046FFF7C3FF2368B6
:100BDC00FF225A62BDE8F88F85F310883046FFF784
:100BEC00B5FEEAE7FFF766FD85F31088EFE7DA68F4
:100BFC005207FCD5DA68D2B262F49062DA60064B26
:100C0C004FF40022DA60EFE704040020C801002052
:100C1C00BB010020C70100200008005830B904486F
:100C2C0003600448044B036002F002BE704700BF2F
:100C3C005802002028040020003801400268044BB0
:100C4C009A4203D1034B1B6803B11847704700BF8E
:100C5C0000380140580200200268044B9A4203D12C
:100C6C00034B1B6803B11847704700BF00380140A5
:100C7C005C0200204FF0B04382B09A6C02439A643D
:100C8C009B6C18400190019B02B070474FF0B04331
:100C9C0082B0DA6C0243DA64DB6C18400190019B81
:100CAC0002B0704730B59BB04822002108A804F070
:100CBC0001F900211C2201A804F0FCF801F030F924
:100CCC004FF0B0420125D2F8903023F01803C2F84F
:100CDC009030D2F8003423F4C06343F40073C2F8AC
:100CEC000034D2F80034129503F4C0630093472209
:100CFC00009B4FF48033CDE908234FF4807300241C
:100D0C00CDE90A5308A840230C93139401F00CFA74
:100D1C0002236F21CDE9011301A82946CDE9034433
:100D2C00CDE90544079401F0C7FC1BB030BD00B5FC
:100D3C0095B04022002101A804F0BCF84FF44053B8
:100D4C0000934FF480410223CDE911136846102320
:100D5C00139301F0DCFD15B05DF804FB08B500F051
:100D6C001DFEFFF763FBFFF79DFFFFF7E0FF244835
:100D7C00244B036001F0B2F80420FFF787FF012039
:100D8C00FFF784FF0220FFF781FF0420FFF772FFBB
:100D9C000120FFF76FFF0220FFF76CFF0F210022ED
:100DAC000E2000F067FE0E2000F096FE0F210022B0
:100DBC003A2000F05FFE3A2000F08EFE124C134BEE
:100DCC0000250F22C4E90035204647F6FF73C4E91D
:100DDC000223C4E906552561656101F0ADFF2A4681
:100DEC002946204602F00AF8094B0A48C0E90035AA
:100DFC0001F052FFFFF740FBFFF7C8FBFCE700BF19
:100E0C0020030020000C005804040020002800409F
:100E1C0000100058F00300207047000008B500F0E7
:100E2C00F1FD034A136923F00403136130BF08BDBD
:100E3C0000ED00E000F0EDBD184B4FF480621A613C
:100E4C0002F10042D3F88C109142FBD14FF0B04329
:100E5C009A6802F00C02042A1AD11A68104942F45A
:100E6C0080321A600A6822F0070242F001020A601E
:100E7C001A689203FCD59A6822F0030242F002022F
:100E8C009A604FF0B042936803F00C03082BFAD130
:100E9C00024B4FF48062DA6000F0BBBD00140058C6
:100EAC000040005800F0B5BD4FF0B0431A6842F452
:100EBC0080721A601A685205FCD59A6822F00302F7
:100ECC0042F001029A605A6A22F003025A624FF011
:100EDC00B042936803F00C03042BFAD17047000066
:100EEC0008B5124A124BD2F88C109942FBD1D2F8A9
:100EFC0090209A4211D10F4BD3F88820120408D4B9
:100F0C00D3F888305B0504D4084B4FF48062DA6068
:100F1C0008BD064B4FF480621A61FFF7C5FF064A05
:100F2C00136823F007031360EEE700BF00140058AA
:100F3C0000040080000400580040005808B500F080
:100F4C0061FDFFF7CDFF084A1F239361136823F05F
:100F5C00070343F003031360044A136943F00403CB
:100F6C00136130BF08BD00BF0004005800ED00E065
:100F7C0008B500F047FDFFF7B3FF074A136823F0ED
:100F8C00070343F002031360044A136943F004039C
:100F9C00136130BF08BD00BF0004005800ED00E035
:100FAC004FF0B04382B01A6D02431A651B6D1840A6
:100FBC000190019B02B0704708B54FF40020FFF779
:100FCC00EFFF00222E20114600F054FDBDE8084032
:100FDC002E2000F081BD000008B502680C4B9A422F
:100FEC0015D14FF48010FFF7DBFF002211462C20A7
:100FFC0000F040FD2C2000F06FFD00222D2011464A
:10100C0000F038FDBDE808402D2000F065BD08BD9E
:10101C00000C005810B5044694B0502200216846CC
:10102C0003F048FF22680A4B9A420FD14FF4007329
:10103C00009368464FF080530E9301F068FC08B1A2
:10104C00FFF7EAFE4FF48020FFF7AAFF14B010BDA3
:10105C000010005810B5044696B05022002102A88A
:10106C0003F028FF2268154B9A4224D14FF40063F9
:10107C00029302A84FF48073129301F048FC08B15C
:10108C00FFF7CAFE4FF0B0430320D3F8902042F490
:10109C000042C3F890209A6D42F480629A659B6D71
:1010AC00002203F4806301931146019B00F0E2FCE3
:1010BC00032000F011FD16B010BD00BF0028004049
:1010CC007047FEE7FEE7FEE7FEE7704770477047A4
:1010DC0000F07ABCFFF740BD014800F0BFBD00BF77
:1010EC0060020020014801F039BF00BF2804002035
:1010FC00014801F033BF00BF5C03002000F044BB8B
:10110C0000F0F2BA00F0CCBE014800F0A7BD00BF61
:10111C00C0020020102000F0B5BE012000F0B2BECD
:10112C00022000F0AFBE0021012003F05DBD10B520
:10113C0004464068083003F0C7FB003818BF012094
:10114C00207010BD10B1012803D070473F2003F070
:10115C0061BD3F2003F06CBDF0B5012808BF1F4BEB
:10116C001F4D04BF1E881F4B044689B095F88100A3
:10117C000EBF1F884FF47A674FF4C866FFF7E6FB83
:10118C00022C06D195F88030013B012B01D802F0DE
:10119C0075FB154A04922A7E0392144A029200238C
:1011AC000622CDE900323146CDE905333A461846E0
:1011BC0085F8804002F080FB0D490E2002F0C4FC43
:1011CC0048B9012C07D10B4995F8810009B0BDE84D
:1011DC00F040FFF713BC09B0F0BD00BFBE04002007
:1011EC00C0040020BC040020D9040020DA50000800
:1011FC000800002046E001000220FFF7ADBF000010
:10120C0070B5684B9AB00BAA03F1380516461868EE
:10121C005968144603C40833AB422246F7D11B88E5
:10122C00238009AD604B614809932946604B0A93B2
:10123C0002F0A4FF0121022003F0A0FC04205D4A6F
:10124C00002103F0F5FD304603F092F908B1FFF7E9
:10125C00E3FD4FF45073ADF81C3002F0A9FE564B71
:10126C00D3F88025511C00F09480544CD3F884356D
:10127C002270120A62701A0AA370E2701A0C1B0E0A
:10128C002271637122460621002002F03DFE4C4B78
:10129C0062791A7222795A72E2789A72A278DA72A8
:1012AC0062781A7322785A731021464A464C1820D9
:1012BC0002F02AFE454A1021082002F025FE1821D2
:1012CC00012002F04FFE02F0EFFC0DF1220301951C
:1012DC000093072208AB0021012002F0CDFB3C4B10
:1012EC00BDF82210009300220523BDF8200002F067
:1012FC00A5FD07ABBDF82410009300220223BDF816
:10130C00200002F09BFD022201251146002002F074
:10131C009DFE2846257002F027FB2E4BA36000266D
:10132C0041F20802A280657065801022CDE9033677
:10133C000823CDE90032029633462A462946284630
:10134C0002F036FBA3780BB102F028FC03F0A6FAEE
:10135C004FF6FF73204AE3820021012084F880605D
:10136C0003F066FD00F0D8F800F02AF900221B49C2
:10137C001B4B1046FFF7C0FA1A4BA3611A4B802285
:10138C001A801A4BA02201201A80FFF7E5FE1AB032
:10139C0070BD002003F0DCF8154C002818BF044683
:1013AC0070E700BF034F0008280003203B11000822
:1013BC0051110008DD4100080070FF1F440500209A
:1013CC0008000020CA500008C0040020BA500008D1
:1013DC00B450000807B201000512000841050020B6
:1013EC003311000803020D18BE040020BC040020B9
:1013FC00E050000837B543783E2B044614D0FF2B41
:10140C0033D0052B0DD1284B8188DA8A914208BF45
:10141C0000224FF0010004BFDA8283F88020FFF72E
:10142C009BFE012003B030BDC378012B0AD00C2BDE
:10143C00F7D11D4B0DF10702D88A0DF1060102F010
:10144C00D5FDEEE7184D95F88100FFF77FFA95F87A
:10145C008030042B0CBF0623052385F8803063797C
:10146C00A27943EA0223EB82DBE7B0F8033040F2C7
:10147C00054293420DD040F2094293420ED040F205
:10148C0002429342CDD1084B0849D88A02F0CEFAD9
:10149C00C7E7054BD88A02F0BDFBC2E7024B01211E
:1014AC00D88A02F0DBFBBCE7C004002040E201005C
:1014BC0002F092BB014BD88A02F020BBC004002082
:1014CC001FB50F4C0DF10E01E08A0DF10F0202F069
:1014DC008DFD014668B99DF80E30E08A022B0AD1C9
:1014EC009DF80F30022B06D1009101231A4602F011
:1014FC00D5FD04B010BD002100910223F6E700BF1A
:10150C00C00400200021042003F06EBB012003F076
:10151C009BBB012003F05ABC07B5064B00936946F0
:10152C00042342F629208DF8043002F011FE03B09A
:10153C005DF804FBB65000080C4B9A6A0C4BD97A38
:10154C0002F00702413209075A801A7B08D53AB9D2
:10155C009A8805329A80074942F6372002F09CBFE0
:10156C00012A04BF00221A73F5E700BF00280040CF
:10157C004A0500204C0500200021022003F034BB5A
:10158C0010B50378012B07D0022B10D01BB90B4AD6
:10159C0093800123137310BD084C607BFFF7D6F9C1
:1015AC00607B40F60101BDE81040FFF727BA034B02
:1015BC00BDE81040587BFFF7C9B900BF4A050020B1
:1015CC0070B5104C104A0021022003F031FC0025AC
:1015DC000423214642F638202370257302F05CFF69
:1015EC000A23A38041F6017363814FF48063E38087
:1015FC0004F10D012846054BBDE870400122FFF7B0
:10160C007BB900BF4A050020451500088515000868
:10161C004FF0B04382B0D3F8502142F48012C3F89B
:10162C005021D3F8503103F480130193019B0A4BE2
:10163C001A6A42F400721A62D3F8D42042F400728F
:10164C00C3F8D42040BF20BF044AD36843F40043FE
:10165C00D36002B0704700BF000800580004005867
:10166C004FF0B04307B51A6D42F480121A651B6D2A
:10167C0003F480130193019B084B1A6842F001029A
:10168C001A601A6842F480321A602C2000F024FA96
:10169C002D2003B05DF804EB00F01EBA000C0058CE
:1016AC00024A536823F0010353607047000C005842
:1016BC00024B4FF480329A60704700BF000C005808
:1016CC00024A536823F0020353607047000C005821
:1016DC00044B4FF400329A605A6822F400325A607C
:1016EC00704700BF000C005810B5164CE368990702
:1016FC0009D463689A0306D4636843F400336360C7
:10170C0003F0BEF910BDE3681B070DD46368180322
:10171C000AD4636843F4002363600B4B1B6898473F
:10172C004FF40023A360EDE7064BDA689106E9D489
:10173C005A689202E6D45A6842F400125A6003F0D6
:10174C006DF9DFE7000C00585805002010B5084C67
:10175C00E3681B0706D5074B1860636823F4002366
:10176C00636010BD80474FF40023A360F9E700BF0E
:10177C00000C005858050020024A536823F0080357
:10178C0053607047000C005810B5104CE3699A0771
:10179C0007D563689B0704D403F07EF90223A3608A
:1017AC0010BDE369D80706D56368D90703D403F0E5
:1017BC001FF90123F3E7054CE3691A07F0D56368B9
:1017CC001B07EDD403F0BEF90823E8E7000C005822
:1017DC00D458C4500433C4188C42F9D370470360F6
:1017EC0004308842FBD370470C48854600F07CF8E7
:1017FC000B480C490C4A0023FFF7EDFF0B480C4932
:10180C000023FFF7EEFF0B480B490023FFF7E9FF1E
:10181C0003F01EFBFFF7A2FAFEE700000000032016
:10182C000800002038000020885100088C0000209F
:10183C0070060020E4010320670A0320FEE74FF046
:10184C00B04382B0DA6C0243DA64DB6C184001906E
:10185C00019B02B07047000030B589B004460D46BC
:10186C001422002103A803F025FBBCB90420FFF7C8
:10187C00E6FFC5B9194B33F81430CDE90335012512
:10188C000223CDE90553164B03A953F8240000F0AD
:10189C003DFA2846FEF760FE09B030BD631E012BF1
:1018AC00E7D80820E3E7012DF6D10C4B059533F86A
:1018BC00143003934FF404130493094B03A953F806
:1018CC00240000F023FA074B0022185701900F2137
:1018DC0000F0D0F8019800F0FFF8DDE7EA500008BE
:1018EC0018000020E6500008174B00219960D3F82F
:1018FC00882042F47002C3F888204FF0B0436FF494
:10190C00827C1A6842F001021A604FF4E0229A605D
:10191C001868A2F1A262624402401A60D3F89420C3
:10192C0022F00502C3F89420D3F8982022F001028B
:10193C00C3F89820054ADA601A611A6822F48022EA
:10194C001A609961704700BF00ED00E0001004229E
:10195C0038B5104C237805460BB9012038BD00F082
:10196C00D3FB22784FF47A73B3FBF2F3B0FBF3F0B2
:10197C0000F0D4F804460028EFD10F2DEDD8024624
:10198C0029464FF0FF3000F075F8034B20461D60E0
:10199C00E4E700BF280000202C000020094A13684F
:1019AC0043F4807310B50320136000F051F800204D
:1019BC00FFF7CEFF044618B9FFF7FEFA204610BD1C
:1019CC000124FBE700400058034A044B11681B78C4
:1019DC000B441360704700BF5C05002028000020FA
:1019EC00014B1868704700BF5C050020014B18685C
:1019FC00704700BF2C000020014B1878704700BFC7
:101A0C00280000204FF0E022136923F00203136139
:101A1C0070474FF0E022136943F0020313617047E3
:101A2C00024A536823F0010353607047002004E01E
:101A3C00024A536823F0020353607047002004E00D
:101A4C00024A536823F0040353607047002004E0FB
:101A5C000749CA6822F4E0620302120403F4E0634B
:101A6C00120C134343F0BF6343F40033CB60704755
:101A7C0000ED00E0164B30B5DC68C4F30224C4F171
:101A8C000705231D042D28BF0425062B4FF0FF331B
:101A9C008CBF033C002403FA05F521EA0501A340A1
:101AAC0022EA0302A140002841EA0203ACBF00F184
:101ABC006040084A4FEA0313B8BF00F00F00DBB2D6
:101ACC00AABF00F56140135480F8003330BD00BF4D
:101ADC0000ED00E014ED00E0002808DB01234209D2
:101AEC0000F01F0003FA00F0014B43F8220070478E
:101AFC0000E100E000280DDB4309012200F01F008B
:101B0C0002FA00F02033044A42F82300BFF34F8F4F
:101B1C00BFF36F8F704700BF00E100E00138B0F1F8
:101B2C00807F0BD24FF0E023054A5861F02182F8F8
:101B3C0023100020072298611A617047012070471A
:101B4C0000ED00E0002809DB4309012200F01F0032
:101B5C0002FA00F04033024A42F82300704700BFFB
:101B6C0000E100E0002809DB4309012200F01F001E
:101B7C0002FA00F06033024A42F82300704700BFBB
:101B8C0000E100E040B190F82530022B06D0042390
:101B9C00C363002380F82430012070470368816CF4
:101BAC001A6822F00E021A600A6822F480720A6027
:101BBC001A6822F001021A60D0E9101303F01C021B
:101BCC00012393404B60D0E913325A60436D33B11B
:101BDC001A6822F480721A60D0E916325A60012316
:101BEC0080F82530002380F824301846704710B553
:101BFC0090F82530022B03D00423C363012010BDC1
:101C0C0003681A6822F00E021A601A6822F00102A8
:101C1C001A60826C136823F480731360D0E910137C
:101C2C0003F01C02012393404B60D0E913325A603D
:101C3C00436D33B11A6822F480721A60D0E91632FF
:101C4C005A60012380F82530836B002480F82440EF
:101C5C0013B198472046D2E71846D0E7016C426C86
:101C6C00036870B402F01C020E681D6804249440D2
:101C7C0034420ED015F0040F0BD01A6892065EBFDA
:101C8C001A6822F004021A60036B4C6073B370BCC8
:101C9C00184702249440344212D015F0020F0FD092
:101CAC001A68950606D41A6822F00A021A600123F3
:101CBC0080F8253000234C6080F82430C36AE5E7B7
:101CCC0008249440344211D02C070FD51C6824F002
:101CDC000E041C60012303FA02F24A60C36380F80D
:101CEC002530002380F82430436BCFE770BC70475D
:101CFC00036803F01F01C3F300435B01012203F1EE
:101D0C00B0438A40C3F80828704700002DE9F04F13
:101D1C00574C00234FF00F090A6832FA03F501D132
:101D2C00BDE8F08F012505FA03F818EA020200F06D
:101D3C0094804E68032706F003054FEA430E07FA1A
:101D4C000EFC6F1E012F6FEA0C0C32D8876807EA65
:101D5C000C0ACF6807FA0EF747EA0A07876047684C
:101D6C0027EA0808C6F300179F4047EA08074760B0
:101D7C00C76807EA0C088F6807FA0EF747EA0807E6
:101D8C00022DC76017D14FEAD30800EB880803F087
:101D9C00070AD8F820704FEA8A0A09FA0AFB27EAE0
:101DAC000B0B0F6907FA0AF747EA0B07C8F8207004
:101DBC0001E0032DDCD1076805FA0EF507EA0C07E4
:101DCC002F4316F4403F076047D023F0030707F179
:101DDC00804707F5803703F0030CBD684FEA8C0C85
:101DEC0009FA0CFEB0F1904F25EA0E0E37D0214DBA
:101DFC00A84236D005F58065A84234D005F580653B
:101E0C00A84232D005F58065A8420CBF04250725F1
:101E1C0005FA0CF545EA0E05BD602568D74316F4A6
:101E2C00801F0CBF3D4015432560656816F4001FEC
:101E3C000CBF3D4015436560D4F8805016F4803FCC
:101E4C000CBF3D401543C4F88050D4F88450B60301
:101E5C0054BF3D401543C4F8845001335CE7002562
:101E6C00D6E70125D4E70225D2E70325D0E700BF4A
:101E7C0000080058000400480AB181617047816273
:101E8C0070470000044AD168014208B502D0D06006
:101E9C00FEF790FB08BD00BF00080058704700001B
:101EAC0008B5054BD8681A6822EA00021A60586017
:101EBC00FFF7F4FF08BD00BF0015005870477047CE
:101ECC000449054A031D1C3043F8041B83425A6124
:101EDC00FAD17047CB1E0008C91E000838B504465D
:101EEC00C8B190F838300BB9FFF776F80B4B0025DA
:101EFC004FF03F121D605A603F229A601A6842F000
:101F0C0001121A602046FFF7DBFF0123656384F89A
:101F1C003830284638BD0120FCE700BF000C0058C3
:101F2C00024A136843F4807313607047000400582E
:101F3C00024B186800F4C060704700BF00040058E2
:101F4C004FF0B043D3F89400C0F3400070474FF00B
:101F5C00B0431868C0F3400070474FF0B0421368AC
:101F6C0023F0F0031843106070474FF0B0425368F1
:101F7C0023F47F4343EA002050607047B028334B72
:101F8C00334A98BF0009F0B58CBFDD6A53F8205076
:101F9C00304C4FF0B04389B0D3F8083103F00F0345
:101FAC006E4652F82330B5FBF3F5FFF7C1FF074639
:101FBC0094E80F00103486E80F0094E80F00B7F592
:101FCC00007F08AC04E90F0020D0234B9D422FD397
:101FDC0003F5B70303F67F539D422BD903F5741316
:101FEC0003F510639D4227D900241C4D2B6823F068
:101FFC00070323432B60FFF7F3FC06462B6803F023
:10200C0007039C421AD1002009B0F0BD144BB5FB5C
:10201C00F3F5002356F8042B954205D808AA02EBD9
:10202C00830353F8104CE0E70133042BF2D1DBE7C8
:10203C000023F3E70123F1E70223EFE7FFF7D0FCDE
:10204C00801B0228DAD90320DEE700BF30510008DC
:10205C00F0500008404F0008C0CF6A000040005804
:10206C0040420F004FF0B0439A6812F00C020AD1B4
:10207C001B68224A03F0F003B02B28BFB0231B09C6
:10208C0052F823007047042A35D0082A07D11B6860
:10209C001B4813F4801F1B4B08BF18467047DA68A7
:1020AC0002F00302022A24D0032A1B6817D1154818
:1020BC00134913F4801F08BF01464FF0B043D86892
:1020CC00DA68DB68C0F30620C2F302125B0F4843E8
:1020DC0001320133B0FBF2F0B0FBF3F0704703F0C8
:1020EC00F003B02B28BFB023044A1B0952F823106D
:1020FC00E3E70349E1E70248704700BF30510008AD
:10210C000024F4000048E80108B5FFF7ABFF4FF0DE
:10211C00B043044A9B68C3F3031352F82330B0FB5B
:10212C00F3F008BDF0500008F8B5044608B90120DA
:10213C00B3E003689A0630D54FF0B042C16993689A
:10214C00D26813F00C0307D00C2B40F08C8002F0FB
:10215C000303012B40F087800029E8D04FF0B043F7
:10216C00606A1B6803F0F003B02B28BFB0239842C1
:10217C006ED9FFF703FF0028D9D1606AFFF7EDFE97
:10218C00206AFFF7F2FEFFF7BFFFB14B1860B14BAF
:10219C001868FFF7DDFB0028C9D12368DB0711D5D0
:1021AC004FF0B0429368D168626803F00C03082BBF
:1021BC0006D00C2B40F0838001F00303032B7ED15F
:1021CC00002AB4D0236899071BD54FF0B042E168C0
:1021DC009368D26803F00C03042B07D00C2B40F04F
:1021EC00988002F00303022B40F0938000299ED0CC
:1021FC004FF0B0422169536823F0FE4343EA016378
:10220C005360236813F0180F40F0AE8023685F070B
:10221C0000F1498123685A0640F1AE81A36A4FF060
:10222C00B045002B00F09581D5F8983043F00103B0
:10223C00C5F89830FFF7D4FB0646D5F898309B07C5
:10224C0000F19A81FFF7CCFB831B022BF5D923E01D
:10225C00FFF783FE206AFFF788FE606AFFF78EFEA9
:10226C00002890D063E74FF0B0431A68B1B142F048
:10227C0001021A60FFF7B4FB0546FFF768FE30B1A8
:10228C00606AFFF76AFE206AFFF76FFE85E7FFF7CB
:10229C00A7FB401B0228F0D90320F8BD22F0010255
:1022AC001A60FFF79DFB0546FFF751FE00283FF42F
:1022BC0074AFFFF795FB401B0228F5D9ECE74FF004
:1022CC00B045B2F5803F2B6811D143F480332B60BD
:1022DC00FFF786FB4FF0B046054633689F033FF58A
:1022EC0071AFFFF77DFB431B642BF6D9D4E723F4C6
:1022FC0080332B60002AEBD1FFF772FB06462B686C
:10230C0098037FF55FAFFFF76BFB831B642BF6D94C
:10231C00C2E74FF0B0452B68B1B143F480732B602A
:10232C00FFF75EFB06462B685A0505D4FFF758FBF2
:10233C00831B022BF7D9AFE76B68226923F0FE43AE
:10234C0043EA02636B605CE723F480732B60FFF756
:10235C0047FB06462B685B057FF553AFFFF740FB49
:10236C00831B022BF6D997E762694FF0B045002A20
:10237C0072D0DE0647D5FFF7E3FDA0B14FF0B045B4
:10238C00D5F8943043F00403C5F89430FFF728FBDC
:10239C000646D5F89430180718D4FFF721FB831B99
:1023AC00032BF6D978E7D5F8943043F00103C5F840
:1023BC009430FFF715FB0546FFF7C2FD0028DDD171
:1023CC00FFF70EFB401B0228F6D965E7D5F89430D1
:1023DC00A26923F4706343EA0223C5F89430D5F85C
:1023EC00943023F00103C5F89430FFF7F9FA054651
:1023FC00FFF7A6FD00283FF409AFFFF7F1FA401BE9
:10240C000228F5D948E7D5F8943043F00103C5F814
:10241C009430FFF7E5FA0546FFF792FD90B14FF0C7
:10242C00B046D6F8943023F00403C6F89430D6F8AE
:10243C00943019077FF5EAAEFFF7D2FA401B032858
:10244C00F5D929E7FFF7CCFA401B0228E4D923E79A
:10245C00240000202C000020D5F8943023F0040335
:10246C00C5F89430FFF7BCFA0646D5F894301A0735
:10247C0013D4D5F8943023F00103C5F89430FFF74A
:10248C00AFFA0546FFF75CFD00283FF4BFAEFFF73F
:10249C00A7FA401B0228F5D9FEE6FFF7A1FA831B29
:1024AC00032BE2D9F8E6814E3368DB051CD5A36813
:1024BC00012B4FF0B04525D1D5F8903043F00103F6
:1024CC00C5F89030FFF78CFA4FF0B047054641F253
:1024DC008836D7F8903098073FF59CAEFFF780FA16
:1024EC00431BB342F5D9D7E6FFF71AFDFFF778FA8D
:1024FC0005463368DF05DAD4FFF772FA401B022871
:10250C00F7D9C9E6052B06D1D5F8903043F0040372
:10251C00C5F89030D0E7D5F8902022F00102C5F82C
:10252C009020D5F8902022F00402C5F89020002BC2
:10253C00C8D1FFF755FA41F288370646D5F89030E6
:10254C0099077FF567AEFFF74BFA831BBB42F5D9B2
:10255C00A2E6D5F8983023F00103C5F89830FFF7C0
:10256C003FFA0646D5F898309F0705D5FFF738FA9D
:10257C00831B022BF6D98FE6E16A09B900208CE6A1
:10258C004FF0B0450229AA68EB6802F00C0274D136
:10259C00206B03F00301814218D1606B03F07001D2
:1025AC00814213D1A06BC3F3062181420ED1E06BA3
:1025BC0003F47811814209D1206C03F060618142EF
:1025CC0004D1616C03F060438B423FD00C2A3FF482
:1025DC00AEAD4FF0B0452B685E013FF5A8AD2B6852
:1025EC0023F080732B60FFF7FBF906462B689801EC
:1025FC0026D4D4E90C32E96813432D4A0A4013431C
:10260C00E26B1343226C1343626C1343A26B43EAD9
:10261C000223EB602B6843F080732B60EB6843F074
:10262C008053EB60FFF7DCF94FF0B04504462B68A4
:10263C009901A3D4FFF7D4F9001B0228F7D92BE694
:10264C00FFF7CEF9801B0228D0D925E62B689A011A
:10265C0094D42B6843F080732B60EB6843F0805369
:10266C00EB60FFF7BDF904462B689B0186D4FFF79E
:10267C00B7F9001B0228F7D90EE60C2A3FF457AD28
:10268C002B6823F080732B60FFF7AAF904462B68A4
:10269C0013F0007304D1E968064A0A40EA606DE75A
:1026AC00FFF79EF9001B0228F1D9F5E5000400584C
:1026BC008C80C111FCFFFEEE2DE9F0410D46044665
:1026CC0010B90120BDE8F081794E336803F007039F
:1026DC008B4216D323689A0727D54FF0B047A268D0
:1026EC00BB6823F0F0031343BB60FFF779F9064690
:1026FC00BB68DB0319D4FFF773F9831B022BF7D9E3
:10270C0011E0336823F007030B433360FFF768F9DC
:10271C000746336803F00703AB42DBD0FFF760F9E1
:10272C00C01B0228F5D90320CCE72368980616D5E0
:10273C004FF0B0476269D7F8083123F0F003134328
:10274C00C7F80831FFF74CF90646D7F8083199035A
:10275C0005D4FFF745F9831B022BF6D9E3E7236871
:10276C005A0617D54FF0B047A269D7F8083123F0B5
:10277C000F0343EA1213C7F80831FFF731F9064685
:10278C00D7F80831DB0305D4FFF72AF9831B022B9A
:10279C00F6D9C8E723685E0713D54FF0B047E26857
:1027AC00BB6823F4E0631343BB60FFF719F90646DB
:1027BC00BB68980305D4FFF713F9831B022BF7D9D9
:1027CC00B1E72368190714D54FF0B0472269BB68ED
:1027DC0023F4605343EAC203BB60FFF701F90646DA
:1027EC00BB685A0305D4FFF7FBF8831B022BF7D900
:1027FC0099E72368DB070FD42D4C236803F00703FC
:10280C00AB4241D8FFF780FC2A4B1860FFF7EEF87B
:10281C00BDE8F041FFF79CB86368022B20D14FF064
:10282C00B0431B6813F4003F3FF44BAF4FF0B0467E
:10283C006268B36823F003031343B360FFF7D0F867
:10284C0041F288380746B368626803F00C03B3EBB7
:10285C00820FD1D0FFF7C4F8C01B4045F3D962E713
:10286C00032B05D14FF0B0431B6813F0007FDBE75F
:10287C0023B9FFF76CFB0028D8D122E74FF0B04307
:10288C001B6813F4806FCFE7236823F007032B43F7
:10289C002360FFF7A5F80646236803F00703AB4255
:1028AC00B0D0FFF79DF8801B0228F5D93BE700BF9D
:1028BC0000400058240000204FF0B043D3F89000A3
:1028CC00C0F3400070474FF0B0410209D1F8883096
:1028DC0002F47F22000123EA020300F47F20184354
:1028EC00C1F8880070474FF0B042136843F0806322
:1028FC00136070474FF0B042136823F0806313608D
:10290C0070474FF0B0431868C0F3C0607047F8B51B
:10291C00056815F0400504460AD0036BB3F5800F2B
:10292C0000F0D98000F2C580002B00F0DB8001257F
:10293C002368180515D54FF0B046236CD6F8907067
:10294C0007F44077BB420CD0FFF7EAFAD6F8903088
:10295C00002F40F0FB80226C23F440731343C6F825
:10296C0090302368DA0709D54FF0B041A069D1F84F
:10297C00882022F003020243C1F888209F0709D562
:10298C004FF0B041E069D1F8882022F44062024354
:10299C00C1F88820DE060CD5A66A4FF0B040310C89
:1029AC00D0F88820090422EA010242EA0642C0F863
:1029BC00882098060CD5E66A4FF0B040310CD0F860
:1029CC008820090422EA010242EA0642C0F8882063
:1029DC00590702D5206AFFF776FF23681A0702D53C
:1029EC00606AFFF770FF2368DB0511D54FF0B0422A
:1029FC00616BD2F8883023F040630B43B1F1006F68
:102A0C00C2F8883040F0CA80D36843F08073D3603A
:102A1C002668B7051AD5A26BB2F1004F4FF0B04340
:102A2C0003D032F0804140F0F180D3F8881021F0CF
:102A3C0040411143B2F1C05F08BF4FF0B042C3F840
:102A4C00881002BFD36843F08073D360700511D532
:102A5C004FF0B042E16BD2F8883023F040530B4377
:102A6C00B1F1005FC2F8883040F0DE80D36843F4E7
:102A7C008033D3602268D10409D54FF0B041606C2B
:102A8C00D1F8943023F440430343C1F894309304B9
:102A9C000DD54FF0B042E16C536A23F030030B4379
:102AAC005362536AA16C23F003030B435362284611
:102ABC00F8BD23F48003B3F5000F7FF438AF4FF06B
:102ACC00B042216BD2F8883023F440030B43C2F898
:102ADC00883000252CE74FF0B042D36843F48033A4
:102AEC00D360ECE7FFF706FFFEF77AFF0546FFF72A
:102AFC0008FFA0B94FF0B0426168136923F4FE439C
:102B0C0043EA012313611369A16823F478130B437F
:102B1C001361FFF7E8FEFEF763FF05460BE0FEF7D7
:102B2C005FFF401B0228E2D9032501E7FEF758FF9F
:102B3C00401B0228F8D8FFF7E4FE0128F6D14FF02D
:102B4C00B042616913690B431361B8E7D6F8902062
:102B5C0042F48032C6F89020D6F8902022F48032CD
:102B6C00C6F89020226C23F440731343C6F89030BF
:102B7C00D6F89030D9077FF5F4AEFEF731FF41F26D
:102B8C0088370646FFF798FE01283FF4EAAEFEF7B9
:102B9C0027FF801BB842F5D90325E2E6B1F1806F1F
:102BAC007FF436AFFFF7A6FEFEF71AFF0646FFF7D7
:102BBC00A8FEA0B94FF0B0426168136923F4FE433C
:102BCC0043EA012313611369E16823F060630B434B
:102BDC001361FFF788FEFEF703FF06460BE0FEF7D6
:102BEC00FFFE801B0228E2D9032511E7FEF7F8FE51
:102BFC00801B0228F8D8FFF784FE0128F6D14FF08D
:102C0C00B042616913690B43136101E7D3F8881073
:102C1C0021F04041C3F88810D3F8880022F080518D
:102C2C0020F04060014305E7B1F1805F7FF422AFF3
:102C3C00FFF760FEFEF7D4FE0646FFF762FEA0B972
:102C4C004FF0B0426168136923F4FE4343EA012359
:102C5C0013611369216923F060430B431361FFF780
:102C6C0042FEFEF7BDFE06460BE0FEF7B9FE801BEA
:102C7C000228E2D90325FDE6FEF7B2FE801B0228EE
:102C8C00F8D8FFF73EFE0128F6D14FF0B04261694B
:102C9C0013690B431361EDE610B50446C0B1437ADA
:102CAC0003F0FF0213B90272FEF7B4F922686168EF
:102CBC0002236372136823F020030B431360136821
:102CCC0043F004031360002001236372E06010BD25
:102CDC000120FCE7026838B5D36823F0A003D36069
:102CEC000446FEF77DFE05462368DB689B0601D58E
:102CFC00002038BDFEF774FE401BB0F57A7FF3D987
:102D0C000320F6E738B50368DA685206044601D5A5
:102D1C00002038BD4FF0FF32DA60FEF761FE054649
:102D2C002368DB685B06F3D4FEF75AFE401BB0F554
:102D3C007A7FF5D90320ECE738B50446F0B190F86A
:102D4C00213003F0FF021BB980F82020FEF782F936
:102D5C00022384F82130284BDB68DB0647D4236838
:102D6C00CA225A6253225A622046FFF7CBFF2368CD
:102D7C0030B1FF225A62042384F8213001203AE05A
:102D8C009A68206922F4E00222F040029A6062689C
:102D9C0099680243A06902430A439A60E2681A6187
:102DAC001A69A168606942EA01421A61DA6822F084
:102DBC008002DA60DA6C22F00302DA64E269D96C20
:102DCC0002430A43DA649D6815F020050CD12046B5
:102DDC00FFF780FF40B12368FF225A62042384F876
:102DEC00213084F82050C9E72368FF225A6201235E
:102DFC0084F82130002038BD002800402DE9F04136
:102E0C0090F82030012B04460E4615464FF0020078
:102E1C0058D0012384F82030236884F82100CA227A
:102E2C005A6253225A629B685A0535D422689368B9
:102E3C0023F480639360D368DBB263F49063D36054
:102E4C00FEF7CEFD80462368DF6817F004073BD001
:102E5C005E619A6822F007029A609A681543224ACA
:102E6C009D60D2F8801041F40021C2F880101168E6
:102E7C0041F4002111609A6842F480429A609A6889
:102E8C0042F480629A60FF225A620020012384F887
:102E9C00213084F8200015E0FEF7A2FD07462368D8
:102EAC00DB685B07C2D5FEF79BFDC01BB0F57A7FD4
:102EBC00F5D92368FF225A620320002384F82100ED
:102ECC0084F82030BDE8F081FEF78AFDA0EB080005
:102EDC00B0F57A7FB7D92368FF2203205A6284F8B1
:102EEC00210084F82070EDE70008005810B5026846
:102EFC0052E8003F23F4907342E800310268002945
:102F0C00F5D10F4C02F1080353E8003F234002F1C6
:102F1C00080C4CE800310029F4D1C36E012B07D109
:102F2C0052E8003F23F0100342E800310029F7D1AA
:102F3C002023C0F88C300023C366436710BD00BF4C
:102F4C00FEFFFFEF704708B5806A0023A0F85E30E3
:102F5C00A0F85630FFF7F6FF08BD70470368DA6932
:102F6C0019682DE9F04140F60F0632429D6804467F
:102F7C0010D1960640F1988001F0200605F080579C
:102F8C003E4300F09180436F002B00F08680BDE83B
:102F9C00F0411847AC4EAD482E400840304300F08D
:102FAC008380D70709D5C80507D501201862D4F846
:102FBC00900040F00100C4F89000970709D5E8078D
:102FCC0007D502201862D4F8900040F00400C4F831
:102FDC009000570709D5E80707D504201862D4F8E4
:102FEC00900040F00200C4F8900017070BD501F0D8
:102FFC002000304307D008201862D4F8900040F02D
:10300C000800C4F8900016050AD5480108D54FF4FD
:10301C0000601862D4F8903043F02003C4F890306C
:10302C00D4F89030002B38D093060AD501F020014B
:10303C0005F0805551EA050303D0636F0BB12046B0
:10304C0098472368D4F890509B6805F0280503F046
:10305C0040031D43204622D0FFF748FF22689368A7
:10306C005F0617D502F1080353E8003F23F0400335
:10307C0002F1080040E800310029F3D1D4F88000B7
:10308C0040B1734B8363FEF7B2FD30B1D4F88000CE
:10309C00836B7CE72046FFF755FFBDE8F081FFF717
:1030AC0051FFC4F89050F8E7E06E012840F0898099
:1030BC00D60640F18680C80640F1838010221A6241
:1030CC009A6851064BD5D4F8802011684A6892B2A0
:1030DC00002AE2D0B4F85C009042DED9A4F85E205D
:1030EC000A6892062FD453E8002F22F4807243E82A
:1030FC0000210029F7D103F1080252E8002F22F039
:10310C00010203F1080040E800210029F3D103F18A
:10311C00080252E8002F22F0400203F1080040E8B8
:10312C0000210029F3D12022C4F88C20E16653E859
:10313C00002F22F0100243E800210029F7D1D4F827
:10314C008000FEF71FFD02232367B4F85E30B4F84D
:10315C005C10C91A89B22046FFF7FFFE9DE7B4F850
:10316C005E108AB2B4F85E1089B2002995D0B4F81A
:10317C005C10891A89B200298FD053E8002F22F4F1
:10318C00907243E800200028F7D1324D03F1080279
:10319C0052E8002F2A4003F1080646E800200028D8
:1031AC00F4D12022C4F88C206067E06653E8002F2D
:1031BC0022F0100243E800200028F7D102232367F5
:1031CC00C9E7D70209D56E0207D54FF48012204605
:1031DC001A62BDE8F04100F04DBB10060BD501F0B2
:1031EC00800005F40005284305D0A36F002B3FF4A5
:1031FC0054AF2046CBE6570611D54E060FD553E8F3
:10320C00002F22F0400243E800210029F7D12023AF
:10321C00C4F88830A1672046FDF71EFD3DE7150276
:10322C0006D5480004D52046BDE8F04100F024BB8B
:10323C00D3017FF532AF0029BFF62FAF2046BDE892
:10324C00F04100F018BB00BF010000102001000489
:10325C00532F0008FEFFFFEFD0F88C20222A08B570
:10326C00036857D15B6AB0F86010826D0B40137025
:10327C00836D01338365B0F85E30013B9BB2A0F8DF
:10328C005E30B0F85E309BB2002B42D1026852E83F
:10329C00003F23F4907342E8003103680029F5D114
:1032AC0003F1080252E8002F22F0010203F1080C8E
:1032BC004CE800210029F3D12022C0F88C20184AB8
:1032CC0041679342016705D1C26E012A0ED0FDF70A
:1032DC00B5FC1EE05A681102F6D553E8002F22F017
:1032EC00806243E800210029F7D1EDE70022C26695
:1032FC0053E8002F22F0100243E800210029F7D1F7
:10330C00DA69B0F85C10D20644BF10221A62FFF7DB
:10331C0024FE08BD9A6942F008029A61F9E700BFE1
:10332C0000800040D0F88C20222A08B5036854D1C4
:10333C00596AB0F860201140826D22F8021B826538
:10334C00B0F85E20013A92B2A0F85E20B0F85E2090
:10335C0092B2002A40D153E8002F22F4907243E835
:10336C0000210029F7D103F1080252E8002F22F0C6
:10337C00010203F1080C4CE800210029F3D12022B2
:10338C00C0F88C20174A41679342016705D1C26E81
:10339C00012A0ED0FDF752FC1EE05A681102F6D538
:1033AC0053E8002F22F0806243E800210029F7D176
:1033BC00EDE70022C26653E8002F22F0100243E82A
:1033CC0000210029F7D1DA69B0F85C10D20644BFAD
:1033DC0010221A62FFF7C1FD08BD9A6942F008027B
:1033EC009A61F9E7008000402DE9F74F0368DF6927
:1033FC001A689D68D0F88C1001922229044640F07E
:10340C00B680B0F86080B0F86890DFF870A1DFF893
:10341C0070B10026B9F1000F01D0BB0621D4B4F86D
:10342C005E309BB2D3B1B4F868209A4216D92268A8
:10343C0002F1080353E8003F23F08053083242E8BE
:10344C00003122680029F2D14B4B636752E8003FF0
:10345C0043F0200342E800310029F7D103B0BDE866
:10346C00F08F2368A26D5B6A03EA08031370A36DE7
:10347C000133A365B4F85E30013B9BB2A4F85E3017
:10348C002368DF6978072CD0F9070AD5019AD20591
:10349C0007D501211962D4F8901041F00101C4F84C
:1034AC009010B80709D5E90707D502211962D4F89D
:1034BC00901041F00401C4F890107A0709D5E80780
:1034CC0007D504211962D4F8903043F00203C4F8F4
:1034DC009030D4F8903023B12046FFF733FDC4F878
:1034EC009060B4F85E309BB2002B93D1216851E808
:1034FC00003F23F4807341E8003023680028F5D1A5
:10350C0003F1080252E8001F01EA0A0142E8001028
:10351C000028F5D120215B45C4F88C10606720672A
:10352C000AD05968090207D553E8001F21F08061C1
:10353C0043E800100028F7D1E16E012913D1E666AB
:10354C0053E8001F21F0100143E800100028F7D1C8
:10355C00D969CA0644BF102119622046B4F85C1020
:10356C00FFF7FBFC56E72046FDF768FB52E79A692C
:10357C0042F008029A6171E765320008FEFFFFEF26
:10358C00008000402DE9F74F0368DF691A689D68D9
:10359C00D0F88C1001922229044640F0B480B0F887
:1035AC006080B0F86890DFF86CA1DFF86CB1002691
:1035BC00B9F1000F01D0BB0621D4B4F85E309BB238
:1035CC00D3B1B4F868209A4216D9226802F10803E4
:1035DC0053E8003F23F08053083242E80031226860
:1035EC000029F2D14A4B636752E8003F43F02003B5
:1035FC0042E800310029F7D103B0BDE8F08F236811
:10360C00A26D596A08EA010122F8021BA265B4F8FE
:10361C005E20013A92B2A4F85E20DF6978072CD0C4
:10362C00F9070AD5019AD20507D501211962D4F8F8
:10363C00901041F00101C4F89010B80709D5E907C2
:10364C0007D502211962D4F8901041F00401C4F896
:10365C0090107A0709D5E80707D504211962D4F828
:10366C00903043F00203C4F89030D4F8903023B17A
:10367C002046FFF767FCC4F89060B4F85E309BB24C
:10368C00002B95D1216851E8003F23F4807341E869
:10369C00003023680028F5D103F1080252E8001F1E
:1036AC0001EA0A0142E800100028F5D120215B450F
:1036BC00C4F88C10606720670AD05968090207D5D6
:1036CC0053E8001F21F0806143E800100028F7D177
:1036DC00E16E012913D1E66653E8001F21F01001B9
:1036EC0043E800100028F7D1D969CA0644BF10215D
:1036FC0019622046B4F85C10FFF72FFC58E72046FF
:10370C00FDF79CFA54E79A6942F008029A6173E754
:10371C0031330008FEFFFFEF00800040836830B5B6
:10372C00B3F5805F81654FF00001A0F85C20A0F834
:10373C005E20416735D103698BBB40F2FF13A0F8C3
:10374C0060300023C0F890302223C0F88C30016820
:10375C0001F1080353E8003F43F00103083141E84D
:10376C0000340368002CF2D1456E84680169B5F110
:10377C00005F37D1B0F86850954233D8B4F5805F0C
:10378C0020D1274A274C002918BF22464267D9B1BD
:10379C0053E8002F42F4807243E80021F7E7FF233F
:1037AC00CDE723B90369002BF9D07F23C7E7B3F129
:1037BC00805F04D10369002BF7D03F23BFE7A0F84B
:1037CC006010BEE7174AE1E703F1080252E8002F48
:1037DC0042F0805203F1080040E800210029F3D1A7
:1037EC00002030BDB4F5805F0FD10F4A0F4C00297B
:1037FC0018BF2246426751B153E8002F42F4907231
:10380C0043E800210029F7D1EAE7084AF2E753E838
:10381C00002F42F0200243E800210029F7D1DFE716
:10382C0091350008F5330008313300086532000883
:10383C00D0F88C30202B30B415D1B9B1B2B10023F3
:10384C000468C3660A4B9C420AD063681B0207D506
:10385C0054E8003F43F0806344E80035002DF7D175
:10386C0030BCFFF75BBF022030BC70470120FBE788
:10387C0000800040704770477047000010B500246E
:10388C0088B01822214602A88DF8074000F05EFE91
:10389C00084B02930DF1070306932146012302A85E
:1038AC00079300F0CBFCA042ACBF9DF80700FF20B3
:1038BC0008B010BD3F0081002DE9F04FCBB09C4605
:1038CC009DF854619DF85C51ADF82B209DF850216A
:1038DC008DF828000AAC06F108034FF00009ADF88A
:1038EC0029108DF82E2056998DF82DC032460CA833
:1038FC0004EB030B01938DF82F6005F109078DF88C
:10390C000F9000F021FE019B5899E55437442A464C
:10391C000BF1010000F018FE04EB070ABDF864314E
:10392C00E353BDF86831AAF802301822494609362B
:10393C0004A800F00BFE35440A4B04930DF10F085C
:10394C0001230435494604A8CDE907580694099388
:10395C0000F074FC4845ACBF9DF80F00FF204BB045
:10396C00BDE8F08F3F00830070B5C8B000258DF81E
:10397C0020001822294602A88DF8075000F0E6FD19
:10398C000A4B02930DF10704012308AE294602A845
:10399C00CDE905340496079300F050FCA842ACBF67
:1039AC009DF80700FF2048B070BD00BF3F008500A8
:1039BC0070B5C8B000268DF823309DF830318DF8E5
:1039CC0024309DF834318DF825309DF838318DF840
:1039DC0026304F9B8DF820008DF821108DF8222079
:1039EC00CDF8273018229DF840318DF82B30314618
:1039FC0002A88DF8076000F0A9FD0B4B02930DF1A6
:103A0C0007050C23CDE9053508AC0123314602A886
:103A1C000494079300F012FCB042ACBF9DF8070071
:103A2C00FF2048B070BD00BF3F00860070B5C8B025
:103A3C000025ADF82000CDF822101822294602A846
:103A4C008DF8075000F082FD0A4B02930DF107042C
:103A5C000623CDE9053408AE0123294602A80496B5
:103A6C00079300F0EBFBA842ACBF9DF80700FF20CA
:103A7C0048B070BD3F0088002DE9F041C8B08046C9
:103A8C000F4616460021072268461D4600F05EFDD3
:103A9C001822002102A88DF820808DF821708DF855
:103AAC00226000F053FD144B02930323059308ACE2
:103ABC000723002102A80494CDF818D0079300F036
:103ACC00BDFB002816DB9DF8000080B9009B9DF81B
:103ADC000420C3F30F232B809DF8033043EA022309
:103AEC004E9A1380019B4F9AC3F30F23138048B057
:103AFC00BDE8F081FF20FAE73F008A0070B5C8B03E
:103B0C000025ADF820002946182202A88DF8075090
:103B1C0000F01CFD0B4A0F23CDE902230DF1070425
:103B2C000223CDE9053408AE0123294602A80496E8
:103B3C00079300F083FBA842ACBF9DF80700FF2061
:103B4C0048B070BD3F008D00F0B5C9B000268DF8AF
:103B5C002000024604460DF121008DF8076000F0AC
:103B6C00F3FC1822314602A800F0F0FC0A4B029339
:103B7C000DF10705012308AF0134314602A8CDE948
:103B8C0005450497079300F059FBB042ACBF9DF874
:103B9C000700FF2049B0F0BD3F008E0010B5002497
:103BAC0088B01822214602A88DF8074000F0CEFC00
:103BBC00084B02930DF1070306932146012302A83B
:103BCC00079300F03BFBA042ACBF9DF80700FF2021
:103BDC0008B010BD3F00920010B5002488B0182228
:103BEC00214602A88DF8074000F0B0FC084B029368
:103BFC000DF1070306932146012302A8079300F059
:103C0C001DFBA042ACBF9DF80700FF2008B010BD03
:103C1C003F00940070B5C8B00025ADF82000182204
:103C2C00294602A88DF8075000F090FC0A4B02932D
:103C3C000DF107040223CDE9053408AE0123294612
:103C4C0002A80496079300F0F9FAA842ACBF9DF8BD
:103C5C000700FF2048B070BD3F00950070B5C8B09C
:103C6C000025ADF820008DF822101822294602A854
:103C7C008DF8075000F06AFC0A4B02930DF1070413
:103C8C000323CDE9053408AE0123294602A8049686
:103C9C00079300F0D3FAA842ACBF9DF80700FF20B1
:103CAC0048B070BD3F00A50010B5002488B01822A4
:103CBC00214602A88DF8074000F048FC084B0293FF
:103CCC000DF1070306932146012302A8079300F088
:103CDC00B5FAA042ACBF9DF80700FF2008B010BD9C
:103CEC003F0001012DE9F04F0128C9B004468A4676
:103CFC0091461F463BD002280CBF4FF011084FF0E5
:103D0C00010801AD03220021284608AE00F01EFC7C
:103D1C00012C34702ED0022C2ED1102406EB080B63
:103D2C00224651460DF1210000F00EFC06F80890D9
:103D3C00182200218BF8017002A800F007FC104B30
:103D4C00029303340323002102A8CDE90545049610
:103D5C00079300F073FA002810DB287820B92B6841
:103D6C00529AC3F30F23138049B0BDE8F08F4FF084
:103D7C000308C6E70224D1E79720F5E7FF20F3E715
:103D8C003F0002012DE9F0430129C9B006460C465B
:103D9C009146984647D002290CBF1327032708AD3C
:103DAC000322002101A800F0D1FB012C2E80AC7065
:103DBC003BD0022C3BD11024EE19224649460DF182
:103DCC00230000F0C1FB9DF8403125F80780B3704B
:103DDC009DF84431F3709DF8483133719DF84C31A6
:103DEC0073719DF85031B3711822002102A800F0B4
:103DFC00ADFB0A34104B02930594032301AC002154
:103E0C0002A804950694079300F018FA002810DB1A
:103E1C009DF8040020B9019B559AC3F30F2313801E
:103E2C0049B0BDE8F0830527B9E70224C4E7972021
:103E3C00F6E7FF20F4E700BF3F000401F0B5C9B07E
:103E4C000027ADF82000ADF822108DF824204E99F3
:103E5C008DF825301A460DF126001C468DF807709A
:103E6C0000F072FB1822394602A800F06FFB0B4BD6
:103E7C0002930DF10706012308AD0634394602A85A
:103E8C00CDE905460495079300F0D8F9B842ACBFCC
:103E9C009DF80700FF2049B0F0BD00BF3F000601B0
:103EAC00F0B5C9B000279DF83851ADF82000ADF839
:103EBC0022108DF824204F998DF825302A460DF1CB
:103ECC0027008DF826508DF8077000F03DFB182266
:103EDC00394602A800F03AFB0A4B02930DF1070693
:103EEC00012308AC0735394602A8CDE905560494E0
:103EFC00079300F0A3F9B842ACBF9DF80700FF2070
:103F0C0049B0F0BD3F002601F0B5C9B00C46002603
:103F1C0011468DF8200022460DF122008DF821402B
:103F2C008DF8076000F010FB1822314602A800F053
:103F3C000DFB0B4B02930DF10705012308AF023467
:103F4C00314602A8CDE905450497079300F076F9B0
:103F5C00B042ACBF9DF80700FF2049B0F0BD00BFD8
:103F6C003F000C0070B5C8B000258DF820008DF80E
:103F7C0021101822294602A88DF8075000F0E6FA05
:103F8C000A4B02930DF107040223CDE9053408AE68
:103F9C000123294602A80496079300F04FF9A84282
:103FAC00ACBF9DF80700FF2048B070BD3F000F006C
:103FBC0010B5002488B01822214602A88DF80740BD
:103FCC0000F0C4FA4FF0031302930DF107030693AC
:103FDC002146012302A8079300F030F9A042ACBFA0
:103FEC009DF80700FF2008B010BD0000F0B5C9B067
:103FFC0006460D46144600210522684600F0A6FA36
:10400C001822002102A8ADF8206000F09FFA0E4B98
:10401C0002930223059308AF0523002102A80497FD
:10402C00CDF818D0079300F009F900280ADB9DF8A9
:10403C00000028B99DF803302B709DF804302370D4
:10404C0049B0F0BDFF20FBE70800300070B5C8B0E8
:10405C0000268DF820008DF821108DF82220314695
:10406C00182202A88DF8076000F070FA0A4B029330
:10407C000DF107050323CDE9053508AC01233146C5
:10408C0002A80494079300F0D9F8B042ACBF9DF895
:10409C000700FF2048B070BD0800310070B5C8B0F3
:1040AC000026ADF820008DF822108DF823208DF815
:1040BC0024303146BDF83031ADF82530182202A835
:1040CC008DF8076000F042FA0B4A0F23CDE902236A
:1040DC000DF107050723CDE9053508AC0123314661
:1040EC0002A80494079300F0A9F8B042ACBF9DF865
:1040FC000700FF2048B070BD0800320030B589B011
:10410C00124C0094012241F60A030025ADF81E3032
:10411C000DF11E01032310462560FFF7E3FD42F667
:10412C002923ADF81E3001210A23CDE9033134F8DF
:10413C00020B059402230093CDE9015520230DF1C8
:10414C001E02FFF71FFE09B030BD00BF3800002073
:10415C0042F62923984207B50BD10B680648009309
:10416C000B79418800880022FFF768FE03B05DF8E8
:10417C0004FB9720FAE700BF380000207FB50F4DF5
:10418C000F4B4A680F4EE8610C4628461A6000F047
:10419C00D3F80D48246800F00FFB304640F8044B70
:1041AC0000F00AFB012333732B6823B1074A0294F6
:1041BC0000926846984704B070BD00BF6C050020A3
:1041CC00680500203C000020600500201143000819
:1041DC001FB5174C201D00F0F2FAB0B9237BA3B128
:1041EC0001A9201D00F018FB124BDA690123BAB1AA
:1041FC0001998DF80830039102A890479DF808307A
:10420C0023737BB1019800F07DFC0B4800F0D7FACA
:10421C0020B9237B13B10848FDF774F904B010BD25
:10422C002373EFE70199201D00F0D3FAEDE700BFEF
:10423C003C0000206C050020400000202DE9F743D5
:10424C002C4E336804460BB10020984763882288B3
:10425C002948DFF8AC900068C3F3090343EA8223D2
:10426C00D4E902120C3020F8033C00F8012CD2B235
:10427C001FFA83F800F010FE204B00211B69084642
:10428C00984748F2E800FDF744F90027484600F04B
:10429C0096FA48B1002FF4D033680BB1012098473F
:1042AC00002003B0BDE8F08301A9484600F0B4FA41
:1042BC00019D6B7A0F2B0BD1B5F80D30434502BF26
:1042CC002369EA7A1A702B7B002BDFD00127DDE7FC
:1042DC00AB8943450CD1AA7A63692069033AD2B2FF
:1042EC009A42A8BF1A46626105F10E0100F0D4FD96
:1042FC00EB7AE9E7680500203C0000206C05002003
:10430C006005002008B5437A0E3B012B014606D808
:10431C00074800F06AFA0020FDF7F8F808BD0548D8
:10432C0000F063FABDE808400248FDF7EBB800BFA7
:10433C006005002040000020024B0360024B03612B
:10434C00704700BF99490008E149000810B5427850
:10435C00FF2A86B0034640D1B0F8032040F6014155
:10436C008A4226D040F613418A4236D11C4AB0F814
:10437C000710D288013291422FD1847A5A7AB0F840
:10438C0005000A33012CCDE900230CD100231A4679
:10439C00FFF786FD002302A88DF80830FDF7F0F832
:1043AC00204606B010BD80230122FFF779FD0124C1
:1043BC00F6E70B4AB0F807105288023291420CD142
:1043CC00447B14F0010401D00123E4E7022302A88A
:1043DC008DF80830FDF7D4F8E9E70024E0E700BFDA
:1043EC004A0000202DE9F04129482A4C88B000F001
:1043FC0061FA012241F60D03ADF81E3000940DF167
:10440C001E0108231046FFF76DFC42F63723ADF86A
:10441C001E302346012633F8020B059300250A278C
:10442C00102300930DF11E023146CDE90376CDE940
:10443C0001550723FFF7A6FC42F63823ADF81E30D2
:10444C0023464FF0020833F8040B0195CDE90453D1
:10445C000DF11E0233463146CDE90257CDF80080EE
:10446C00FFF790FC34F8060B019542F63923ADF8B2
:10447C001E3008230093CDE90454CDE9028733465E
:10448C000DF11E023146FFF77DFC08B0BDE8F0814E
:10449C00594300084A0000201FB542F637239842C2
:1044AC000DD042F6382398424AD126480091818893
:1044BC00012300220088FFF7C1FC04B010BD4A7A2A
:1044CC000B8808788DF80900D40745BF1B0A8DF8B6
:1044DC000A300223032310078DF808200FD503F1AF
:1044EC0010046C44488804F8080C0DF1100C5C1C8A
:1044FC005CFA84F4000A023304F8080CDBB2D2062E
:10450C0006D50A7A03EB42020C1DD2B2934205D1B6
:10451C0002AA0C48009241880022CBE703F110005C
:10452C00684434F8021B00F8081C0DF1100C581CE0
:10453C005CFA80F0090A023300F8081CDBB2E5E7EC
:10454C000020BAE74A00002000F0A6BC00F0B2BC84
:10455C000346054A0548C179994202D0904201D1DF
:10456C00002070470838F6E70070FF1FF873FF1F34
:10457C001FB500F10C026B462E214FF6664000F081
:10458C00D5F89DF80E0005B05DF804FB1FB500F1E1
:10459C000C026B460F214FF6684000F0C7F89DF8EF
:1045AC000E0005B05DF804FB1FB502466B461021EA
:1045BC004FF6754000F0BAF89DF80E0005B05DF8A6
:1045CC0004FB00001C4B1D49DB6B9B009BB203F1F1
:1045DC00005370B503F540331A6816685369946933
:1045EC0015698E421DBF26461C462B46D1681ABF44
:1045FC0051689568D66946721A0E02701A0C427090
:10460C001A0A8270C3F3031203F00F030371230E13
:10461C004371230C8371230AC3710B0E83720B0C31
:10462C00C3722B0E4373090A2B0CC27004720173F4
:10463C008373C573002070BD00400058B95646A95D
:10464C0008B50146034800F0D0F8BDE80840014821
:10465C00FBF7A6BF78000020034B01201872034B18
:10466C001B6803B118477047780000208C050020A8
:10467C007FB50F4D0F4B4A68E8610C4628461A600F
:10468C0000F090F826680C4C2046E66000F094F898
:10469C00FFF7E2FF012323742B6833B1074A019221
:1046AC00074A0396029201A8984704B070BD00BF58
:1046BC00900500208C05002078000020A5470008FC
:1046CC004D4600081FB5174C204600F078F8B0B9DD
:1046DC00237CA3B101A9204600F09EF8124BDA69A5
:1046EC000123BAB101998DF80830039102A89047C3
:1046FC009DF8083023747BB1019800F003FA094847
:10470C0000F05DF820B9237C13B10648FBF748FF95
:10471C0004B010BD2374EFE70199204600F059F85E
:10472C00EDE700BF78000020900500202DE9F34153
:10473C001D46164B1B680C46074611461BB1002044
:10474C00019298470199124EF06822464FF00008EA
:10475C00A0F80970C4720C3086F8088000F09CFB3D
:10476C000C4B41461B694046984748F2E800FBF762
:10477C001EFFF1688A7805F10800033200F08CFB0B
:10478C0002B0BDE8F041FFF767BF00BF8C05002009
:10479C00780000209005002008B50020FBF704FFEE
:1047AC0008BD0000024B0360024B0361704700BF61
:1047BC00354A0008714A0008006040607047EFF30A
:1047CC00108372B60268821A5042504183F31088EB
:1047DC007047EFF3108372B602680A60486001609C
:1047EC000A68516083F310887047EFF3108372B638
:1047FC00086042684A6041604A68116083F310881F
:10480C007047EFF3108272B6436801681960016853
:10481C004B6082F31088704710B5EFF3108472B6BA
:10482C0003680B600068FFF7ECFF84F3108810BD81
:10483C0070477047704770477047704770477047B4
:10484C0070477047704770477047704770477047A4
:10485C0008B5FFF7EDFFFFF7ECFFFFF7EBFFFFF7F6
:10486C004DFCFFF7E8FFFFF7E7FFFFF7BBFDFFF796
:10487C00E4FFFFF7E3FFFFF7E2FFFFF7E1FFFFF7CE
:10488C00E0FFFFF7DFFFFFF7DEFFFFF7DDFFFFF7CE
:10489C00DDFFFFF7DAFFFFF7DAFF08BD08B5044BC1
:1048AC0000221A7783F82020FFF7D2FF08BD00BF43
:1048BC0054000020034A137F42F82300013313777E
:1048CC00704700BF5400002070B54378FF2B04469E
:1048DC0004D02046BDE87040FCF78CBDB0F8033026
:1048EC0003F47F43B3F5406FF3D1084E0025327FBC
:1048FC00EBB29A42EDD956F8233020469847013551
:10490C000028F4D0023818BF012070BD54000020DC
:10491C0037B5094C094D0848FFF751FF08B103B0F2
:10492C0030BD01A92046FFF777FF2B690199186963
:10493C00FFF75BFFEFE700BFB80500200000032086
:10494C00FCF766BE0F4B104A03F120011360516057
:10495C0003F13001916003F14001116203F1480150
:10496C00516203F15001D16003F15801116103F15F
:10497C007401516103F1780184339161D361FCF7C7
:10498C006FBE00BF340103200000032038B50C4D6E
:10499C0004462846FFF710FF0A4BA2685B681A60B2
:1049AC00E268DA60084AC3E90125FCF779FE074B97
:1049BC0022681A60064B62681A60002038BD00BF7E
:1049CC00C401032000000320580A0320B405002072
:1049DC00B005002008B5054B5A685B6812680121C8
:1049EC001172FCF765FE002008BD00BF000003201B
:1049FC0037B5084C084D0748FFF7E1FE08B103B086
:104A0C0030BD204601A9FFF707FF2B680198984796
:104A1C00F1E700BFC4010320B4050020014B1B6863
:104A2C00184700BFB005002038B50A4D044628468B
:104A3C00FFF7C2FE084BA268DB68C3E90025FCF750
:104A4C003FFE064B22681A60054B62681A60002014
:104A5C0038BD00BFCC01032000000320C00500209E
:104A6C00C405002008B5054BDA68DB681268102114
:104A7C001172FCF72DFE002008BD00BF00000320C2
:104A8C00034BDA68DA68034B10681B68184700BFE1
:104A9C0000000320C005002037B5084C084D07481E
:104AAC00FFF78DFE08B103B030BD204601A9FFF71A
:104ABC00B3FE2B6801989847F1E700BFCC010320A7
:104ACC00C405002038B50C4D04462846FFF774FE8B
:104ADC000A48FFF771FE0A4BA2681B699A60E268EC
:104AEC00C3E9032522681A6062685A6022695A6118
:104AFC0062699A6138BD00BFD4010320B80500205B
:104B0C000000032008B501460348FFF76EFEBDE820
:104B1C0008400248FCF71ABEB80500201D490008E1
:104B2C0010B5054C2046FFF747FE044B5B691C6033
:104B3C00BDE81040FCF720BEDC0103200000032080
:104B4C007047000013B5074C0648FFF738FE08B154
:104B5C0002B010BD204601A9FFF75EFE0198FFF7D9
:104B6C00EFFFF1E7DC010320024A00231360024A45
:104B7C0013607047CC050020C805002010B5EFF37A
:104B8C00108472B641B1012903D1064A1368184347
:104B9C00106084F3108810BD024A136823EA0000E9
:104BAC00F6E700BFC805002038B5EFF3108572B6E4
:104BBC000A4B0B4C1B6833B12368984763689847C2
:104BCC0085F3108838BD074B1B681BB1A368984749
:104BDC00E368F4E7236998476369F0E7CC050020A4
:104BEC009C500008C805002010B5EFF3108472B675
:104BFC00064A136803431360054A52F831301843D0
:104C0C0042F8310084F3108810BD00BF6C06002000
:104C1C005C060020EFF3108172B6044A136823EA95
:104C2C000000106081F31088704700BF3400002032
:104C3C00EFF3108172B6034A13681843106081F3C6
:104C4C001088704734000020EFF3108172B6034ACD
:104C5C0013681843106081F310887047D405002046
:104C6C0070477047030C1B04C3B90004102310F0E9
:104C7C007F4F02BF08330002DBB210F0704F08BF49
:104C8C000001074A4FEA107008BF0433105C08BFDC
:104C9C00DBB2C3F11F03181AC0B270470023E6E75A
:104CAC00705100082DE9F84F404D414ED5F8008069
:104CBC00DFF80CB1DFF80CA1DFF80C91D6F800E0AE
:104CCC003C4FDBF800103C4C08EA00002860DAF896
:104CDC000000D9F800302A6802EA000C1CEA0E0F1A
:104CEC0044D00B4042D121680A40024201D1A36852
:104CFC00012354F83320D90004EBC3030CEA02025D
:104D0C005868104208BF4FF0FF30214408BF58606C
:104D1C0048681040FFF7A6FF4B683860012202FA82
:104D2C0000F023EA00004860EFF3108172B63B6894
:104D3C0002FA03F3326822EA03023260A26822EA22
:104D4C000302A260226822EA0303236081F3108825
:104D5C001A4A3B6852F823309847D6F800E0DBF843
:104D6C000010DAF80000D9F80030B4E74FF0FF3348
:104D7C003B60FFF775FFEFF3108472B63368DBF816
:104D8C000020DAF800100B4029680B4205D1D9F845
:104D9C000030134201D1FBF7FDFB84F31088FFF7C1
:104DAC0060FFC5F80080BDE8F88F00BF3000002020
:104DBC006C060020D00500205C060020DC050020DD
:104DCC00D405002034000020D80500202DE9F04740
:104DDC00DFF85890134ED9F80080134FD6F800A086
:104DEC003060B8F1FF3F18BF0125044614BF05FA27
:104DFC0008F500253B6823420ED0C9F80080EFF37C
:104E0C00108372B6386820EA0400386083F3108887
:104E1C00C6F800A0BDE8F08721462846FBF7BCFB8E
:104E2C00E8E700BFD8050020D4050020D0050020FD
:104E3C0010B51146EFF3108472B6FFF713FF034B56
:104E4C0043F8201084F3108810BD00BFDC0500204F
:104E5C0070B50D4D0D4C641BA4100026A64209D153
:104E6C000B4D0C4C00F02EF8641BA4100026A6422F
:104E7C0005D170BD55F8043B98470136EEE755F85F
:104E8C00043B98470136F2E7805100088051000836
:104E9C0080510008845100080A44914200F1FF330C
:104EAC0000D1704710B511F8014B03F8014F914236
:104EBC00F9D110BD02440346934200D1704703F868
:104ECC00011BF9E7F8B500BFF8BC08BC9E4670475B
:0C4EDC00F8B500BFF8BC08BC9E4670474B
:104EE800000000000000000000000000604F000803
:104EF800F4010320E401032026040400000000005C
:104F08000000000000000000000000000000004455
:104F18000008004005020112279C00F4010000FF70
:104F2800FFFFFF480101000020D8060003720600B9
:104F38000000000C00000000120000002400000027
:104F480036000000400000000000000001000000E2
:104F580002000000030000000000004801000000FB
:104F680000000048010000000000004801000000A7
:104F78000000004801000000000000480100000097
:104F88000000004801000000000000480100000087
:104F98000000004801000000000000480100000077
:104FA8000000004801000000000000480100000067
:104FB8000000004801000000000000480100000057
:104FC8000000004801000000000000480100000047
:104FD8000000004801000000000000480100000037
:104FE8000000004801000000000000480100000027
:104FF8000000004801000000000000480100000017
:105008000000004801000000000000480100000006
:1050180000000048010000000000004801000000F6
:1050280000000048010000000000004801000000E6
:1050380000000048010000000000004801000000D6
:1050480000000048010000000000004801000000C6
:1050580000000048010000000000004801000000B6
:1050680000000048010000000000004801000000A6
:105078000000004801000000000000480100000096
:105088000000004801000000535731005357320018
:1050980053573300290E0008B10E00087D0F000891
:1050A800450E0008490F0008410E000848525354A5
:1050B8004D00FEDCBA0987654321FEDCBA09876525
:1050C8004321123456789ABCDEF0123456789ABCD2
:1050D800DEF009485253544D6C7AD8AC57720A0620
:1050E800070010000100020001000000030000009A
:1050F800050000000100000001000000060000009B
:105108000A00000020000000020000000400000067
:1051180008000000100000004000000080000000AF
:105128000001000000020000A0860100400D0300FD
:10513800801A060000350C0040420F0080841E00D3
:1051480000093D0000127A000024F40000366E01C8
:105158000048E801006CDC020000000000000000CC
:105168000000000000000000040302020101010128
:0851780000000000000000002F
:0451800061010008C1
:045184003D010008E1
:105188000DFF01000000000000000000000000000A
:1051980000080048000C0048000C004800093D00C9
:1051A8000100000010000000FFFFFFFFFFFFFFFFEE
:1051B80000000000000000000000000000000000E7
:1051C80000000000000000000000000000000000D7
:1051D80000000000000000000000000000000000C7
:0D51E80000000000000000000000000000BA
:1051F50000000000000000000000000000000000AA
:0152050000A8
:04000005080017F5E3
:00000001FF
