:020000040800F2
:1000000000000320692F000859200008672000081D
:100010006D2000087320000879200008000000000F
:100020000000000000000000000000007F20000829
:100030008D200008000000009B200008A920000877
:10004000BD2F0008BD2F0008BD2F0008B5200008F7
:10005000BD2F0008BD2F00084321000851210008D2
:10006000BD2F0008BD2F000835210008BD2F000856
:10007000BD2F0008BD2F0008C1200008BD2F0008BB
:10008000BD2F0008BD2F0008BD2F0008BD2F0008A0
:10009000BD2F0008BD2F0008BD2F0008BD2F000890
:1000A000BD2F0008BD2F0008BD2F0008BD2F000880
:1000B000BD2F0008BD2F0008BD2F0008BD2F000870
:1000C000BD2F0008BD2F0008BD2F0008BD2F000860
:1000D000D5200008E9200008BD2F0008BD2F00082A
:1000E000BD2F0008BD2F0008BD2F0008BD2F000840
:1000F000FD2000080921000815210008BD2F000877
:10010000BD2F0008BD2F0008BD2F0008BD2F00081F
:10011000BD2F0008BD2F0008BD2F0008BD2F00080F
:10012000BD2F0008BD2F000821210008BD2F0008A9
:0C013000BD2F0008BD2F0008BD2F0008E7
:10013C0010B5054C237833B9044B13B10448AFF315
:10014C0000800123237010BD9000002000000000EF
:10015C0038A3000808B5034B1BB103490348AFF3A0
:10016C00008008BD000000009400002038A30008A7
:10017C0010F8012B11F8013B012A28BF9A42F7D045
:10018C00D01A7047034613F8012B002AFBD1181A1A
:10019C000138704780B485B000AF78604FF0B04341
:1001AC00DA6C4FF0B0417B681343CB644FF0B04333
:1001BC00DA6C7B681340FB60FB6800BF1437BD46EC
:1001CC005DF8047B704780B483B000AF78604FF06B
:1001DC00B043DA6C7B68DB434FF0B0411340CB6427
:1001EC0000BF0C37BD465DF8047B704780B485B00A
:1001FC0000AF78604FF0B043D3F84C214FF0B041D2
:10020C007B681343C1F84C314FF0B043D3F84C2109
:10021C007B681340FB60FB6800BF1437BD465DF87C
:10022C00047B704780B586B000AF3B1D00221A607E
:10023C005A609A60DA601A610023FB600323BB608A
:10024C004FF460437B600120FFF7A4FF3B1D194670
:10025C004FF0904003F0A8FB0120FFF7B4FF1823E8
:10026C007B600220FFF796FF3B1D1946094803F0FF
:10027C009BFB0220FFF7A7FF03F05CF803F060F88C
:10028C0003F064F800F024F800F0C6F800BF18374B
:10029C00BD4680BD00040048B0B588B000AF0B4B24
:1002AC003C1D1D460FCD0FC495E8070003C42280EA
:1002BC000234130C237009F0BDFC3B1D184608F0EA
:1002CC001AFF00BF2037BD46B0BD00BF50A30008C9
:1002DC0080B588B000AF3B1D00221A605A609A604E
:1002EC00DA601A610023BB8300237B8300233B83EA
:1002FC000023FB7738E0FB7F444ADB0013449B79F7
:10030C00002B2BD0FB7F414A52F83330404A9342AA
:10031C001BD03F4A934223D8B3F1904F03D03D4AB0
:10032C00934209D01CE0FB7F384ADB0013449A88C7
:10033C00BB8B1343BB8314E0FB7F344ADB001344B9
:10034C009A887B8B13437B830BE0FB7F2F4ADB006C
:10035C0013449A883B8B13433B8302E000BF00E0BD
:10036C0000BFFB7F0133FB77FB7F252BC3D9002319
:10037C00FB600123BB6003233B61BB8B002B14D0C0
:10038C00BB8B7B600120FFF705FF0120FFF72EFFE1
:10039C003B1D19464FF0904003F006FBBB8B00222F
:1003AC0019464FF0904003F06FFC7B8B002B12D062
:1003BC007B8B7B600220FFF7EDFE0220FFF716FF20
:1003CC003B1D1946134803F0EFFA7B8B00221946AC
:1003DC00104803F059FC3B8B002B13D03B8B7B60FC
:1003EC000420FFF7D7FE0420FFF700FF3B1D194642
:1003FC00074803F0D9FA3B8B00221946044803F056
:10040C0043FC00BF00BF2037BD4680BDECA30008F5
:10041C00000800480004004880B400AF00BFBD468F
:10042C005DF8047B7047000080B483B000AF786047
:10043C00074BD3F8803023F0070205497B68134340
:10044C00C1F8803000BF0C37BD465DF8047B7047A7
:10045C000004005880B483B000AF7860064BD3F82A
:10046C00902005497B681343C1F8903000BF0C37CE
:10047C00BD465DF8047B70470008005880B483B01B
:10048C0000AF78604FF0B0430A4AC3F89C204FF09D
:10049C00B043D3F89C3023F47C527B681B024FF0A2
:1004AC00B0411343C1F89C3000BF0C37BD465DF81A
:1004BC00047B7047FECAFECA80B483B000AF78607C
:1004CC004FF0B0439B6823F400424FF0B0417B687F
:1004DC0013438B6000BF0C37BD465DF8047B70473F
:1004EC0080B400AF044B1B68C3F30B031846BD4626
:1004FC005DF8047B704700BF002004E080B400AFBF
:10050C00044B1B681B0C9BB21846BD465DF8047B64
:10051C00704700BF002004E080B400AF054B1B699E
:10052C00044A23F00403136100BFBD465DF8047B4D
:10053C00704700BF00ED00E080B483B000AF78607E
:10054C007B68FF225A6200BF0C37BD465DF8047B06
:10055C00704780B483B000AF78607B68CA225A625F
:10056C007B6853225A6200BF0C37BD465DF8047B92
:10057C00704780B483B000AF786039607B689B684B
:10058C0023F007023B681A437B689A6000BF0C3764
:10059C00BD465DF8047B704780B500AF044B4FF44B
:1005AC0000421A6100F030F800F035F800BF80BD51
:1005BC000040005880B500AF00F041F800F05AF848
:1005CC000949002000F056FEFFF72CFE0121012006
:1005DC0009F0CEFB00F027F900F02CF900F0BAF985
:1005EC0000F056F800BF80BDA004002080B400AF1E
:1005FC0000BFBD465DF8047B704780B500AF50204E
:10060C00FFF728FF00BF80BD80B400AF00BFBD4620
:10061C005DF8047B704780B582B000AF002008F015
:10062C002BFD78607B68002B05D07B689B79184686
:10063C00FFF724FF00BF00BF0837BD4680BD80B563
:10064C0000AFFFF7D3FFFFF7D8FF00F003F800BFB0
:10065C0080BD000080B500AF0548FFF77AFF002190
:10066C000348FFF786FF0248FFF766FF00BF80BD17
:10067C000028004080B500AF4FF40040FFF71CFF8E
:10068C0009F064FB0420FFF7CFFE00BF80BD000023
:10069C0080B588B000AF09F017F9114A002140204D
:1006AC0009F0C8FC0F4B3B600F4B7B603B46194677
:1006BC000E4808F0FBFD0E4BBB600E4BFB600E4B67
:1006CC003B6140F23C537B6107F10803184609F08B
:1006DC003DFA09F0F3F800BF2037BD4680BD00BFDE
:1006EC00F1920008340703200907000821070008CD
:1006FC004C09032040080320F801032080B483B088
:10070C0000AF0346FB7100BF0C37BD465DF8047BA0
:10071C007047000080B588B000AF78607B685B687C
:10072C000B33FB61FB691B889BB2A3F51243072BB0
:10073C001FD801A252F823F06507000877070008BC
:10074C007F0700087F0700087F0700087F07000865
:10075C007F0700087F07000807F10C03184608F014
:10076C00F7FC786800F01BF804E0786800F006F8F5
:10077C0000E000BF00BF2037BD4680BD80B485B00F
:10078C0000AF78607B685B680B33FB60FB680233FF
:10079C00BB6000BF1437BD465DF8047B704780B565
:1007AC008AB000AF786007F1080300221A605A6023
:1007BC009A60DA6000237B6200233B627B685B6893
:1007CC000B33FB61FB690233BB61BB691B78002BEC
:1007DC001DD1FFF761FD0F233B727F23BB72FFF727
:1007EC008DFE78627B6A9BB2BB82FFF779FE386222
:1007FC003B6A9BB2FB8207F10803184608F092FC97
:10080C0001F0CCFC0021012009F0B2FA07E0BB6931
:10081C001B78012B03D17B6800221A7000BF00BF2C
:10082C002837BD4680BD80B400AF00BFBD465DF823
:10083C00047B704780B500AF0121002002F0D2FB91
:10084C000121012002F0CEFB0121022002F0CAFBA3
:10085C0000BF80BD80B584B000AF786002F026FD8B
:10086C00B8607B68FB60FB68B3F1FF3F0AD002F015
:10087C0035FD03461A46FB681344FB6002E0FFF7A4
:10088C004BFE30BF02F012FD0246BB68D31AFA6869
:10089C009A42F4D800BF00BF1037BD4680BD80B56A
:1008AC0000AF4FF0FF3009F0C9FA00BF80BD80B532
:1008BC0000AF09F08DFA00BF80BD80B582B000AFEB
:1008CC00786039604FF0FF3009F0B8FA00BF083794
:1008DC00BD4680BD80B582B000AF7860002140205D
:1008EC0009F0CAFB00BF0837BD4680BD80B582B099
:1008FC0000AF7860022009F02BFC00BF0837BD4622
:10090C0080BD80B582B000AF7860022009F040FC59
:10091C0000BF0837BD4680BD80B582B000AF03462E
:10092C00FB80FB88102B06D0102B0DDC012B05D087
:10093C00022B06D008E001F05FFD06E001F06AFD35
:10094C0003E001F079FD00E000BF00BF0837BD46B1
:10095C0080BD000080B500AF034B0122034900208D
:10096C0000F0F4FE00BF80BD7D090008B40000203B
:10097C0080B500AF134B1B88FF2B1AD8124B1B787A
:10098C000D2B0BD100F026F80E4B00221A804FF4E1
:10099C00807200210D4809F0C1FC0AE0094B1B884C
:1009AC005A1C91B2074A11801A46074B1978074B0B
:1009BC009954074B01220449002000F0C7FE00BFE8
:1009CC0080BD00BFBC010020B4000020BC00002092
:1009DC007D09000880B500AF15491648FFF7C8FB24
:1009EC000346002B06D1144B144A1A60124802F02D
:1009FC00B9FF1BE012490F48FFF7BAFB0346002B67
:100A0C0007D10D4B4FF0B0521A600B4802F0AAFF01
:100A1C000CE00C490748FFF7ABFB0346002B05D154
:100A2C00054B094A1A60044802F09CFF00BF80BDC8
:100A3C006CA30008BC000020AC00002004000016D1
:100A4C0070A3000874A300080100001680B483B0E2
:100A5C0000AF7860064BD3F8802005497B681343C0
:100A6C00C1F8803000BF0C37BD465DF8047B704781
:100A7C000008005880B483B000AF7860054B1A684A
:100A8C0004497B6813430B6000BF0C37BD465DF80F
:100A9C00047B70470008005880B483B000AF0D4B46
:100AAC009B6A9BB27B600B4B9B6A9BB23B6005E0E5
:100ABC003B687B60074B9B6A9BB23B607A683B68E8
:100ACC009A42F5D13B6818460C37BD465DF8047B5D
:100ADC00704700BF0028004080B485B000AF0346CB
:100AEC000A46FB711346BB71BA791D4913465B006C
:100AFC001344DB000B4415331B78FB73FB7B062B79
:100B0C0009D0FA7B164913465B001344DB000B44F7
:100B1C001433FA791A70FA79114913465B001344AD
:100B2C00DB000B441533FA7B1A70FA790C49134627
:100B3C005B001344DB000B441433BA791A70BA7996
:100B4C00074913465B001344DB000B441533FA7959
:100B5C001A7000BF1437BD465DF8047B704700BFA8
:100B6C00C001002080B485B000AF03460A46FB717B
:100B7C001346BB71294B1B78DBB2BA799A4232D03F
:100B8C00BA79274913465B001344DB000B4414333A
:100B9C001B78FB73FA7B224913465B001344DB0082
:100BAC000B441533FA791A70FA791D4913465B0018
:100BBC001344DB000B441533BA791A70FA791849CF
:100BCC0013465B001344DB000B441433FA7B1A709E
:100BDC00BA79134913465B001344DB000B441433FE
:100BEC00FA791A7014E0FA790D4913465B00134434
:100BFC00DB000B441533BA791A70BA7908491346DD
:100C0C005B001344DB000B441433FA791A7000BFF9
:100C1C001437BD465DF8047B704700BF50020020BE
:100C2C00C001002080B584B000AF0346FB714E4B71
:100C3C001B78DBB2062B18D14B4B1B78DAB24B4B23
:100C4C001A70494AFB791370FA79494913465B00CB
:100C5C001344DB000B44153306221A70454B4FF03E
:100C6C00FF321A600023FB8178E000F009F903469B
:100C7C00FB81FA793E4913465B001344DB000B44BD
:100C8C0008331968FB89FA791944394813465B0013
:100C9C001344DB00034408331960FA7934491346D2
:100CAC005B001344DB000B4408331B68BB602E4B0A
:100CBC001B78DBB219462E4A0B465B000B44DB005B
:100CCC00134408331B68BA689A4237D3264B1B78F7
:100CDC007B737A7B264913465B001344DB000B4481
:100CEC0015331B783B7313E07A7B214913465B0069
:100CFC001344DB000B4415331B787B737A7B1C4944
:100D0C0013465B001344DB000B4415331B783B7319
:100D1C003B7B062B0BD03A7B154913465B001344E7
:100D2C00DB000B4408331B68BA689A42DCD27A7B2E
:100D3C00FB7911461846FFF7CFFE0FE00A4B1B78E4
:100D4C00DAB2FB7911461846FFF70CFF064B1B78FD
:100D5C00DAB2064B1A70044AFB791370FB891846F9
:100D6C001037BD4680BD00BF50020020510200204C
:100D7C00C00100205402002080B485B000AF0346AF
:100D8C000A46FB711346BB71394B1B78DBB2FA79FF
:100D9C009A4211D1364B1B78DAB2364B1A70FA796B
:100DAC00354913465B001344DB000B4415331B78A9
:100DBC00DAB22F4B1A703EE0FA792F4913465B00DA
:100DCC001344DB000B4414331B78FB73FA792A4968
:100DDC0013465B001344DB000B4415331B78BB73C9
:100DEC00F979FA7B24480B465B000B44DB00034487
:100DFC0015331B78D8B2204913465B001344DB0033
:100E0C000B44153302461A70BB7B062B13D0F979B1
:100E1C00BA7B19480B465B000B44DB0003441433CC
:100E2C001B78D8B2144913465B001344DB000B4407
:100E3C00143302461A70FA790F4913465B001344B7
:100E4C00DB000B440C3301221A70094B1B78DBB20C
:100E5C00062B07D1BB79002B04D1084B4FF0FF3286
:100E6C001A6000BF00BF1437BD465DF8047B7047A5
:100E7C005002002051020020C0010020540200202A
:100E8C0080B582B000AF1A4B1B68B3F1FF3F26D080
:100E9C00FFF702FE7860164B1B687A689A4205D8F9
:100EAC00134B1A687B68D31A7B600AE0114B1B88C2
:100EBC001A467B68D31A3B600D4B1B683A68134487
:100ECC007B600D4B1B781A467B6802FB03F37B603F
:100EDC000A4B1B781A467B68D3407B6001E00023E9
:100EEC007B607B689BB218460837BD4680BD00BF4F
:100EFC00540200205C0200205A02002059020020FB
:100F0C0080B582B000AF0346FB80FB88002B08D174
:100F1C00FFF7C2FD0346214A1360032002F099FB40
:100F2C0039E0FB88012B03D81D4B1B78012B02D019
:100F3C00FB88013BFB8000BF1A4B1B68DB6803F08E
:100F4C000403002BF8D0174B1B68DB68DAB2154B87
:100F5C001B6862F49062DA60134B4FF40022DA6083
:100F6C00032002F084FB114B5B691B0C1B04FA88F9
:100F7C000E4913434B61FFF78FFD0346074A13607D
:100F8C00084B1B689A68074B1B6842F480629A6096
:100F9C00AFF3008000BF0837BD4680BD540200206F
:100FAC0059020020A004002000080058002800402E
:100FBC0080B584B000AF454B9B6803F48063B3F5F8
:100FCC00806F07D100BF424B1B68DB6803F0040342
:100FDC00002BF8D13E4B1B689A683D4B1B6822F4E2
:100FEC0080629A603B4B1B78FB73FA7B3A49134641
:100FFC005B001344DB000B4408331B68BB60FFF73A
:10100C003FFF0346FB80FB88BA689A4205D2002357
:10101C00BB81324B01221A704DE0FB88304A12889A
:10102C0092B213441A46BB68934206D92C4B1B88C8
:10103C00BB812A4B00221A703DE0BB689AB2FB8838
:10104C00D31ABB81254B01221A7034E0FA7B22495A
:10105C0013465B001344DB000B4408331A68FB880F
:10106C009A420AD2FA7B1C4913465B001344DB00FC
:10107C000B44083300221A6013E0FA7B164913461E
:10108C005B001344DB000B4408331968FB88FA7BC4
:10109C00C91A114813465B001344DB0003440833A0
:1010AC001960FA7B0C4913465B001344DB000B44BC
:1010BC0015331B78FB73FB7B062BC7D1BB891846FA
:1010CC00FFF71EFF00BF1037BD4680BD0028004053
:1010DC00A004002050020020C00100205802002073
:1010EC005E02002080B58AB000AFEFF310837B6105
:1010FC007B697B6272B600BF594B1B68CA225A626D
:10110C00574B1B6853225A62554B1B689A68544BB9
:10111C001B6822F480629A60524B1B7887F823304C
:10112C0097F82320504913465B001344DB000B4413
:10113C000C331B78DBB2022B6ED197F823204A4973
:10114C0013465B001344DB000B441B68FB6197F8F0
:10115C002320454913465B001344DB000B4410333A
:10116C001B68BB61414B1B78DBB2002B4CD097F852
:10117C0023203D4913465B001344DB000B440D3325
:10118C001B78DBB2012B24D197F8233001211846B0
:10119C00FFF7F2FD7B6A3B613B6983F3108800BF6C
:1011AC0097F82320304913465B001344DB000B44B3
:1011BC0004331A6897F823301146184600F032FAB7
:1011CC00274B1B68CA225A62254B1B6853225A6252
:1011DC0012E07B6AFB60FB6883F3108800BF97F812
:1011EC002330184600F09AF91D4B1B68CA225A622C
:1011FC001B4B1B6853225A6297F82330FA69194625
:10120C00B86900F095FA22E0FFF7D2FE7B6ABB606A
:10121C00BB6883F310881AE000BF114B1B68DB68B6
:10122C0003F00403002BF8D00D4B1B68DB68DAB21B
:10123C000B4B1B6862F49062DA600D4B4FF400228A
:10124C00DA607B6A7B607B6883F3108800BF044B99
:10125C001B68FF225A6200BF2837BD4680BD00BF05
:10126C00A004002050020020C001002058020020E1
:10127C000008005880B588B000AF03463960FB7198
:10128C005E4B1B68CA225A625C4B1B6853225A6223
:10129C005B4B9B685A4A43F020039360584B9B6806
:1012AC00DBB203F00703DBB2C3F10403DAB2554B34
:1012BC001A70534B1B6903F4FE034FF4FE023A61A0
:1012CC003A6992FAA2F2FA60FA687A617A69002AAB
:1012DC0001D1202203E07A69B2FA82F2D2B2D34071
:1012EC00DBB20133DAB2484B1A70454B1B699BB227
:1012FC00C3F30E039BB201339AB2444B1A80434B97
:10130C001B88013B404A127802FB03F3A3F5A07340
:10131C003C4A1278D340BB61BB694FF6FE729342D4
:10132C0004D93B4B4FF6FF721A8003E0BB699AB2AB
:10133C00374B1A804FF40020FFF79CFB4FF4002032
:10134C00FFF784FBFB79002B3DD1324B01221A7045
:10135C00314B4FF0FF321A600023FB770CE0FA7F21
:10136C002E4913465B001344DB000B440C33002264
:10137C001A70FB7F0133FB77FB7F052BEFD9284BD2
:10138C0006221A701D4B1B689A681C4B1B6822F4B2
:10139C0080629A60194B1B68DB68DAB2174B1B68CA
:1013AC0062F49062DA601F4B4FF40022DA60032083
:1013BC0002F05DF9114B1B689A68104B1B6842F4E4
:1013CC0080429A6009E00D4B1B68DB6803F4806374
:1013DC00002B02D0032002F03CF9084B1B68FF22C3
:1013EC005A6200220321032002F0F1F8032002F0DC
:1013FC0008F900BF2037BD4680BD00BFA004002007
:10140C0000280040590200205A0200205C020020F3
:10141C005E0200205802002054020020C00100206F
:10142C00500200200008005880B48BB000AFF86068
:10143C00B9603B601346FB71002387F82630EFF34D
:10144C001083FB61FB693B6272B600BF04E097F846
:10145C002630013387F8263097F82630052B0CD828
:10146C0097F826202C4913465B001344DB000B44F1
:10147C000C331B78DBB2002BE9D197F82630062B06
:10148C0038D097F82620244913465B001344DB0020
:10149C000B440C3301221A703B6ABB61BB6983F3AA
:1014AC00108800BF97F826201B4913465B00134495
:1014BC00DB000B441033FA681A6097F826201649A3
:1014CC0013465B001344DB000B440D33FA791A709E
:1014DC0097F82620104913465B001344DB000B449D
:1014EC003A681A60BB6897F826201A70002387F8B0
:1014FC00273008E03B6A7B617B6983F3108800BF6F
:10150C00012387F8273097F8273018462C37BD462B
:10151C005DF8047B704700BFC001002080B586B029
:10152C0000AF0346FB71EFF31083FB60FB687B613C
:10153C0072B600BF032002F072F8344B1B68CA224B
:10154C005A62324B1B6853225A62FA79304913465D
:10155C005B001344DB000B440C331B78DBB2022B17
:10156C0042D1FB7900211846FFF706FC294B1B786A
:10157C00FB74FB7C062B2FD1274B9B6803F48063F9
:10158C00B3F5806F07D100BF204B1B68DB6803F0FD
:10159C000403002BF8D11D4B1B689A681B4B1B686E
:1015AC0022F480629A6000BF184B1B68DB6803F062
:1015BC000403002BF8D0154B1B68DB68DAB2134B15
:1015CC001B6862F49062DA60144B4FF40022DA600C
:1015DC00032002F04CF807E0114B1B78DBB2FA7CCD
:1015EC009A4201D0FFF7E4FC084B1B68FF225A62B9
:1015FC00032002F006F87B69BB60BB6883F310889C
:10160C0000BF00BF1837BD4680BD00BFA00400203E
:10161C00C0010020500200200028004000080058A3
:10162C005102002080B586B000AF03463960FB71D3
:10163C00FA793B4913465B001344DB000B440C3333
:10164C001B78DBB2022B03D1FB791846FFF766FF40
:10165C00EFF31083FB60FB687B6172B600BF032065
:10166C0001F0DDFF2F4B1B68CA225A622D4B1B6801
:10167C0053225A62FA792A4913465B001344DB0061
:10168C000B440C3302221A70FA79254913465B007D
:10169C001344DB000B4408333A681A60FA7920498A
:1016AC0013465B001344DB000B4404333A681A60A6
:1016BC00FB791846FFF7B6FA03467B821A4B1B7868
:1016CC007B741A4B1B78DBB27A7C9A4202D0FFF700
:1016DC006FFC13E0FA79124913465B001344DB00EC
:1016EC000B44083319687B8AFA79C91A0C481346DB
:1016FC005B001344DB00034408331960094B1B687F
:10170C00FF225A62032001F07CFF7B69BB60BB683F
:10171C0083F3108800BF00BF1837BD4680BD00BFE3
:10172C00C0010020A0040020500200205102002023
:10173C0080B584B000AFF8600B467A60FB727B68B2
:10174C00984700BF1037BD4680BD000080B584B0FF
:10175C0000AFB9607B600346FB731346BB81FB7B18
:10176C00002B0CD1084A7B681360084B084A1A609E
:10177C00BB891A46B968054804F0DAFA00E000BFE4
:10178C0000BF1037BD4680BD60020020380300202A
:10179C000038014080B582B000AF78607B681B6870
:1017AC001A46094B9A4207D1084B1B68002B05D0EF
:1017BC00064B1B68984701E000BF00E000BF00BF6C
:1017CC000837BD4680BD00BF0038014060020020D4
:1017DC0080B582B000AF78607B681B681A46094BF5
:1017EC009A4207D1084B1B68002B05D0064B1B688F
:1017FC00984701E000BF00E000BF00BF0837BD46BE
:10180C0080BD00BF003801406402002080B483B06A
:10181C0000AF78604FF0B043D3F8903023F018024B
:10182C004FF0B0417B681343C1F8903000BF0C37C8
:10183C00BD465DF8047B704780B485B000AF78601E
:10184C004FF0B0439A6C4FF0B0417B6813438B64FC
:10185C004FF0B0439A6C7B681340FB60FB6800BF91
:10186C001437BD465DF8047B704780B485B000AF7B
:10187C0078604FF0B043DA6C4FF0B0417B681343A3
:10188C00CB644FF0B043DA6C7B681340FB60FB68B1
:10189C0000BF1437BD465DF8047B704780B500AFC0
:1018AC0001F096FCFEF778FE00F014F800F070F8EA
:1018BC0000F08EF800F00FF900F0F0F800F0BAF834
:1018CC0000F0A2F800F098F8FEF774FEFEF7E7FFC0
:1018DC00FCE7000080B59AB000AF07F12003482266
:1018EC000021184608F01AFD3B1D00221A605A60B0
:1018FC009A60DA601A615A619A6102F09FFA0020CC
:10190C00FFF784FF214B1B6823F4C0631F4A43F489
:10191C00007313601D4B1B6803F4C0633B603B6892
:10192C0047233B624FF480337B620123BB624FF44D
:10193C008073FB620123BB6440233B630023FB6485
:10194C0007F12003184602F0F5FD0346002B01D0E9
:10195C0000F0CEF86F237B600223BB600023FB609A
:10196C0000233B6100237B610023BB610023FB61EF
:10197C003B1D0121184603F051F90346002B01D001
:10198C0000F0B6F800BF6837BD4680BD00040058B3
:10199C0080B594B000AF3B4650220021184608F0A9
:1019AC00BDFC4FF440533B604FF480437B640223F7
:1019BC00BB641023FB643B46184603F040FD034612
:1019CC00002B01D000F094F800BF5037BD4680BD0D
:1019DC0080B500AF064B074A1A60054802F0A8F91B
:1019EC000346002B01D000F083F800BF80BD00BF80
:1019FC0068020020000C005880B400AF00BFBD4648
:101A0C005DF8047B7047000080B500AF074B084AB7
:101A1C001A60064B00225A60044803F097FF0346F5
:101A2C00002B01D000F064F800BF80BD8C040020B6
:101A3C000010005880B500AF164B174A1A60154BB2
:101A4C0000225A60134B0F229A60124B47F6FF721A
:101A5C00DA60104B00221A610E4B00229A610D4B7A
:101A6C000022DA610B4B00225A610A4803F0A4FFF2
:101A7C000346002B01D000F03BF800220021054862
:101A8C0004F09AF80346002B01D000F031F800BFA7
:101A9C0080BD00BFA00400200028004080B500AF2E
:101AAC000420FFF7C9FE0120FFF7C6FE0220FFF756
:101ABC00C3FE00220F210E2001F089FD0E2001F043
:101ACC00A0FD00220F213A2001F081FD3A2001F007
:101ADC0098FD00BF80BD80B500AF0420FFF7C5FEA8
:101AEC000120FFF7C2FE0220FFF7BFFE00BF80BD42
:101AFC0080B400AF00BFBD465DF8047B70470000AA
:101B0C0080B483B000AF7860064B1B6823F00702EB
:101B1C0004497B6813430B6000BF0C37BD465DF86E
:101B2C00047B70470004005880B400AF034B1F22A5
:101B3C009A6100BFBD465DF8047B704700040058F5
:101B4C0080B400AF074BD3F8883003F48063B3F54F
:101B5C00806F01D1012300E000231846BD465DF8DB
:101B6C00047B70470004005880B400AF074BD3F8D7
:101B7C00883003F40043B3F5004F01D1012300E09A
:101B8C0000231846BD465DF8047B704700040058DE
:101B9C0080B400AF4FF0B0431B684FF0B04243F439
:101BAC008033136000BFBD465DF8047B704780B482
:101BBC0000AF4FF0B0431B6803F40033B3F5003FA4
:101BCC0001D1012300E000231846BD465DF8047BDB
:101BDC00704780B400AF4FF0B0431B684FF0B04279
:101BEC0043F48073136000BFBD465DF8047B7047FF
:101BFC0080B400AF4FF0B0431B6803F48063B3F5BF
:101C0C00806F01D1012300E000231846BD465DF82A
:101C1C00047B704780B483B000AF78604FF0B04362
:101C2C009B6823F003024FF0B0417B6813438B6039
:101C3C0000BF0C37BD465DF8047B704780B400AF25
:101C4C004FF0B0439B6803F00C031846BD465DF89B
:101C5C00047B704780B483B000AF78604FF0B04322
:101C6C005B6A23F003024FF0B0417B6813434B6275
:101C7C0000BF0C37BD465DF8047B704780B400AFE5
:101C8C00054B1B69044A23F00403136100BFBD46D6
:101C9C005DF8047B704700BF00ED00E080B400AF3E
:101CAC00054B1B69044A43F00403136100BFBD4696
:101CBC005DF8047B704700BF00ED00E080B483B09A
:101CCC0000AF786039607B683A68203253F8223074
:101CDC00054A934201D0012300E0002318460C373B
:101CEC00BD465DF8047B70470004008080B485B06D
:101CFC0000AFF860B9607A607B6843F48061FB6880
:101D0C00BA6843F8221000BF1437BD465DF8047B57
:101D1C00704780B500AF01F0EDFA00F035F8FFF731
:101D2C0003FF0320FFF7ECFEFFF7B8FF30BF00BF47
:101D3C0080BD80B500AF01F0EDFA00BF80BD80B56D
:101D4C0000AF01F0D7FA00F01FF80220FFF7D8FE21
:101D5C00FFF7A4FF30BF00BF80BD80B500AF00F01F
:101D6C004FF801F0D7FA00BF80BD80B500AF01F08D
:101D7C00C1FAFFF783FF30BF00BF80BD80B500AF55
:101D8C0001F0C8FA00BF80BD80B500AF00BF0321D1
:101D9C001948FFF793FF0346002BF8D1042116488E
:101DAC00FFF78CFF0346002B17D1FFF7DDFE034630
:101DBC00002B04D1FFF7C4FE0346002B15D00022E4
:101DCC0004210D48FFF792FF00F052F80B4B1B68F3
:101DDC000A4A23F00703136007E000F049F8074BA9
:101DEC001B68064A23F007031360002203210248F4
:101DFC00FFF77CFF00BF80BD001400580040005866
:101E0C0080B500AF002204211748FFF76FFF00BF19
:101E1C0003211548FFF752FF0346002BF8D1FFF7BB
:101E2C000DFF0346042B18D1FFF7B2FE0F4B1B68B6
:101E3C0023F007030D4A43F00103136000BFFFF7C3
:101E4C00B6FE0346002BFAD00220FFF7E3FE00BFDC
:101E5C00FFF7F4FE0346082BFAD1002203210248B7
:101E6C00FFF744FF00BF80BD00140058004000582D
:101E7C0080B500AFFFF7ADFE00BFFFF7B9FE03461C
:101E8C00002BFAD00120FFF7C5FE0020FFF7E2FE81
:101E9C0000BFFFF7D3FE0346042BFAD100BF80BD71
:101EAC0080B400AF4FF0B043D3F890304FF0B04255
:101EBC0043F40043C2F8903000BFBD465DF8047B8C
:101ECC00704780B485B000AF78604FF0B0431A6DA6
:101EDC004FF0B0417B6813430B654FF0B0431A6D64
:101EEC007B681340FB60FB6800BF1437BD465DF890
:101EFC00047B704780B485B000AF78604FF0B0437E
:101F0C009A6D4FF0B0417B6813438B654FF0B04333
:101F1C009A6D7B681340FB60FB6800BF1437BD46AD
:101F2C005DF8047B704780B500AF4FF40020FFF7DD
:101F3C00C8FF002200212E2001F049FB2E2001F0C9
:101F4C0060FB00BF80BD000080B582B000AF786040
:101F5C007B681B680D4A934213D14FF48010FFF736
:101F6C00B0FF002200212C2001F031FB2C2001F0CD
:101F7C0048FB002200212D2001F029FB2D2001F02F
:101F8C0040FB00BF0837BD4680BD00BF000C0058A9
:101F9C0080B596B000AF786007F10803502200219D
:101FAC00184608F0BBF97B681B680D4A934213D1A5
:101FBC004FF40073BB604FF080533B6407F1080390
:101FCC00184603F03CFA0346002B01D0FFF790FDB6
:101FDC004FF48020FFF775FF00BF5837BD4680BD1A
:101FEC000010005880B596B000AF786007F1080378
:101FFC0050220021184608F091F97B681B68124AA0
:10200C0093421DD14FF40063BB604FF48073BB64EB
:10201C0007F10803184603F012FA0346002B01D00F
:10202C00FFF766FDFFF73CFF4FF48060FFF762FFA0
:10203C0000220021032001F0CAFA032001F0E1FA8A
:10204C0000BF5837BD4680BD0028004080B400AFAB
:10205C0000BFBD465DF8047B704780B400AFFEE75F
:10206C0080B400AFFEE780B400AFFEE780B400AFF1
:10207C00FEE780B400AF00BFBD465DF8047B70473F
:10208C0080B400AF00BFBD465DF8047B704780B4E0
:10209C0000AF00BFBD465DF8047B704780B500AF54
:1020AC0001F0F0F800BF80BD80B500AFFFF71AF863
:1020BC0000BF80BD80B500AF024801F0A4FB00BF9B
:1020CC0080BD00BFCC03002080B500AF024803F0F8
:1020DC007BFE00BF80BD00BF3803002080B500AF81
:1020EC00024803F071FE00BF80BD00BFA4020020B7
:1020FC0080B500AF00F0E2FD00BF80BD80B500AF41
:10210C0000F014FE00BF80BD80B500AF01F0ECFD07
:10211C0000BF80BD80B500AF024801F074FB00BF6A
:10212C0080BD00BF2C04002080B500AF102001F052
:10213C00C3FD00BF80BD80B500AF012001F0BCFD28
:10214C0000BF80BD80B500AF022001F0B5FD00BF1F
:10215C0080BD000080B400AF034B1B681846BD4621
:10216C005DF8047B704700BF8075FF1F80B400AF23
:10217C00034B1B68DBB21846BD465DF8047B704709
:10218C008475FF1F80B400AF034B1B681B0A1846F5
:10219C00BD465DF8047B70478475FF1FB0B590B0E9
:1021AC0000AF2B4B3C1D1D460FCD0FC40FCD0FC4E4
:1021BC000FCD0FC495E8070003C4228000F072F91C
:1021CC000121022007F0D4FD224A0021042007F04F
:1021DC0031FF3B1D184606F077FF034687F83F306A
:1021EC0097F83F30002B01D0FFF782FC00F070F91C
:1021FC0007F0BEFA184B002283F88020164B4FF6DE
:10220C00FF72DA82154A0021012007F013FF00F05B
:10221C0075FB00F0B7FB124B002212490020FFF7B0
:10222C0003F90D4B02225A760B4B01221A7641F61A
:10223C000D0000F0CFFA0C4B80221A800B4BA02221
:10224C001A80012000F012FA00BF4037BD46B0BD25
:10225C0078A3000875890008CC04002049280008E0
:10226C00392800084D05002050050020520500209B
:10227C0080B58CB000AF7860922387F82F307B68E4
:10228C000133BB62BB6A1B78FF2B62D0FF2B00F3C0
:10229C00A680052B02D03E2B16D0A0E0BB6A0233E1
:1022AC003B613B69B3F801309AB2514BDB8A9A42DD
:1022BC0006D14F4B0022DA824D4B002283F880204E
:1022CC00012000F0D3F98DE0BB6A0233FB61FB699E
:1022DC001B780C2B05D00C2B37DC012B17D0032BC8
:1022EC0033E0FB690133BB61414BDB8A07F10E0222
:1022FC0007F10F01184606F024F9034687F82F3032
:10230C0097F82F30002B22D1FB7B022B1FE0FB69AF
:10231C0001337B61364B93F881301846FFF7FEF89A
:10232C00334B93F88030042B04D1314B062283F8C5
:10233C00802003E02E4B052283F880207B69B3F8C4
:10234C0001309AB22A4BDA8202E000BF4AE000BFA9
:10235C0048E0BB6A02337B627B6A1B889BB2A3F5A5
:10236C0080630A2B3DD801A252F823F0E723000822
:10237C00DF230008A5230008E7230008E723000853
:10238C00B9230008EF230008E7230008E72300081F
:10239C00CB230008E7230008154BDB8A15491846A8
:1023AC0005F086F9034687F82F3017E0104BDB8ACF
:1023BC00184605F0A2FB034687F82F300EE00C4BB5
:1023CC00DB8A0121184605F0ECFB034687F82F3019
:1023DC0004E07B6A02333B6200E000BF01E000BF17
:1023EC0000E000BF012318463037BD4680BD00BF5A
:1023FC00CC04002040E2010080B582B000AF9223F3
:10240C00FB7105F056FB0346FB7100BF0837BD4658
:10241C0080BD000080B582B000AF9223FB71054BEC
:10242C00DB8A184605F058FA0346FB7100BF0837E3
:10243C00BD4680BDCC04002080B584B002AF922391
:10244C00FB71174BDB8A7A1DB91D184606F079F81B
:10245C000346FB71FB79002B1DD1BB79022B0FD1ED
:10246C007B79022B0CD10E4BD88A002300930123CD
:10247C000122002106F060F90346FB7100BF0AE05F
:10248C00074BD88A0023009302230222002106F076
:10249C0053F90346FB7100BF0837BD4680BD00BF32
:1024AC00CC04002080B582B000AF064B3B60064BDD
:1024BC007B603B461946054806F03AFA00BF0837E0
:1024CC00BD4680BD28000320D32800089B280008A7
:1024DC00F0B58DB006AF4FF450733B809223FB7573
:1024EC0006F00BF80346FB7500F030F938613A69D9
:1024FC000621002005F015FF0346FB753B695A7950
:10250C00544B1A723B691A79524B5A723B69DA78FE
:10251C00504B9A723B699A784E4BDA723B695A78F7
:10252C004C4B1A733B691A784A4B5A734A4A10211E
:10253C00182005F0F6FE0346FB75484A10210820CA
:10254C0005F0EFFE0346FB751821012005F06EFF28
:10255C000346FB7505F08CFB0346FB750023FB73F0
:10256C00FB7B43F00103FB73FB7B002B1FD03C4B2D
:10257C00BB60BA1DF87BBB1C01933B1D009313463B
:10258C000722002105F0FBF80346FB75FC88BD888B
:10259C00B868FDF7F7FD0346DAB2BB680093134643
:1025AC0000222946204605F066FD0346FB75F88897
:1025BC0079883B4600930223002205F05CFD03461C
:1025CC00FB7502220221002006F039F80346FB7548
:1025DC00244B01221A70234B1B78184604F050FF31
:1025EC000346FB751F4B01225A701E4B08221A71B1
:1025FC001C4B10225A711B4B0022DA70194B1A4AD1
:10260C009A60184B01229A70164B9C78154B5D788A
:10261C00144B1B79134A52791249C97811488068B6
:10262C00002604960390029101920093002301224C
:10263C002946204604F078FF0346FB75094B9B782E
:10264C00002B03D005F011FA0346FB7500BF1C37B5
:10265C00BD46F0BD080000203CA500084CA50008B4
:10266C00B4A30008CC04002007B2010080B58CB0E4
:10267C0008AF0346FB719223FB72FB79012B06D149
:10268C002B4B1B88FB812B4B1B88BB8105E04FF42C
:10269C00C863FB814FF47A63BB81274B93F881307D
:1026AC001846FEF73BFFFB79022B0DD1224B93F81A
:1026BC008030012B04D0204B93F88030022B03D1B7
:1026CC0004F0C0FD0346FB721B4AFB7982F8803094
:1026DC00194B1B7EBA89F9890020069000200590C1
:1026EC00164804900393164B029306230193002380
:1026FC0000930023002004F0C9FD0346FB7211492E
:10270C000E2005F040F90346FB72FB7A002B0AD130
:10271C00FB79012B07D1084B93F881300A491846F5
:10272C00FEF780FF00BF00BF1037BD4680BD00BF65
:10273C005005002052050020CC040020E5040020A8
:10274C005CA500080800002046E0010080B586B0BA
:10275C0000AFFFF7FFFC38613B69B3F1FF3F23D0BB
:10276C00FFF710FDB860FFF701FD78603B69DAB246
:10277C00164B1A703B691B0ADAB2144B5A707B6801
:10278C00DAB2124B9A70BB68DAB2104BDA70BB68D3
:10279C001B0ADAB20D4B1A71BB681B0CDAB20B4B6D
:1027AC005A710A4B7B610BE0002006F065FCF86067
:1027BC00FB68002B02D0FB687B6101E0044B7B6162
:1027CC007B6918461837BD4680BD00BFC404002085
:1027DC0034A5000880B483B000AF0346FB80124BD5
:1027EC001B7E1946FB88DAB20F4B0B445A760E4B04
:1027FC001B7E0133DAB20C4B1A76FB881B0A9AB299
:10280C00094B1B7E1946D2B2074B0B445A76064B2A
:10281C001B7E0133DAB2044B1A7600BF0C37BD466F
:10282C005DF8047B704700BFCC04002080B500AF7E
:10283C000021012007F020FC00BF80BD80B500AF57
:10284C000220FFF713FF00BF80BD80B582B000AF40
:10285C0078600021042007F00FFC00BF0837BD464C
:10286C0080BD80B582B000AF7860012007F070FCAD
:10287C0000BF0837BD4680BD80B582B000AF786020
:10288C00012007F085FC00BF0837BD4680BD80B530
:10289C0084B000AF78607B68FB60FB685B680833D2
:1028AC00184606F0B7FF0346FB72FB7A002B03D0E9
:1028BC00FB6801221A7003E0FB6800221A7000BF4B
:1028CC001037BD4680BD80B584B000AF0346FB71A8
:1028DC00FB79002B02D0012B06D00BE03F23FB60D1
:1028EC00F86807F0F5FB05E03F23FB60F86807F09C
:1028FC000FFC00BF00BF1037BD4680BD80B582B055
:10290C0000AF074B3B6004233B713B46194642F634
:10291C00292005F0E7FF00BF0837BD4680BD00BF8A
:10292C00BCA3000880B582B000AF78607B681B78D0
:10293C00022B1AD0022B1EDC002B02D0012B07D04D
:10294C0019E00F4B00229A800D4B01221A7313E0F1
:10295C000B4B5B7B1846FEF7E1FD094B5B7B40F6AE
:10296C0001011846FEF75EFE06E0054B5B7B184640
:10297C00FEF7D4FD00E000BF00BF0837BD4680BDA8
:10298C005405002080B582B000AF1F4A0021022000
:10299C0007F050FB1D4B00221A731C4B04221A70BB
:1029AC001A4942F6382006F023FB184B1F22DA7224
:1029BC00164BDB7A03F00803002B02D0134B0A22D0
:1029CC009A80124BDB7A03F01003002B12D00F4BC2
:1029DC0001229A720023FB7109E0FB790B4A5B0020
:1029EC0013444FF48062DA80FB790133FB71FB797D
:1029FC00002BF2D0064B012206490020FEF714FDF5
:102A0C0000BF0837BD4680BD252A000854050020AC
:102A1C008D2A00086105002080B582B000AF00F05F
:102A2C0037F8034603F0070341337B607B689AB2A7
:102A3C00114B5A80104BDB7A03F00803002B0AD0A1
:102A4C000D4B1B7B002B06D10B4B9B8805339AB28D
:102A5C00094B9A8006E0084B1B7B012B02D1064BDD
:102A6C0000221A73054942F6372006F0C1FA00BF5E
:102A7C000837BD4680BD00BF540500205605002018
:102A8C0080B500AF0021022007F0F6FA00BF80BD30
:102A9C0080B400AF034B9B6A9BB21846BD465DF8F1
:102AAC00047B70470028004080B400AF054BDB6806
:102ABC00044A43F40043D36000BFBD465DF8047B79
:102ACC00704700BF0004005880B483B000AF78603A
:102ADC00064BD3F8D42005497B681343C1F8D43096
:102AEC0000BF0C37BD465DF8047B704700080058EA
:102AFC0080B483B000AF7860054B1A6A04497B68D8
:102B0C0013430B6200BF0C37BD465DF8047B704766
:102B1C000008005880B485B000AF78604FF0B04327
:102B2C001A6D4FF0B0417B6813430B654FF0B04307
:102B3C001A6D7B681340FB60FB6800BF1437BD4601
:102B4C005DF8047B704780B485B000AF78604FF0BF
:102B5C00B043D3F850214FF0B0417B681343C1F818
:102B6C0050314FF0B043D3F850217B681340FB60D9
:102B7C00FB6800BF1437BD465DF8047B704780B41A
:102B8C0083B000AF78607B681B6843F480327B684D
:102B9C001A6000BF0C37BD465DF8047B704780B4EB
:102BAC0083B000AF78607B681B6843F001027B68E0
:102BBC001A6000BF0C37BD465DF8047B704780B4CB
:102BCC0083B000AF786039607B685A683B681B043F
:102BDC00DB431A407B685A6000BF0C37BD465DF87A
:102BEC00047B704780B483B000AF786039607B6839
:102BFC005A683B681B041A437B685A6000BF0C3749
:102C0C00BD465DF8047B704780B483B000AF78603C
:102C1C0039607B685A683B68DB431A407B685A60B2
:102C2C0000BF0C37BD465DF8047B704780B483B0A1
:102C3C0000AF786039607B683A689A6000BF0C37E7
:102C4C00BD465DF8047B704780B483B000AF7860FC
:102C5C0039603B681A047B689A6000BF0C37BD462C
:102C6C005DF8047B704780B483B000AF7860396046
:102C7C007B68DA683B6813403A689A4201D10123B9
:102C8C0000E0002318460C37BD465DF8047B704706
:102C9C0080B483B000AF786039607B68DA693B68D8
:102CAC0013403A689A4201D1012300E000231846F0
:102CBC000C37BD465DF8047B7047000080B500AF53
:102CCC0002211948FFF7E4FF0346002B09D0164BED
:102CDC005B68DB4303F00203002B02D000F0DAF850
:102CEC001FE001211048FFF7D3FF0346002B08D04B
:102CFC000D4B5B6803F00103002B02D100F08EF842
:102D0C000FE008210848FFF7C3FF0346002B09D04A
:102D1C00054B5B68DB4303F00803002B02D000F08B
:102D2C0005F900BF00BF80BD000C005880B500AF96
:102D3C0002211A48FFF797FF0346002B09D1174BC6
:102D4C005B68DB4303F40033002B02D000F096F8F1
:102D5C0020E008211148FFF786FF0346002B09D11C
:102D6C000E4B5B68DB4303F40023002B02D000F016
:102D7C00BFF80FE020210948FFF775FF0346002B31
:102D8C0009D1064B5B68DB4303F40013002B02D024
:102D9C0000F050F800BF00BF80BD00BF000C005811
:102DAC0080B500AF4FF48010FFF7CDFE4FF40070EC
:102DBC00FFF79EFE4FF40070FFF786FE40BF20BF6A
:102DCC00FFF772FE00BF80BD80B500AF4FF48010DE
:102DDC00FFF7A0FE0648FFF7E2FE0548FFF7CFFE1F
:102DEC002C2000F00EFC2D2000F00BFC00BF80BD51
:102DFC00000C005880B500AF01210248FFF704FF1A
:102E0C0000BF80BD000C005880B500AF0121024806
:102E1C00FFF71AFF00BF80BD000C005880B500AF53
:102E2C0006F0DCFD01210248FFF700FF00BF80BD6A
:102E3C00000C005880B500AF20210348FFF7D2FEEC
:102E4C0006F0FCFD00BF80BD000C005880B500AF43
:102E5C0002210248FFF7D8FE00BF80BD000C0058CD
:102E6C0080B500AF02210448FFF7EEFE02210248B4
:102E7C00FFF7A5FE00BF80BD000C005880B500AF69
:102E8C0002210348FFF7AEFE06F028FE00BF80BD0E
:102E9C00000C005880B500AF06F036FE0221024847
:102EAC00FFF7C4FE00BF80BD000C005880B582B097
:102EBC0000AF786008210C48FFF7D5FE0346002BC5
:102ECC0007D00A4A7B68136008210748FFF777FE92
:102EDC0006E07B68984708210348FFF7B5FE00BF62
:102EEC000837BD4680BD00BF000C005864050020AB
:102EFC0080B500AF08210648FFF774FE054B1B6830
:102F0C00984708210248FFF79FFE00BF80BD00BF15
:102F1C00000C00586405002080B500AF0821024861
:102F2C00FFF772FE00BF80BD000C005880B500AFEB
:102F3C0006F092FE08210248FFF778FE00BF80BD24
:102F4C00000C0058D458C4500433C4188C42F9D324
:102F5C007047036004308842FBD370470C488546A9
:102F6C0000F0B0F80B480C490C4A0023FFF7EDFFBA
:102F7C000B480C490023FFF7EEFF0B480B490023CD
:102F8C00FFF7E9FF07F098F9FEF788FCFEE7000071
:102F9C0000000320080000203800002008A60008CC
:102FAC009000002080060020E4010320670A032023
:102FBC00FEE780B485B000AF78604FF0B043DA6CB8
:102FCC004FF0B0417B681343CB644FF0B043DA6CE5
:102FDC007B681340FB60FB6800BF1437BD465DF88F
:102FEC00047B704780B588B000AF03460A46FB717E
:102FFC001346BB7107F10C0300221A605A609A60E9
:10300C00DA601A61FB79002B03D10420FFF7D1FFA2
:10301C000CE0FB79012B03D10820FFF7CAFF05E078
:10302C00FB79022B02D10820FFF7C3FFBB79002BE1
:10303C0017D1FB79204A32F81330FB6000233B6137
:10304C0001237B610223BB61FB791C4A52F82330BC
:10305C0007F10C021146184600F0A6FC0120FDF702
:10306C00F9FBBB79012B23D1FB79134A32F81330CE
:10307C00FB6001237B614FF404133B61FB790F4A26
:10308C0052F8233007F10C021146184600F08CFC64
:10309C00FB790B4AD35C5BB200220F21184600F07F
:1030AC0096FAFB79064AD35C5BB2184600F0A9FA93
:1030BC0000BF2037BD4680BD64A500081800002065
:1030CC006CA5000880B400AF264B00229A60254BFB
:1030DC00D3F88830234A43F47003C2F888304FF099
:1030EC00B0431B684FF0B04243F0010313604FF044
:1030FC00B0434FF4E0229A604FF0B0431A684FF09F
:10310C00B041194B13400B604FF0B043D3F89430DF
:10311C004FF0B04223F00503C2F894304FF0B043A7
:10312C00D3F898304FF0B04223F00103C2F8983036
:10313C004FF0B0430D4ADA604FF0B0430B4A1A61BE
:10314C004FF0B0431B684FF0B04223F48023136060
:10315C004FF0B04300229A6100BFBD465DF8047B7E
:10316C00704700BF00ED00E0FBFEF6FA00100422F1
:10317C0080B400AF054B5B68044A23F00103536035
:10318C0000BFBD465DF8047B704700BF002004E023
:10319C0080B400AF054B5B68044A23F00203536014
:1031AC0000BFBD465DF8047B704700BF002004E003
:1031BC0080B400AF054B5B68044A23F004035360F2
:1031CC0000BFBD465DF8047B704700BF002004E0E3
:1031DC0080B582B000AF0023FB710C4B1B680B4A0F
:1031EC0043F480731360032000F0E6F9002000F034
:1031FC000FF80346002B02D00123FB7101E0FEF710
:10320C0092FEFB7918460837BD4680BD0040005839
:10321C0080B584B000AF78600023FB73174B1B782C
:10322C00002B24D001F0A6FE0246144B1B78194645
:10323C004FF47A73B3FBF1F3B2FBF3F3184600F0DF
:10324C00FCF90346002B0FD17B680F2B09D8002209
:10325C0079684FF0FF3000F0BAF9094A7B681360C7
:10326C0007E00123FB7304E00123FB7301E001235E
:10327C00FB73FB7B18461037BD4680BD2C0000202D
:10328C002800002080B400AF064B1B781A46064B72
:10329C001B681344044A136000BFBD465DF8047BF1
:1032AC00704700BF2C0000206805002080B400AFE0
:1032BC00034B1B681846BD465DF8047B704700BF86
:1032CC006805002080B400AF034B1B681846BD4650
:1032DC005DF8047B704700BF2800002080B400AF6D
:1032EC00034B1B781846BD465DF8047B704700BF46
:1032FC002C00002080B400AF054B1B68044A23F05F
:10330C000203136000BFBD465DF8047B704700BF2D
:10331C0010E000E080B400AF054B1B68044A43F09A
:10332C000203136000BFBD465DF8047B704700BF0D
:10333C0010E000E080B500AFFFF71AFF00BF80BDC2
:10334C0080B500AFFFF724FF00BF80BD80B500AF94
:10335C00FFF72EFF00BF80BD80B485B000AF786052
:10336C007B6803F00703FB600C4BDB68BB60BA683F
:10337C004FF6FF031340BB60FB681A02BB68134394
:10338C0043F0BF6343F40033BB60044ABB68D360B3
:10339C0000BF1437BD465DF8047B704700ED00E0BC
:1033AC0080B400AF044BDB681B0A03F0070318461C
:1033BC00BD465DF8047B704700ED00E080B483B03F
:1033CC0000AF0346FB7197F90730002B0BDBFB7941
:1033DC0003F01F02074997F907305B09012000FA37
:1033EC0002F241F8232000BF0C37BD465DF8047B88
:1033FC00704700BF00E100E080B483B000AF03462B
:10340C00FB7197F90730002B12DBFB7903F01F02DD
:10341C000A4997F907305B09012000FA02F22033C0
:10342C0041F82320BFF34F8F00BFBFF36F8F00BF56
:10343C0000BF0C37BD465DF8047B704700E100E02F
:10344C0080B483B000AF0346FB7197F90730002BB3
:10345C000CDBFB7903F01F02074997F907305B0976
:10346C00012000FA02F2403341F8232000BF0C3750
:10347C00BD465DF8047B704700E100E080B483B08A
:10348C0000AF0346FB7197F90730002B0CDBFB797F
:10349C0003F01F02074997F907305B09012000FA76
:1034AC0002F2603341F8232000BF0C37BD465DF8B3
:1034BC00047B704700E100E080B483B000AF0346AA
:1034CC003960FB7197F90730002B0ADB3B68DAB2E5
:1034DC000C4997F907301201D2B20B4483F8002340
:1034EC000AE03B68DAB20849FB7903F00F03043BAE
:1034FC001201D2B20B441A7600BF0C37BD465DF8F0
:10350C00047B704700E100E000ED00E080B489B07E
:10351C0000AFF860B9607A60FB6803F00703FB61E9
:10352C00FB69C3F10703042B28BF0423BB61FB69B0
:10353C000433062B02D9FB69033B00E000237B61BB
:10354C004FF0FF32BB6902FA03F3DA43BB681A404F
:10355C007B699A404FF0FF317B6901FA03F3D94341
:10356C007B680B40134318462437BD465DF8047B3B
:10357C007047000080B582B000AF78607B68013B7B
:10358C00B3F1807F01D301230FE00A4A7B68013B32
:10359C0053600F214FF0FF30FFF78EFF054B0022D9
:1035AC009A60044B07221A60002318460837BD4660
:1035BC0080BD00BF10E000E080B582B000AF786045
:1035CC007868FFF7C9FE00BF0837BD4680BD80B5DF
:1035DC0086B000AF0346B9607A60FB73FFF7E0FE7C
:1035EC0078617A68B9687869FFF790FF024697F9B5
:1035FC000F3011461846FFF75FFF00BF1837BD4666
:10360C0080BD80B582B000AF0346FB7197F90730DF
:10361C001846FFF7D3FE00BF0837BD4680BD80B506
:10362C0082B000AF0346FB7197F907301846FFF7DD
:10363C00E3FE00BF0837BD4680BD80B582B000AF49
:10364C0078607868FFF796FF034618460837BD4642
:10365C0080BD80B582B000AF0346FB7197F907308F
:10366C001846FFF7EDFE00BF0837BD4680BD80B59C
:10367C0082B000AF0346FB7197F907301846FFF78D
:10368C00FDFE00BF0837BD4680BD80B483B000AFDF
:10369C0078607B68002B01D101234FE07B6893F8A5
:1036AC002530DBB2022B08D07B680422DA637B68FE
:1036BC00002283F82420012340E07B681B681A68F1
:1036CC007B681B6822F00E021A607B689B6C1A6880
:1036DC007B689B6C22F480721A607B681B681A688A
:1036EC007B681B6822F001021A607B685B6C03F03C
:1036FC001C027B681B6C012101FA02F25A607B6888
:10370C00DB6C7A68126D5A607B685B6D002B0CD099
:10371C007B685B6D1A687B685B6D22F480721A6043
:10372C007B689B6D7A68D26D5A607B68012283F846
:10373C0025207B68002283F82420002318460C37B0
:10374C00BD465DF8047B704780B584B000AF7860EF
:10375C000023FB737B6893F82530DBB2022B05D07A
:10376C007B680422DA630123FB7347E07B681B68E8
:10377C001A687B681B6822F00E021A607B681B6853
:10378C001A687B681B6822F001021A607B689B6CCC
:10379C001A687B689B6C22F480721A607B685B6C85
:1037AC0003F01C027B681B6C012101FA02F25A60C7
:1037BC007B68DB6C7A68126D5A607B685B6D002BE2
:1037CC000CD07B685B6D1A687B685B6D22F4807231
:1037DC001A607B689B6D7A68D26D5A607B68012297
:1037EC0083F825207B68002283F824207B689B6B60
:1037FC00002B03D07B689B6B78689847FB7B184643
:10380C001037BD4680BD80B584B000AF78607B6852
:10381C001B6C1B68FB607B681B681B68BB607B6850
:10382C005B6C03F01C0304229A40FB681340002BD2
:10383C0026D0BB6803F00403002B21D07B681B68E7
:10384C001B6803F02003002B07D17B681B681A68E8
:10385C007B681B6822F004021A607B685B6C03F0C7
:10386C001C027B681B6C042101FA02F25A607B6813
:10387C001B6B002B71D07B681B6B786898476CE0D6
:10388C007B685B6C03F01C0302229A40FB681340BC
:10389C00002B2ED0BB6803F00203002B29D07B68D1
:1038AC001B681B6803F02003002B0BD17B681B6883
:1038BC001A687B681B6822F00A021A607B68012276
:1038CC0083F825207B685B6C03F01C027B681B6C07
:1038DC00022101FA02F25A607B68002283F824204C
:1038EC007B68DB6A002B38D07B68DB6A786898478A
:1038FC0033E07B685B6C03F01C0308229A40FB6886
:10390C001340002B2AD0BB6803F00803002B25D0F2
:10391C007B681B681A687B681B6822F00E021A60B1
:10392C007B685B6C03F01C027B681B6C012101FA49
:10393C0002F25A607B680122DA637B68012283F809
:10394C0025207B68002283F824207B685B6B002B8E
:10395C0004D07B685B6B7868984700BF00BF10375A
:10396C00BD4680BD80B487B000AF78607B681B68B3
:10397C001B0C03F001037B617B681B6803F01F03C6
:10398C00012202FA03F33B617B695B0103F1B04353
:10399C0003F60803FB60FB683A691A6000BF1C372A
:1039AC00BD465DF8047B704780B487B000AF78608B
:1039BC00396000237B614CE13B681A6801217B690B
:1039CC0001FA03F31340FB60FB68002B00F03E810F
:1039DC003B685B6803F00303012B05D03B685B6815
:1039EC0003F00303022B30D17B689B683B617B693E
:1039FC005B00032202FA03F3DB433A6913403B6199
:103A0C003B68DA687B695B0002FA03F33A6913439B
:103A1C003B617B683A699A607B685B683B61012219
:103A2C007B6902FA03F3DB433A6913403B613B6861
:103A3C005B681B0903F001027B6902FA03F33A6924
:103A4C0013433B617B683A695A603B685B6803F0DF
:103A5C000303032B17D07B68DB683B617B695B003E
:103A6C00032202FA03F3DB433A6913403B613B68E0
:103A7C009A687B695B0002FA03F33A6913433B6172
:103A8C007B683A69DA603B685B6803F00303022BDE
:103A9C0023D17B69DA087B68083253F822303B610A
:103AAC007B6903F007039B000F2202FA03F3DB434D
:103ABC003A6913403B613B681A697B6903F0070361
:103ACC009B0002FA03F33A6913433B617B69DA0802
:103ADC007B680832396943F822107B681B683B61AC
:103AEC007B695B00032202FA03F3DB433A69134060
:103AFC003B613B685B6803F003027B695B0002FA85
:103B0C0003F33A6913433B617B683A691A603B687B
:103B1C005B6803F44033002B00F09880544A7B69B7
:103B2C009B08023352F823303B617B6903F003039B
:103B3C009B000F2202FA03F3DB433A6913403B610B
:103B4C007B68B3F1904F19D07B684A4A934213D0EB
:103B5C007B68494A93420DD07B68484A934207D010
:103B6C007B68474A934201D1042308E0072306E00F
:103B7C00032304E0022302E0012300E000237A691E
:103B8C0002F00302920093403A6913433B613849B7
:103B9C007B699B0802333A6941F82320394B1B6837
:103BAC003B61FB68DB433A6913403B613B685B68F4
:103BBC0003F48013002B03D03A69FB6813433B6179
:103BCC00304A3B6913602F4B5B683B61FB68DB43FE
:103BDC003A6913403B613B685B6803F40013002BAC
:103BEC0003D03A69FB6813433B61264A3B69536037
:103BFC00244BD3F880303B61FB68DB433A691340BC
:103C0C003B613B685B6803F48033002B03D03A695B
:103C1C00FB6813433B611B4A3B69C2F88030194B6C
:103C2C00D3F884303B61FB68DB433A6913403B615A
:103C3C003B685B6803F40033002B03D03A69FB68E4
:103C4C0013433B610F4A3B69C2F884307B690133F3
:103C5C007B613B681A687B6922FA03F3002B7FF4C3
:103C6C00ABAE00BF00BF1C37BD465DF8047B704790
:103C7C00000001400004004800080048000C004807
:103C8C00001000480008005880B483B000AF786082
:103C9C000B467B8013467B707B78002B03D07A8895
:103CAC007B689A6102E07A887B689A6200BF0C3765
:103CBC00BD465DF8047B704780B582B000AF03460B
:103CCC00FB80084BDA68FB881340002B06D0054AB2
:103CDC00FB88D360FB881846FCF71EFE00BF083734
:103CEC00BD4680BD0008005880B582B000AF0A4BBD
:103CFC00DB687B60084B1A687B68DB430649134022
:103D0C000B60054A7B685360786800F007F800BFC9
:103D1C000837BD4680BD00BF0015005880B483B085
:103D2C0000AF786000BF0C37BD465DF8047B704770
:103D3C0080B584B000AF78600023FB737B68002BE8
:103D4C001ED0134BBB607B6893F83830DBB2002B72
:103D5C0002D17868FEF7F8F8B86800F05BF8BB6839
:103D6C001B6843F00112BB681A60786800F02CF8ED
:103D7C007B6800225A637B68012283F8382001E0BB
:103D8C000123FB73FB7B18461037BD4680BD00BF7B
:103D9C00000C005880B485B000AFF860B9601346D1
:103DAC00FB7100BF1437BD465DF8047B704780B4CF
:103DBC0085B000AFF860B9601346FB7100BF1437D3
:103DCC00BD465DF8047B704780B485B000AF786069
:103DDC000023FB600FE07A68FB689B0013440B4ADE
:103DEC005A607A68FB6806339B001344084A5A6091
:103DFC00FB680133FB60FB68052BECD900BF00BFEF
:103E0C001437BD465DF8047B704700BFA13D000828
:103E1C00BB3D000880B483B000AF78607B680022A3
:103E2C001A607B684FF03F125A607B683F229A60A1
:103E3C0000BF0C37BD465DF8047B704780B400AF03
:103E4C00054B1B68044A43F48073136000BFBD46E6
:103E5C005DF8047B704700BF0004005880B400AFCD
:103E6C00044B1B6803F4C0631846BD465DF8047B25
:103E7C00704700BF0004005880B400AF4FF0B0434F
:103E8C001B6803F48013B3F5801F01D1012300E0FC
:103E9C0000231846BD465DF8047B704780B400AF24
:103EAC004FF0B0431B684FF0B04243F480331360C3
:103EBC0000BFBD465DF8047B704780B400AF4FF087
:103ECC00B0431B684FF0B04223F48033136000BF43
:103EDC00BD465DF8047B704780B400AF4FF0B04333
:103EEC001B6803F40033B3F5003F01D1012300E05C
:103EFC0000231846BD465DF8047B704780B400AFC4
:103F0C004FF0B0431B684FF0B04243F48073136022
:103F1C0000BFBD465DF8047B704780B400AF4FF026
:103F2C00B0431B684FF0B04223F48073136000BFA2
:103F3C00BD465DF8047B704780B400AF4FF0B043D2
:103F4C001B6803F48063B3F5806F01D1012300E09B
:103F5C0000231846BD465DF8047B704780B483B0DF
:103F6C0000AF78604FF0B0435B6823F0FE427B6893
:103F7C001B064FF0B04113434B6000BF0C37BD46DE
:103F8C005DF8047B704780B400AF4FF0B043D3F8BA
:103F9C0098304FF0B04243F00103C2F8983000BFA4
:103FAC00BD465DF8047B704780B400AF4FF0B04362
:103FBC00D3F898304FF0B04223F00103C2F8983098
:103FCC0000BFBD465DF8047B704780B400AF4FF076
:103FDC00B043D3F8983003F00203022B01D1012334
:103FEC0000E000231846BD465DF8047B704780B4A2
:103FFC0000AF4FF0B043D3F890304FF0B04243F0E5
:10400C000103C2F8903000BFBD465DF8047B7047D9
:10401C0080B400AF4FF0B043D3F890304FF0B042C3
:10402C0023F00103C2F8903000BFBD465DF8047B5D
:10403C00704780B400AF4FF0B043D3F890304FF0DE
:10404C00B04243F00403C2F8903000BFBD465DF8A7
:10405C00047B704780B400AF4FF0B043D3F890307E
:10406C004FF0B04223F00403C2F8903000BFBD46BD
:10407C005DF8047B704780B400AF4FF0B043D3F8C9
:10408C00903003F00203022B01D1012300E0002346
:10409C001846BD465DF8047B704780B400AF4FF006
:1040AC00B043D3F894304FF0B04243F00103C2F860
:1040BC00943000BFBD465DF8047B704780B400AF00
:1040CC004FF0B043D3F894304FF0B04223F00103DB
:1040DC00C2F8943000BFBD465DF8047B704780B4D5
:1040EC0000AF4FF0B043D3F8943003F00203022B2F
:1040FC0001D1012300E000231846BD465DF8047B86
:10410C00704780B400AF4FF0B043D3F894304FF009
:10411C00B04243F00403C2F8943000BFBD465DF8D2
:10412C00047B704780B400AF4FF0B043D3F89430A9
:10413C004FF0B04223F00403C2F8943000BFBD46E8
:10414C005DF8047B704780B400AF4FF0B043D3F8F8
:10415C00943003F00803082B01D1012300E0002365
:10416C001846BD465DF8047B704780B483B000AF41
:10417C0078604FF0B043D3F8943023F470627B68CE
:10418C001B024FF0B0411343C1F8943000BF0C3701
:10419C00BD465DF8047B704780B400AF4FF0B04370
:1041AC001B684FF0B04243F00103136000BFBD46E3
:1041BC005DF8047B704780B400AF4FF0B0431B68D0
:1041CC004FF0B04223F00103136000BFBD465DF811
:1041DC00047B704780B400AF4FF0B0431B6803F012
:1041EC000203022B01D1012300E000231846BD4637
:1041FC005DF8047B704780B483B000AF78604FF0FB
:10420C00B0431B6823F0F0024FF0B0417B681343BE
:10421C000B6000BF0C37BD465DF8047B704780B463
:10422C0083B000AF4FF0B0431B6803F0F0037B602A
:10423C007B68B02B01D9B0237B607B6818460C37A8
:10424C00BD465DF8047B704780B483B000AF7860E6
:10425C004FF0B0435B6823F47F427B681B024FF046
:10426C00B04113434B6000BF0C37BD465DF8047B77
:10427C00704780B483B000AF78604FF0B0439B6858
:10428C0023F003024FF0B0417B6813438B6000BFF7
:10429C000C37BD465DF8047B704780B400AF4FF01F
:1042AC00B0439B6803F00C031846BD465DF8047BD5
:1042BC00704780B483B000AF78604FF0B0439B6818
:1042CC0023F0F0024FF0B0417B6813438B6000BFCA
:1042DC000C37BD465DF8047B704780B483B000AFEB
:1042EC0078604FF0B043D3F8083123F0F0024FF070
:1042FC00B0417B681343C1F8083100BF0C37BD4691
:10430C005DF8047B704780B483B000AF78604FF0E9
:10431C00B043D3F8083123F00F027B681B094FF030
:10432C00B0411343C1F8083100BF0C37BD465DF8EE
:10433C00047B704780B483B000AF78604FF0B0431B
:10434C009B6823F4E0624FF0B0417B6813438B60B1
:10435C0000BF0C37BD465DF8047B704780B483B05A
:10436C0000AF78604FF0B0439B6823F460524FF07D
:10437C00B0417B6813438B6000BF0C37BD465DF8C2
:10438C00047B704780B400AF4FF0B0439B6803F0E0
:10439C00F0031846BD465DF8047B704780B400AF4F
:1043AC004FF0B043D3F808311B0103F0F00318466B
:1043BC00BD465DF8047B704780B400AF4FF0B0434E
:1043CC001B684FF0B04243F08073136000BFBD46D2
:1043DC005DF8047B704780B400AF4FF0B0431B68AE
:1043EC004FF0B04223F08073136000BFBD465DF800
:1043FC00047B704780B400AF4FF0B0431B6803F0F0
:10440C000073B3F1007F01D1012300E000231846B3
:10441C00BD465DF8047B704780B400AF4FF0B043ED
:10442C00DB681B0A03F07F031846BD465DF8047B6E
:10443C00704780B400AF4FF0B043DB6803F06043CB
:10444C001846BD465DF8047B704780B400AF4FF052
:10445C00B043DB6803F070031846BD465DF8047B7F
:10446C00704780B400AF4FF0B043DB6803F0030338
:10447C001846BD465DF8047B704780B400AF4FF022
:10448C00B0439B6803F48033B3F5803F01D1012323
:10449C0000E000231846BD465DF8047B704780B4ED
:1044AC0000AF4FF0B043D3F8083103F40033B3F549
:1044BC00003F01D1012300E000231846BD465DF802
:1044CC00047B704780B400AF4FF0B043D3F8083191
:1044DC0003F48033B3F5803F01D1012300E00023C6
:1044EC001846BD465DF8047B704780B400AF4FF0B2
:1044FC00B0439B6803F40033B3F5003F01D10123B3
:10450C0000E000231846BD465DF8047B704780B47C
:10451C0000AF4FF0B0439B6803F48023B3F5802FBA
:10452C0001D1012300E000231846BD465DF8047B51
:10453C007047000090B58DB000AF78607B68002BA1
:10454C0001D1012363E37B681B6803F02003002B7C
:10455C0000F08D80FFF7A1FEF862FFF782FFB862D2
:10456C00FB6A002B05D0FB6A0C2B47D1BB6A012BD5
:10457C0044D17B68DB69002B01D1012347E37B68C5
:10458C005C6AFFF74CFE03469C4214D97B685B6A5D
:10459C00184600F003FD0346002B01D0012336E33F
:1045AC007B685B6A1846FFF726FE7B681B6A184619
:1045BC00FFF74AFE13E07B685B6A1846FFF71BFEA9
:1045CC007B681B6A1846FFF73FFE7B685B6A1846E0
:1045DC0000F0E4FC0346002B01D0012317E300F0AC
:1045EC00C9FC0346A44A1360A44B1B681846FEF78B
:1045FC000FFE0346002B39D0012308E37B68DB69EF
:10460C00002B1ED0FFF7C8FDFEF750FE786208E0C5
:10461C00FEF74CFE02467B6AD31A022B01D9032308
:10462C00F5E2FFF7D7FD0346002BF1D07B685B6A00
:10463C001846FFF7E0FD7B681B6A1846FFF704FE7F
:10464C0015E0FFF7B8FDFEF731FE786208E0FEF7E3
:10465C002DFE02467B6AD31A022B01D90323D6E224
:10466C00FFF7B8FD0346002BF1D100E000BF7B68DB
:10467C001B6803F00103002B47D0FFF70EFE3862D6
:10468C00FFF7EFFEF8613B6A082B05D03B6A0C2B59
:10469C0008D1FB69032B05D17B685B68002B34D1F7
:1046AC000123B4E27B685B68B3F5803F02D1FFF76E
:1046BC00F5FB01E0FFF701FC7B685B68002B12D077
:1046CC00FEF7F4FD786208E0FEF7F0FD02467B6A27
:1046DC00D31A642B01D9032399E2FFF7FDFB0346A0
:1046EC00002BF1D011E0FEF7E1FD786208E0FEF757
:1046FC00DDFD02467B6AD31A642B01D9032386E2C3
:10470C00FFF7EAFB0346002BF1D17B681B6803F033
:10471C000203002B4CD0FFF7C0FDB861FFF7A1FEE0
:10472C007861BB69042B05D0BB690C2B0ED17B695E
:10473C00022B0BD17B68DB68002B01D1012366E2D5
:10474C007B681B691846FFF709FC31E07B68DB6866
:10475C00002B19D0FFF7D2FBFEF7A8FD786208E01A
:10476C00FEF7A4FD02467B6AD31A022B01D9032360
:10477C004DE2FFF7E1FB0346002BF1D07B681B6990
:10478C001846FFF7EBFB13E0FFF7C7FBFEF78EFDB8
:10479C00786208E0FEF78AFD02467B6AD31A022B88
:1047AC0001D9032333E2FFF7C7FB0346002BF1D1FA
:1047BC007B681B6803F00803002B06D17B681B6821
:1047CC0003F01003002B00F0A3807B685B69002BC7
:1047DC0076D07B681B6803F01003002B46D0FFF7E4
:1047EC007EFC0346002B13D1FFF757FCFEF75EFD52
:1047FC00786208E0FEF75AFD02467B6AD31A022B58
:10480C0001D9032303E2FFF76AFC0346002BF1D026
:10481C00FFF777FCFEF74AFD786208E0FEF746FDED
:10482C0002467B6AD31A032B01D90323EFE1FFF76E
:10483C008AFC0346002BF1D07B689B691846FFF776
:10484C0094FCFFF73BFCFEF731FD786208E0FEF7C5
:10485C002DFD02467B6AD31A022B01D90323D6E124
:10486C00FFF73DFC0346002BF1D151E0FFF715FC9F
:10487C00FEF71CFD78620CE02400002028000020CC
:10488C00FEF714FD02467B6AD31A022B01D90323CF
:10489C00BDE1FFF724FC0346002BF1D0FFF742FCEF
:1048AC0008E0FEF703FD02467B6AD31A032B01D9FD
:1048BC000323ACE1FFF747FC0346002BF1D127E0C3
:1048CC00FFF730FCFEF7F2FC786208E0FEF7EEFC36
:1048DC0002467B6AD31A032B01D9032397E1FFF716
:1048EC0032FC0346002BF1D1FFF7E8FBFEF7DEFCB0
:1048FC00786208E0FEF7DAFC02467B6AD31A022BD8
:10490C0001D9032383E1FFF7EAFB0346002BF1D126
:10491C007B681B6803F00403002B5BD0A74B1B6860
:10492C0003F48073002B14D1FFF788FAFEF7BEFC5A
:10493C00786208E0FEF7BAFC02467B6AD31A022BB7
:10494C0001D9032363E19D4B1B6803F48073002B97
:10495C00F0D07B689B68012B02D1FFF748FB0CE081
:10496C007B689B68052B04D1FFF763FBFFF73FFBCC
:10497C0003E0FFF74DFBFFF76DFB7B689B68002B9B
:10498C0014D0FEF793FC78620AE0FEF78FFC024627
:10499C007B6AD31A41F28832934201D9032336E160
:1049AC00FFF769FB0346002BEFD013E0FEF77EFC0C
:1049BC0078620AE0FEF77AFC02467B6AD31A41F26F
:1049CC008832934201D9032321E1FFF754FB0346BC
:1049DC00002BEFD17B681B6803F04003002B2CD01D
:1049EC007B689B6A002B14D0FFF7CDFAFEF75EFCB8
:1049FC00786208E0FEF75AFC02467B6AD31A022B57
:104A0C0001D9032303E1FFF7E0FA0346002BF1D0B1
:104A1C0013E0FFF7C9FAFEF749FC786208E0FEF7ED
:104A2C0045FC02467B6AD31A022B01D90323EEE024
:104A3C00FFF7CBFA0346002BF1D17B68DB6A002B26
:104A4C0000F0E480FFF729FC38614FF0B043DB68DD
:104A5C00FB607B68DB6A022B40F0B480FB6803F0E0
:104A6C0003027B681B6B9A4223D1FB6803F0700234
:104A7C007B685B6B9A421CD1FB681B0A03F07F02BC
:104A8C007B689B6B9A4214D1FB6803F478127B68A9
:104A9C00DB6B9A420DD1FB6803F060627B681B6C88
:104AAC009A4206D1FB6803F060427B685B6C9A42C9
:104ABC005DD03B690C2B58D04FF0B0431B6803F012
:104ACC008063002B01D00123A1E0FFF784FCFEF7EB
:104ADC00EDFB786208E0FEF7E9FB02467B6AD31A2D
:104AEC00022B01D9032392E04FF0B0431B6803F073
:104AFC000073002BEFD14FF0B043DA68304B13400A
:104B0C007A68116B7A68526B11437A68926B120255
:104B1C0011437A68D26B11437A68126C11437A682C
:104B2C00526C0A434FF0B0411343CB60FFF744FC87
:104B3C004FF0B043DB684FF0B04243F08053D3608A
:104B4C00FEF7B4FB786208E0FEF7B0FB02467B6A26
:104B5C00D31A022B01D9032359E04FF0B0431B6841
:104B6C0003F00073002BEFD050E001234FE04FF027
:104B7C00B0431B6803F00073002B47D1FFF71CFCFC
:104B8C004FF0B043DB684FF0B04243F08053D3603A
:104B9C00FEF78CFB786208E0FEF788FB02467B6A26
:104BAC00D31A022B01D9032331E04FF0B0431B6819
:104BBC0003F00073002BEFD028E000BF0004005876
:104BCC008C80C1113B690C2B1ED0FFF704FCFEF747
:104BDC006DFB786208E0FEF769FB02467B6AD31A2C
:104BEC00022B01D9032312E04FF0B0431B6803F0F2
:104BFC000073002BEFD14FF0B043DA684FF0B041A7
:104C0C00054B1340CB6001E0012300E00023184664
:104C1C003437BD4690BD00BFFCFFFEEE80B584B0BE
:104C2C0000AF786039607B68002B01D101232DE146
:104C3C00984B1B6803F007033A689A421BD9954BB3
:104C4C001B6823F0070293493B6813430B60FEF784
:104C5C002DFBF86008E0FEF729FB0246FB68D31A2F
:104C6C00022B01D9032311E18A4B1B6803F00703C4
:104C7C003A689A42EFD17B681B6803F00203002B61
:104C8C0016D07B689B681846FFF713FBFEF70EFBEC
:104C9C00F86008E0FEF70AFB0246FB68D31A022B09
:104CAC0001D90323F2E0FFF7E8FB0346002BF1D018
:104CBC007B681B6803F02003002B16D07B685B69B4
:104CCC001846FFF70AFBFEF7F1FAF86008E0FEF76A
:104CDC00EDFA0246FB68D31A022B01D90323D5E067
:104CEC00FFF7DDFB0346002BF1D07B681B6803F05C
:104CFC004003002B16D07B689B691846FFF703FB1B
:104D0C00FEF7D4FAF86008E0FEF7D0FA0246FB682A
:104D1C00D31A022B01D90323B8E0FFF7D3FB0346C8
:104D2C00002BF1D07B681B6803F00403002B16D01A
:104D3C007B68DB681846FFF7FDFAFEF7B7FAF860F8
:104D4C0008E0FEF7B3FA0246FB68D31A022B01D92E
:104D5C0003239BE0FFF7C9FB0346002BF1D07B68D4
:104D6C001B6803F00803002B17D07B681B69DB0062
:104D7C001846FFF7F3FAFEF799FAF86008E0FEF729
:104D8C0095FA0246FB68D31A022B01D903237DE066
:104D9C00FFF7BDFB0346002BF1D07B681B6803F0CB
:104DAC000103002B43D07B685B68022B06D1FFF715
:104DBC0093F80346002B1ED1012367E07B685B68E8
:104DCC00032B06D1FFF716FB0346002B13D101234F
:104DDC005CE07B685B68002B06D1FFF7FBF90346B0
:104DEC00002B08D1012351E0FFF7A6F80346002B56
:104DFC0001D101234AE07B685B681846FFF739FA5A
:104E0C00FEF754FAF8600AE0FEF750FA0246FB6827
:104E1C00D31A41F28832934201D9032336E0FFF7CB
:104E2C003CFA02467B685B689B009A42ECD1194BBA
:104E3C001B6803F007033A689A421BD2154B1B6898
:104E4C0023F0070213493B6813430B60FEF72EFA5D
:104E5C00F86008E0FEF72AFA0246FB68D31A022B28
:104E6C0001D9032312E00B4B1B6803F007033A68CC
:104E7C009A42EFD100F07EF80346074A1360FEF722
:104E8C0021FA03461846FEF7C3F9034618461037B5
:104E9C00BD4680BD004000582400002090B585B070
:104EAC0000AFFFF7FAF978607B68002B0AD1FFF7A7
:104EBC00B6F903461B0903F00F032B4A52F82330B3
:104ECC00FB604BE07B68042B02D1284BFB6045E078
:104EDC007B68082B0AD1FEF7CFFF0346012B02D1CA
:104EEC00224BFB603AE0224BFB6037E0FFF7B9FA4C
:104EFC0038603B68022B03D03B68032B03D00DE0DA
:104F0C001A4BBB6015E0FEF7B7FF0346012B02D12D
:104F1C00164BBB600DE0164BBB600AE0FFF77FF948
:104F2C0003461B0903F00F030F4A52F82330BB60F2
:104F3C0000BFFFF771FA0246BB6803FB02F4FFF7F0
:104F4C0084FA03461B090133B4FBF3F4FFF771FA3F
:104F5C0003465B0F0133B4FBF3F3FB60FB681846AD
:104F6C001437BD4690BD00BFB0A500080024F40066
:104F7C000048E80198B500AFFFF790FF0446FFF733
:104F8C0001FA03461B0903F00F03034A52F82330BE
:104F9C00B4FBF3F3184698BD70A5000890B585B026
:104FAC0000AF78607B68B02B03D9154BDB6AFB60D4
:104FBC0007E07B681B0903F00F03114A52F82330FA
:104FCC00FB60FFF7EBF903461B0903F00F030D4AD7
:104FDC0052F82330FA68B2FBF3F3BB60BB680A4AA1
:104FEC00A2FB03239C0CFEF739FF0346194620460F
:104FFC0000F00CF8034618461437BD4690BD00BFB0
:10500C00B0A5000870A5000883DE1B4390B593B0D3
:10501C0000AF78603960374B07F128040FCB84E878
:10502C000F00354A07F11C0307CA83E80700334B0E
:10503C0007F10C040FCB84E80F0000237B643B6862
:10504C00B3F5007F1AD100233B6413E03B6C9B004B
:10505C0048333B4453F8203C7A689A4207D83B6C5F
:10506C009B0048333B4453F83C3C7B6420E03B6C56
:10507C0001333B643B6C032BE8D919E00023FB6341
:10508C0013E0FB6B9B0048333B4453F82C3C7A6891
:10509C009A4207D8FB6B9B0048333B4453F83C3C8B
:1050AC007B6405E0FB6B0133FB63FB6B022BE8D9E4
:1050BC00134B1B6823F0070211497B6C13430B60E5
:1050CC00FEF7F4F8B86308E0FEF7F0F80246BB6BA5
:1050DC00D31A022B01D9032307E0094B1B6803F0F9
:1050EC0007037A6C9A42EFD1002318464C37BD4621
:1050FC0090BD00BFC0A30008D0A30008DCA300082B
:10510C000040005880B400AF4FF0B043D3F890305B
:10511C0003F00103012B01D1012300E00023184609
:10512C00BD465DF8047B704780B400AF4FF0B043D0
:10513C00D3F8903003F00203022B01D1012300E0DD
:10514C0000231846BD465DF8047B704780B483B0DD
:10515C0000AF78604FF0B043D3F8943023F4404262
:10516C004FF0B0417B681343C1F8943000BF0C374B
:10517C00BD465DF8047B704780B483B000AF7860A7
:10518C004FF0B0435B6A23F003024FF0B0417B68F1
:10519C0013434B6200BF0C37BD465DF8047B704770
:1051AC0080B483B000AF78604FF0B0435B6A23F0FB
:1051BC0030024FF0B0417B6813434B6200BF0C3799
:1051CC00BD465DF8047B704780B483B000AF786057
:1051DC004FF0B043D3F8883023F003024FF0B041C6
:1051EC007B681343C1F8883000BF0C37BD465DF8AF
:1051FC00047B704780B483B000AF78604FF0B0434D
:10520C00D3F8883023F440624FF0B0417B681343ED
:10521C00C1F8883000BF0C37BD465DF8047B704781
:10522C0080B483B000AF78604FF0B043D3F88820DF
:10523C007B681B0903F47F23DB431A407B681B014B
:10524C0003F47F234FF0B0411343C1F8883000BF03
:10525C000C37BD465DF8047B704780B483B000AF5B
:10526C0078604FF0B043D3F888207B681B0C1B048C
:10527C00DB431A407B681B044FF0B0411343C1F869
:10528C00883000BF0C37BD465DF8047B704780B496
:10529C0083B000AF78604FF0B043D3F8883023F47C
:1052AC0040024FF0B0417B681343C1F8883000BF17
:1052BC000C37BD465DF8047B704780B483B000AFFB
:1052CC0078604FF0B043D3F8883023F040424FF071
:1052DC00B0417B681343C1F8883000BF0C37BD4622
:1052EC005DF8047B704780B483B000AF78604FF0FA
:1052FC00B043D3F8883023F040624FF0B0417B6864
:10530C001343C1F8883000BF0C37BD465DF8047BF1
:10531C00704780B582B000AF78607868FFF7E3FF24
:10532C0000BF0837BD4680BD80B483B000AF786045
:10533C004FF0B043D3F8883023F040524FF0B041D7
:10534C007B681343C1F8883000BF0C37BD465DF84D
:10535C00047B704780B483B000AF78604FF0B043EB
:10536C00D3F8903023F440724FF0B0417B68134374
:10537C00C1F8903000BF0C37BD465DF8047B704718
:10538C0080B400AF4FF0B043D3F8903003F44073C7
:10539C001846BD465DF8047B704780B400AF4FF0F3
:1053AC00B043D3F890304FF0B04243F48033C2F89E
:1053BC00903000BFBD465DF8047B704780B400AFF1
:1053CC004FF0B043D3F890304FF0B04223F4803319
:1053DC00C2F8903000BFBD465DF8047B704780B4C6
:1053EC0000AF4FF0B0431B684FF0B04243F0806306
:1053FC00136000BFBD465DF8047B704780B400AFFE
:10540C004FF0B0431B684FF0B04223F08063136041
:10541C0000BFBD465DF8047B704780B400AF4FF011
:10542C00B0431B6803F00063B3F1006F01D101239B
:10543C0000E000231846BD465DF8047B704780B53C
:10544C0088B000AF78600023FB770023BB777B68C4
:10545C001B6803F04003002B34D07B681B6BB3F547
:10546C00400F21D0B3F5400F1BD8B3F5000F1DD062
:10547C00B3F5000F15D8002B0BD0B3F5800F10D15E
:10548C004FF0B043DB684FF0B04243F48033D3604D
:10549C000DE07B680433184600F047F90346FB77B0
:1054AC0005E00123FB7702E000BF00E000BFFB7FBB
:1054BC00002B05D17B681B6B1846FFF7E8FE01E05B
:1054CC00FB7FBB777B681B6803F40063002B46D023
:1054DC00FFF756FFB8617B681B6CBA699A423CD0E7
:1054EC00FEF7ACFCBB69002B05D17B681B6C184626
:1054FC00FFF730FF2EE04FF0B043D3F890307B61D4
:10550C00FFF74BFFFFF75AFF7B6923F440727B6870
:10551C001B6C13437B614FF0B0427B69C2F8903037
:10552C00FFF7F0FD0346012B14D1FDF7BFFE3861E8
:10553C000BE0FDF7BBFE02463B69D31A41F2883201
:10554C00934202D90323FB7704E0FFF7EDFD0346FA
:10555C00012BEED1FB7FBB7701E0FB7FBB777B6838
:10556C001B6803F00103002B04D07B689B69184671
:10557C00FFF72AFE7B681B6803F00203002B04D0A4
:10558C007B68DB691846FFF735FE7B681B6803F008
:10559C001003002B04D07B689B6A1846FFF75DFE56
:1055AC007B681B6803F02003002B04D07B68DB6A4C
:1055BC001846FFF752FE7B681B6803F00403002BB0
:1055CC0004D07B681B6A1846FFF72AFE7B681B68B1
:1055DC0003F00803002B04D07B685B6A1846FFF7C6
:1055EC001FFE7B681B6803F48073002B22D07B6842
:1055FC005B6B1846FFF78DFE7B685B6BB3F1006F3E
:10560C0007D14FF0B043DB684FF0B04243F08073EA
:10561C00D3607B685B6BB3F1806F0BD17B68043319
:10562C00184600F0DDF80346FB77FB7F002B01D01A
:10563C00FB7FBB777B681B6803F40073002B2BD0BC
:10564C007B689B6BB3F1804F08D07B689B6BB3F18D
:10565C00004F03D07B689B6B002B05D17B689B6B49
:10566C001846FFF72AFE0AE07B689B6B23F08053F9
:10567C00FB600020FFF721FEF868FFF734FE7B6823
:10568C009B6BB3F1C05F07D14FF0B043DB684FF0B9
:10569C00B04243F08073D3607B681B6803F4806373
:1056AC00002B22D07B68DB6B1846FFF73DFE7B6836
:1056BC00DB6BB3F1005F07D14FF0B043DB684FF009
:1056CC00B04243F48033D3607B68DB6BB3F1805F13
:1056DC000BD17B680433184600F0DDF80346FB77EA
:1056EC00FB7F002B01D0FB7FBB777B681B6803F42F
:1056FC008053002B04D07B685B6C1846FFF726FDAB
:10570C007B681B6803F40053002B09D07B68DB6CAF
:10571C001846FFF745FD7B689B6C1846FFF72CFD80
:10572C00BB7F18462037BD4680BD80B584B000AF26
:10573C0078600023FB73FFF761FEFDF7B7FDB860DF
:10574C0009E0FDF7B3FD0246BB68D31A022B02D960
:10575C000323FB7304E0FFF760FE0346002BF0D13C
:10576C00FB7B002B37D14FF0B0431B6923F4FE4277
:10577C007B681B681B024FF0B04113430B614FF069
:10578C00B0431B6923F478127B685B684FF0B0411F
:10579C0013430B61FFF723FEFDF788FDB86009E0AA
:1057AC00FDF784FD0246BB68D31A022B02D90323F2
:1057BC00FB7304E0FFF731FE0346012BF0D1FB7BBA
:1057CC00002B08D14FF0B0431A697B681B694FF06E
:1057DC00B04113430B61FB7B18461037BD4680BDAF
:1057EC0080B584B000AF78600023FB73FFF706FE32
:1057FC00FDF75CFDB86009E0FDF758FD0246BB689B
:10580C00D31A022B02D90323FB7304E0FFF705FE26
:10581C000346002BF0D1FB7B002B37D14FF0B0436C
:10582C001B6923F4FE427B681B681B024FF0B041DE
:10583C0013430B614FF0B0431B6923F060627B682C
:10584C009B684FF0B04113430B61FFF7C8FDFDF7A8
:10585C002DFDB86009E0FDF729FD0246BB68D31A9F
:10586C00022B02D90323FB7304E0FFF7D6FD03469A
:10587C00012BF0D1FB7B002B08D14FF0B0431A6900
:10588C007B681B694FF0B04113430B61FB7B1846DF
:10589C001037BD4680BD80B584B000AF7860002362
:1058AC00FB73FFF7ABFDFDF701FDB86009E0FDF7F9
:1058BC00FDFC0246BB68D31A022B02D90323FB73EF
:1058CC0004E0FFF7AAFD0346002BF0D1FB7B002B75
:1058DC0037D14FF0B0431B6923F4FE427B681B6841
:1058EC001B024FF0B04113430B614FF0B0431B69E7
:1058FC0023F060427B68DB684FF0B04113430B61CF
:10590C00FFF76DFDFDF7D2FCB86009E0FDF7CEFCAA
:10591C000246BB68D31A022B02D90323FB7304E0A3
:10592C00FFF77BFD0346012BF0D1FB7B002B08D14D
:10593C004FF0B0431A697B681B694FF0B0411343B9
:10594C000B61FB7B18461037BD4680BD80B582B01D
:10595C0000AF78607B68002B01D1012327E07B68C6
:10596C005B7ADBB2002B05D17B6800221A72786857
:10597C00FCF70EFB7B6802225A727B681B681B6863
:10598C0023F020017B685A687B681B680A431A6005
:10599C007B681B681A687B681B6842F004021A60FB
:1059AC007B6801225A727B680022DA600023184659
:1059BC000837BD4680BD000080B584B000AF78606C
:1059CC007B68002B01D101239FE07B6893F8213089
:1059DC00DBB2002B06D17B68002283F8202078688C
:1059EC00FCF700FB7B68022283F82120494BDB6823
:1059FC0003F01003102B7ED07B681B68CA225A62FE
:105A0C007B681B6853225A62786800F0ABF8034637
:105A1C00002B0AD07B681B68FF225A627B68042229
:105A2C0083F821200123FB7367E07B681B689B686C
:105A3C007A68126823F4E00323F0400393607B68D8
:105A4C001B6899687B685A687B681B691A437B687A
:105A5C009B691A437B681B680A439A607B681B68C6
:105A6C007A68D2681A617B681B6819697B689B68C5
:105A7C001A047B681B680A431A617B681B68DA6826
:105A8C007B681B6822F08002DA607B681B68DA6C2A
:105A9C007B681B6822F00302DA647B681B68D96C94
:105AAC007B68DA697B685B691A437B681B680A430D
:105ABC00DA647B681B689B6803F02003002B13D10E
:105ACC00786800F029F80346002B0DD07B681B6822
