:020000040800F2
:10000000000003207D250008CD220008D32200082F
:10001000D9220008DF220008E522000800000000C5
:10002000000000000000000000000000EB220008BB
:10003000F92200080000000007230008152300082B
:10004000D5250008D5250008D5250008212300085E
:10005000D5250008D5250008D5250008D525000898
:10006000D5250008D5250008D5250008D525000888
:10007000D5250008D5250008D5250008D525000878
:10008000D5250008D5250008D5250008D525000868
:10009000D5250008D5250008D5250008D525000858
:1000A000D5250008D5250008D5250008D525000848
:1000B000D5250008D52500082D230008D5250008E2
:1000C000D5250008D5250008D5250008D525000828
:1000D000D5250008D5250008D5250008D525000818
:1000E000D5250008D5250008D5250008D525000808
:1000F000412300084D230008592300086523000808
:10010000D5250008D5250008D5250008D5250008E7
:10011000D5250008D5250008D5250008D5250008D7
:10012000D5250008D5250008D5250008D5250008C7
:0C013000D5250008D5250008D5250008BD
:1001400010B5054C237833B9044B13B10448AFF311
:1001500000800123237010BD5C0900200000000016
:1001600050B0000808B5034B1BB103490348AFF377
:10017000008008BD000000006009002050B00008A9
:10018000034613F8012B002AFBD1181A01387047D7
:1001900001F0FF01102A2BDB10F0070F08D010F838
:1001A000013B013A8B422DD010F0070F42B3F6D13C
:1001B000F0B441EA012141EA014122F007047FF055
:1001C00000070023F0E80256083C85EA010586EAAC
:1001D000010685FA47F5A3FA87F586FA47F6A5FAE8
:1001E00087F68EB9EED1F0BC01F0FF0102F00702F4
:1001F00032B110F8013B013A83EA010313B1F8D19F
:100200000020704701387047002D06BF354603387F
:10021000073815F0010F07D1013015F4807F02BFB8
:10022000013015F4C03F0130F0BC0138704700BF09
:1002300053B94AB9002908BF00281CBF4FF0FF314D
:100240004FF0FF3000F074B9ADF1080C6DE904CE49
:1002500000F006F8DDF804E0DDE9022304B07047A1
:100260002DE9F047089D04468E46002B4DD18A4269
:10027000944669D9B2FA82F252B101FA02F3C2F19C
:10028000200120FA01F10CFA02FC41EA030E94402D
:100290004FEA1C48210CBEFBF8F61FFA8CF708FB4E
:1002A00016E341EA034306FB07F199420AD91CEB26
:1002B000030306F1FF3080F01F81994240F21C8158
:1002C000023E63445B1AA4B2B3FBF8F008FB1033A0
:1002D00044EA034400FB07F7A7420AD91CEB0404D5
:1002E00000F1FF3380F00A81A74240F207816444A5
:1002F000023840EA0640E41B00261DB1D44000232A
:10030000C5E900433146BDE8F0878B4209D9002D8D
:1003100000F0EF800026C5E9000130463146BDE817
:10032000F087B3FA83F6002E4AD18B4202D3824281
:1003300000F2F980841A61EB030301209E46002D30
:10034000E0D0C5E9004EDDE702B9FFDEB2FA82F285
:10035000002A40F09280A1EB0C014FEA1C471FFAE3
:100360008CFE0126200CB1FBF7F307FB131140EACA
:1003700001410EFB03F0884208D91CEB010103F197
:10038000FF3802D2884200F2CB804346091AA4B259
:10039000B1FBF7F007FB101144EA01440EFB00FE2D
:1003A000A64508D91CEB040400F1FF3102D2A64592
:1003B00000F2BB800846A4EB0E0440EA03409CE731
:1003C000C6F12007B34022FA07FC4CEA030C20FADE
:1003D00007F401FA06F31C43F9404FEA1C4900FAFE
:1003E00006F3B1FBF9F8200C1FFA8CFE09FB18117B
:1003F00040EA014108FB0EF0884202FA06F20BD9EE
:100400001CEB010108F1FF3A80F08880884240F23D
:100410008580A8F102086144091AA4B2B1FBF9F081
:1004200009FB101144EA014100FB0EFE8E4508D97C
:100430001CEB010100F1FF346CD28E456AD9023801
:10044000614440EA0840A0FB0294A1EB0E01A142E6
:10045000C846A64656D353D05DB1B3EB080261EB54
:100460000E0101FA07F722FA06F3F1401F43C5E92E
:10047000007100263146BDE8F087C2F12003D84064
:100480000CFA02FC21FA03F3914001434FEA1C47A6
:100490001FFA8CFEB3FBF7F007FB10360B0C43EA98
:1004A000064300FB0EF69E4204FA02F408D91CEB48
:1004B000030300F1FF382FD29E422DD90238634446
:1004C0009B1B89B2B3FBF7F607FB163341EA0341E6
:1004D00006FB0EF38B4208D91CEB010106F1FF3835
:1004E00016D28B4214D9023E6144C91A46EA00462C
:1004F00038E72E46284605E70646E3E61846F8E6BE
:100500004B45A9D2B9EB020864EB0C0E0138A3E706
:100510004646EAE7204694E74046D1E7D0467BE7E7
:10052000023B614432E7304609E76444023842E75F
:10053000704700BF80B584B000AF786039607B68D9
:100540003A681A607B6800229A807B680022DA8011
:1005500007F10E031A460F21786800F0A3F803464E
:10056000FB73FB7B002B01D00A234AE0BB7BE02B13
:1005700001D00A2345E007F10E031A4610217868DE
:1005800000F090F80346FB73FB7B002B01D00B239C
:1005900037E0BB7B0D2B01D00B2332E082233B7273
:1005A0000C237B720123BB7207F108031A46412119
:1005B000786800F055F80346FB73FB7B002B01D0F5
:1005C00014231EE007F1080301331A46422178681C
:1005D00000F046F80346FB73FB7B002B01D015238C
:1005E0000FE007F1080302331A464321786800F050
:1005F00037F80346FB73FB7B002B01D0162300E08A
:10060000002318461037BD4680BD80B584B000AFCA
:10061000786007F1080204235421786800F064F838
:100620000346FB73FB7B002B01D01E2314E07B7A77
:100630001B021AB23B7A1BB213431BB29AB27B68FD
:100640009A80FB7A1B021AB2BB7A1BB213431BB20D
:100650009AB27B68DA80002318461037BD4680BD09
:1006600080B58AB004AFF8600B467A60FB72FB6815
:100670001868FB7A9AB24FF0FF330293012301937B
:100680007B6800930123B62102F00EFC0346FB7544
:10069000FB7D002B01D0FB7D00E0002318461837BE
:1006A000BD4680BD80B58AB004AFF8600B467A6065
:1006B000FB72FB681868FB7A9AB24FF0FF33029323
:1006C000012301937B6800930123B62102F000FD12
:1006D0000346FB75FB7D002B01D0FB7D00E0002372
:1006E00018461837BD4680BD80B58AB004AFF860A3
:1006F0007A601A460B46FB721346BB72FB68186899
:10070000FB7A9AB2BB7A9BB24FF0FF310291019310
:100710007B6800930123B62102F0DAFC0346FB75E7
:10072000FB7D002B01D0FB7D00E00023184618372D
:10073000BD4680BDB0B588B000AF0B4B3C1D1D461B
:100740000FCD0FC495E8070003C422800234130CB8
:10075000237008F0A9FA3B1D184607F044FD00BFBE
:100760002037BD46B0BD00BF68B0000880B483B07C
:1007700000AF7860074BD3F8803023F007020549BB
:100780007B681343C1F8803000BF0C37BD465DF86D
:10079000047B70470004005880B483B000AF7860D9
:1007A000064BD3F8902005497B681343C1F890307D
:1007B00000BF0C37BD465DF8047B70470008005849
:1007C00080B483B000AF78604FF0B0430A4AC3F8FA
:1007D0009C204FF0B043D3F89C3023F47C527B68CC
:1007E0001B024FF0B0411343C1F89C3000BF0C37DF
:1007F000BD465DF8047B7047FECAFECA80B483B074
:1008000000AF78604FF0B0439B6823F400424FF094
:10081000B0417B6813438B6000BF0C37BD465DF869
:10082000047B704780B400AF4FF0B043D3F89030F2
:100830004FF0B04243F48033C2F8903000BFBD4661
:100840005DF8047B704780B400AF4FF0B043D3F83D
:1008500090304FF0B04223F48033C2F8903000BFA4
:10086000BD465DF8047B704780B400AF4FF0B043E5
:10087000D3F8943003F08063B3F1806F01D101238A
:1008800000E000231846BD465DF8047B704780B445
:1008900000AF4FF0B043D3F8943003F08053B3F17E
:1008A000805F01D1012300E000231846BD465DF8BA
:1008B000047B704780B485B000AF78604FF0B043E0
:1008C0001A6D4FF0B0417B6813430B654FF0B04396
:1008D0001A6D7B681340FB60FB6800BF1437BD4690
:1008E0005DF8047B7047000080B400AF044B1B68C8
:1008F000C3F30B031846BD465DF8047B704700BF89
:10090000002004E080B400AF044B1B681B0C9BB2BA
:100910001846BD465DF8047B704700BF002004E028
:1009200080B483B000AF786039607B685A683B68F8
:100930001B041A437B685A6000BF0C37BD465DF844
:10094000047B704780B483B000AF786039607B6807
:100950005A683B681A437B685A6000BF0C37BD4633
:100960005DF8047B704780B483B000AF7860396075
:100970007B685A693B681B041A437B685A6100BF55
:100980000C37BD465DF8047B704780B483B000AF80
:10099000786039607B685A693B681A437B685A61A2
:1009A00000BF0C37BD465DF8047B704780B483B050
:1009B00000AF786039607B683A689A6000BF0C3796
:1009C000BD465DF8047B704780B483B000AF7860AB
:1009D00039607B683A689A6100BF0C37BD465DF8A4
:1009E000047B704780B400AF054B1B69044A23F0B9
:1009F0000403136100BFBD465DF8047B704700BF70
:100A000000ED00E080B483B000AF78607B68FF2227
:100A10005A6200BF0C37BD465DF8047B704780B456
:100A200083B000AF78607B68CA225A627B68532229
:100A30005A6200BF0C37BD465DF8047B704780B436
:100A400083B000AF786039607B689B6823F0070251
:100A50003B681A437B689A6000BF0C37BD465DF85F
:100A6000047B704780B500AF044B4FF400421A611D
:100A700000F024F800F064F800BF80BD004000588A
:100A800080B500AF00F070F800F088F8034900204E
:100A900000F0D4FD00F090F800BF80BDE00A002017
:100AA00080B400AF00BFBD465DF8047B704780B5E1
:100AB00000AF5020FFF770FE00BF80BD80B500AFD3
:100AC00000F004F800F01AF800BF80BD80B500AF58
:100AD000FFF7CAFE0346002B0DD0FFF7D8FE0346F2
:100AE000002B08D103F08CFB03F08AFBFFF79AFE82
:100AF000FFF7A9FE00BF00BF80BD000080B500AFBA
:100B00004FF48010FFF7D6FE3F210C48FFF74EFF51
:100B10003F210A48FFF758FF3F210848FFF700FF31
:100B20003F210648FFF71FFF3F210448FFF70AFF58
:100B30003F210248FFF729FF00BF80BD000C00588D
:100B400080B582B000AF002008F03AF978607B6889
:100B5000002B05D07B689B791846FFF731FE00BF5C
:100B600000BF0837BD4680BD80B500AFFFF798FFD6
:100B7000FFF79DFF00F002F800BF80BD80B500AF19
:100B80000548FFF74CFF00210348FFF758FF0248D4
:100B9000FFF738FF00BF80BD0028004080B500AFE0
:100BA0004FF40040FFF72AFE09F004F80420FFF795
:100BB000DDFD00BF80BD000080B588B000AF07F04C
:100BC000BDFE114A0021042009F032F90F4B3B60B1
:100BD0000F4B7B603B4619460E4807F075FD0E4BE8
:100BE000BB600E4BFB600E4B3B6140F23C537B61A4
:100BF00007F10803184607F0E3FF07F099FE00BF6E
:100C00002037BD4680BD00BF01870008DC050020FD
:100C1000250C00083D0C0008F4070020E806002021
:100C2000A000002080B483B000AF0346FB7100BF7A
:100C30000C37BD465DF8047B7047000080B588B076
:100C400000AF78607B685B680B33FB61FB691B88D6
:100C50009BB2A3F51243072B1FD801A252F823F031
:100C6000810C0008930C00089B0C00089B0C0008EA
:100C70009B0C00089B0C00089B0C00089B0C0008B8
:100C800007F10C03184607F0DBFA786800F01BF850
:100C900004E0786800F006F800E000BF00BF2037ED
:100CA000BD4680BD80B485B000AF78607B685B686E
:100CB0000B33FB60FB680233BB6000BF1437BD46DB
:100CC0005DF8047B704780B58AB000AF786007F1AB
:100CD000080300221A605A609A60DA6000237B627F
:100CE00000233B627B685B680B33FB61FB6902336B
:100CF000BB61BB691B78002B1DD1FFF71BFD0F23C8
:100D00003B727F23BB72FFF7FDFD78627B6A9BB26B
:100D1000BB82FFF7E9FD38623B6A9BB2FB8207F1B9
:100D20000803184607F076FA08F054F9002101206C
:100D300008F052FF07E0BB691B78012B03D17B68E9
:100D400000221A7000BF00BF2837BD4680BD80B5A5
:100D500084B000AF786001F0ADFCB8607B68FB60E8
:100D6000FB68B3F1FF3F0AD001F0BCFC03461A4612
:100D7000FB681344FB6002E0FFF734FE30BF01F074
:100D800099FC0246BB68D31AFA689A42F4D800BFAD
:100D900000BF1037BD4680BD80B500AF4FF0FF30BB
:100DA00008F04AFF00BF80BD80B400AF00BFBD4661
:100DB0005DF8047B704780B582B000AF7860396021
:100DC0004FF0FF3008F038FF00BF0837BD4680BD48
:100DD00080B582B000AF78600021042009F04AF8A5
:100DE00000BF0837BD4680BD80B582B000AF7860D7
:100DF000022009F0ABF800BF0837BD4680BD80B5C2
:100E000082B000AF7860022009F0C0F800BF083758
:100E1000BD4680BD80B483B000AF7860064BD3F888
:100E2000802005497B681343C1F8803000BF0C3730
:100E3000BD465DF8047B70470008005880B483B05D
:100E400000AF7860054B1A6804497B6813430B6058
:100E500000BF0C37BD465DF8047B704700080058A2
:100E600080B483B000AF0D4B9B6A9BB27B600B4B91
:100E70009B6A9BB23B6005E03B687B60074B9B6ACB
:100E80009BB23B607A683B689A42F5D13B68184652
:100E90000C37BD465DF8047B704700BF002800405A
:100EA00080B485B000AF03460A46FB711346BB71A0
:100EB000BA791D4913465B001344DB000B4415331C
:100EC0001B78FB73FB7B062B09D0FA7B1649134674
:100ED0005B001344DB000B441433FA791A70FA797F
:100EE000114913465B001344DB000B441533FA7BB6
:100EF0001A70FA790C4913465B001344DB000B446B
:100F00001433BA791A70BA79074913465B0013444F
:100F1000DB000B441533FA791A7000BF1437BD4655
:100F20005DF8047B704700BF7809002080B485B06D
:100F300000AF03460A46FB711346BB71294B1B7871
:100F4000DBB2BA799A4232D0BA79274913465B00AC
:100F50001344DB000B4414331B78FB73FA7B2249E8
:100F600013465B001344DB000B441533FA791A7007
:100F7000FA791D4913465B001344DB000B4415331B
:100F8000BA791A70FA79184913465B001344DB00EA
:100F90000B441433FA7B1A70BA79134913465B0079
:100FA0001344DB000B441433FA791A7014E0FA7915
:100FB0000D4913465B001344DB000B441533BA792B
:100FC0001A70BA79084913465B001344DB000B44DE
:100FD0001433FA791A7000BF1437BD465DF8047BEC
:100FE000704700BF080A00207809002080B584B04F
:100FF00000AF0346FB714E4B1B78DBB2062B18D1BA
:101000004B4B1B78DAB24B4B1A70494AFB79137081
:10101000FA79494913465B001344DB000B4415334E
:1010200006221A70454B4FF0FF321A600023FB81F5
:1010300078E000F009F90346FB81FA793E4913464E
:101040005B001344DB000B4408331968FB89FA7911
:101050001944394813465B001344DB00034408334A
:101060001960FA79344913465B001344DB000B44E2
:1010700008331B68BB602E4B1B78DBB219462E4A27
:101080000B465B000B44DB00134408331B68BA6853
:101090009A4237D3264B1B787B737A7B26491346BB
:1010A0005B001344DB000B4415331B783B7313E0E8
:1010B0007A7B214913465B001344DB000B44153354
:1010C0001B787B737A7B1C4913465B001344DB005F
:1010D0000B4415331B783B733B7B062B0BD03A7BC1
:1010E000154913465B001344DB000B4408331B68AF
:1010F000BA689A42DCD27A7BFB7911461846FFF730
:10110000CFFE0FE00A4B1B78DAB2FB791146184686
:10111000FFF70CFF064B1B78DAB2064B1A70044A35
:10112000FB791370FB8918461037BD4680BD00BFA0
:10113000080A0020090A0020780900200C0A002073
:1011400080B485B000AF03460A46FB711346BB71FD
:10115000394B1B78DBB2FA799A4211D1364B1B78A6
:10116000DAB2364B1A70FA79354913465B001344EC
:10117000DB000B4415331B78DAB22F4B1A703EE0BC
:10118000FA792F4913465B001344DB000B441433F8
:101190001B78FB73FA792A4913465B001344DB0082
:1011A0000B4415331B78BB73F979FA7B24480B4643
:1011B0005B000B44DB00034415331B78D8B2204995
:1011C00013465B001344DB000B44153302461A70D0
:1011D000BB7B062B13D0F979BA7B19480B465B0011
:1011E0000B44DB00034414331B78D8B21449134674
:1011F0005B001344DB000B44143302461A70FA7987
:101200000F4913465B001344DB000B440C330122EF
:101210001A70094B1B78DBB2062B07D1BB79002B68
:1012200004D1084B4FF0FF321A6000BF00BF1437E3
:10123000BD465DF8047B7047080A0020090A0020BB
:10124000780900200C0A002080B582B000AF1A4B4C
:101250001B68B3F1FF3F26D0FFF702FE7860164B04
:101260001B687A689A4205D8134B1A687B68D31AB0
:101270007B600AE0114B1B881A467B68D31A3B60DF
:101280000D4B1B683A6813447B600D4B1B781A4664
:101290007B6802FB03F37B600A4B1B781A467B6872
:1012A000D3407B6001E000237B607B689BB21846E3
:1012B0000837BD4680BD00BF0C0A0020140A00207C
:1012C000120A0020110A002080B582B000AF034648
:1012D000FB80FB88002B08D1FFF7C2FD0346214AA3
:1012E0001360032001F087FB39E0FB88012B03D852
:1012F0001D4B1B78012B02D0FB88013BFB8000BFFC
:101300001A4B1B68DB6803F00403002BF8D0174B63
:101310001B68DB68DAB2154B1B6862F49062DA6016
:10132000134B4FF40022DA60032001F072FB114BE3
:101330005B691B0C1B04FA880E4913434B61FFF7D2
:101340008FFD0346074A1360084B1B689A68074BDA
:101350001B6842F480629A60AFF3008000BF0837D8
:10136000BD4680BD0C0A0020110A0020E00A0020C2
:10137000000800580028004080B584B000AF454BFD
:101380009B6803F48063B3F5806F07D100BF424BC5
:101390001B68DB6803F00403002BF8D13E4B1B688D
:1013A0009A683D4B1B6822F480629A603B4B1B7825
:1013B000FB73FA7B3A4913465B001344DB000B4492
:1013C00008331B68BB60FFF73FFF0346FB80FB88C9
:1013D000BA689A4205D20023BB81324B01221A70AF
:1013E0004DE0FB88304A128892B213441A46BB681B
:1013F000934206D92C4B1B88BB812A4B00221A70C2
:101400003DE0BB689AB2FB88D31ABB81254B012211
:101410001A7034E0FA7B224913465B001344DB0068
:101420000B4408331A68FB889A420AD2FA7B1C499B
:1014300013465B001344DB000B44083300221A60A0
:1014400013E0FA7B164913465B001344DB000B44A0
:1014500008331968FB88FA7BC91A114813465B00E8
:101460001344DB00034408331960FA7B0C4913462C
:101470005B001344DB000B4415331B78FB73FB7BD1
:10148000062BC7D1BB891846FFF71EFF00BF1037D8
:10149000BD4680BD00280040E00A0020080A002068
:1014A00078090020100A0020160A002080B58AB0B2
:1014B00000AFEFF310837B617B697B6272B600BF84
:1014C000594B1B68CA225A62574B1B6853225A62F7
:1014D000554B1B689A68544B1B6822F480629A60D3
:1014E000524B1B7887F8233097F823205049134636
:1014F0005B001344DB000B440C331B78DBB2022B84
:101500006ED197F823204A4913465B001344DB0051
:101510000B441B68FB6197F82320454913465B0089
:101520001344DB000B4410331B68BB61414B1B7839
:10153000DBB2002B4CD097F823203D4913465B00CB
:101540001344DB000B440D331B78DBB2012B24D199
:1015500097F8233001211846FFF7F2FD7B6A3B61C3
:101560003B6983F3108800BF97F823203049134666
:101570005B001344DB000B4404331A6897F82330F4
:101580001146184600F0B8F9274B1B68CA225A6268
:10159000254B1B6853225A6212E07B6AFB60FB6892
:1015A00083F3108800BF97F82330184600F020F925
:1015B0001D4B1B68CA225A621B4B1B6853225A627E
:1015C00097F82330FA691946B86900F01BFA22E04F
:1015D000FFF7D2FE7B6ABB60BB6883F310881AE01A
:1015E00000BF114B1B68DB6803F00403002BF8D02D
:1015F0000D4B1B68DB68DAB20B4B1B6862F4906220
:10160000DA600D4B4FF40022DA607B6A7B607B6806
:1016100083F3108800BF044B1B68FF225A6200BF8F
:101620002837BD4680BD00BFE00A0020080A002020
:1016300078090020100A00200008005880B588B002
:1016400000AF03463960FB715E4B1B68CA225A62C9
:101650005C4B1B6853225A625B4B9B685A4A43F0AF
:1016600020039360584B9B68DBB203F00703DBB2A7
:10167000C3F10403DAB2554B1A70534B1B6903F4E0
:10168000FE034FF4FE023A613A6992FAA2F2FA605E
:10169000FA687A617A69002A01D1202203E07A6926
:1016A000B2FA82F2D2B2D340DBB20133DAB2484BA3
:1016B0001A70454B1B699BB2C3F30E039BB20133F7
:1016C0009AB2444B1A80434B1B88013B404A127824
:1016D00002FB03F3A3F5A0733C4A1278D340BB612D
:1016E000BB694FF6FE72934204D93B4B4FF6FF7233
:1016F0001A8003E0BB699AB2374B1A804FF400207E
:10170000FFF79CFB4FF40020FFF784FBFB79002BD5
:101710003DD1324B01221A70314B4FF0FF321A602B
:101720000023FB770CE0FA7F2E4913465B0013443D
:10173000DB000B440C3300221A70FB7F0133FB7774
:10174000FB7F052BEFD9284B06221A701D4B1B6817
:101750009A681C4B1B6822F480629A60194B1B68C4
:10176000DB68DAB2174B1B6862F49062DA601F4BD9
:101770004FF40022DA60032001F04BF9114B1B6893
:101780009A68104B1B6842F480429A6009E00D4B46
:101790001B68DB6803F48063002B02D0032001F098
:1017A0002AF9084B1B68FF225A62002203210320FA
:1017B00001F0DFF8032001F0F6F800BF2037BD4646
:1017C00080BD00BFE00A002000280040110A002070
:1017D000120A0020140A0020160A0020100A002015
:1017E0000C0A002078090020080A00200008005890
:1017F00080B586B000AF0346FB71EFF31083FB604A
:10180000FB687B6172B600BF032001F0DAF8344B4D
:101810001B68CA225A62324B1B6853225A62FA79F9
:10182000304913465B001344DB000B440C331B7838
:10183000DBB2022B42D1FB7900211846FFF780FC76
:10184000294B1B78FB74FB7C062B2FD1274B9B6805
:1018500003F48063B3F5806F07D100BF204B1B6892
:10186000DB6803F00403002BF8D11D4B1B689A685A
:101870001B4B1B6822F480629A6000BF184B1B68E8
:10188000DB6803F00403002BF8D0154B1B68DB6802
:10189000DAB2134B1B6862F49062DA60144B4FF4B7
:1018A0000022DA60032001F0B4F807E0114B1B7846
:1018B000DBB2FA7C9A4201D0FFF75EFD084B1B6851
:1018C000FF225A62032001F06EF87B69BB60BB689F
:1018D00083F3108800BF00BF1837BD4680BD00BF2E
:1018E000E00A002078090020080A002000280040B3
:1018F00000080058090A002080B586B000AF0346F2
:101900003960FB71FA793B4913465B001344DB00F5
:101910000B440C331B78DBB2022B03D1FB79184646
:10192000FFF766FFEFF31083FB60FB687B6172B625
:1019300000BF032001F045F82F4B1B68CA225A62F2
:101940002D4B1B6853225A62FA792A4913465B00D1
:101950001344DB000B440C3302221A70FA79254938
:1019600013465B001344DB000B4408333A681A60EB
:10197000FA79204913465B001344DB000B4404331F
:101980003A681A60FB791846FFF730FB03467B8202
:101990001A4B1B787B741A4B1B78DBB27A7C9A4209
:1019A00002D0FFF7E9FC13E0FA79124913465B0015
:1019B0001344DB000B44083319687B8AFA79C91A8F
:1019C0000C4813465B001344DB00034408331960E2
:1019D000094B1B68FF225A62032000F0E4FF7B6979
:1019E000BB60BB6883F3108800BF00BF1837BD46DB
:1019F00080BD00BF78090020E00A0020080A00200E
:101A0000090A002080B584B000AFF8600B467A6008
:101A1000FB727B68984700BF1037BD4680BD80B41D
:101A200083B000AF78604FF0B043D3F8903023F02C
:101A300018024FF0B0417B681343C1F8903000BFEB
:101A40000C37BD465DF8047B704780B485B000AFAD
:101A500078604FF0B043DA6C4FF0B0417B681343CD
:101A6000CB644FF0B043DA6C7B681340FB60FB68DB
:101A700000BF1437BD465DF8047B704780B582B067
:101A800000AF00F0A9FDFEF7EDFF00F06DF800F0EB
:101A9000CDF800F02BF900F0F3F900F06FF900F049
:101AA000E5F800F09FF900F035F900F05FF92548FE
:101AB00008F040FB0A20FFF74AF923492348FEF7C4
:101AC00039FD0346FB71FB79002B08D0FB791946E1
:101AD0001F4808F02FFB1F4B00221A7007E0FB790C
:101AE00019461D4808F026FB1A4B01221A700022E5
:101AF0004FF48361194802F00FF90346002B01D01F
:101B000000F03AFAFEF7BCFFFFF746F9114B1B78DD
:101B1000002BF9D00F4B00221A700C48FEF775FD10
:101B20000346BB71BB79002B05D0BB7919460C4825
:101B300008F000FBE8E7054BDB881946094808F088
:101B4000F9FAE1E784B00008180A0020980B002099
:101B50009CB00008A00B0020C8B00008A80A002014
:101B6000FCB0000824B1000880B59AB000AF07F1BE
:101B7000200348220021184608F0D4FA3B1D002219
:101B80001A605A609A60DA601A615A619A6102F0CA
:101B900037FB1020FFF743FF234B1B6823F4C06380
:101BA000214A43F4007313601F4B1B6803F4C063A6
:101BB0003B603B6827233B624FF480337B62012309
:101BC000BB624FF48073FB620123FB6340233B63E2
:101BD00000233B64A0237B640023FB6407F1200304
:101BE000184602F0A1FE0346002B01D000F0C4F914
:101BF0006F237B600023BB600023FB6000233B61FD
:101C000000237B610023BB610023FB613B1D01219D
:101C1000184603F0FDF90346002B01D000F0ACF9A3
:101C200000BF6837BD4680BD0004005880B594B041
:101C300000AF3B4650220021184608F073FA4FF4DB
:101C400040533B604FF480437B640023BB6400231C
:101C5000FB643B46184603F018FE0346002B01D0F8
:101C600000F08AF900BF5037BD4680BD80B500AF97
:101C70001B4B1C4A1A601A4B1B4A5A60184B002215
:101C80009A60174B0122DA60154B00221A61144B3F
:101C900000225A61124B00229A61114B0022DA6134
:101CA0000F4B00221A620E4801F06EF80346002B1B
:101CB00001D000F061F90021094801F0F5FD03466B
:101CC000002B01D000F058F90021054801F037FE43
:101CD0000346002B01D000F04FF900BF80BD00BFCC
:101CE000180A002000540040BB7C700080B500AF93
:101CF000064B074A1A60054801F06EFE0346002BAA
:101D000001D000F039F900BF80BD00BF6C0A00208F
:101D1000000C005880B500AF124B134A1A60114BEB
:101D200000225A600F4B00229A600E4B4FF6FF7252
:101D30005A610C4B00221A620A4B00225A62094B6C
:101D400000229A62074B0022DA62064B00221A63D5
:101D5000044801F03FFF0346002B01D000F00CF9CE
:101D600000BF80BDA80A0020007C004080B400AF06
:101D700000BFBD465DF8047B7047000080B500AF32
:101D8000164B174A1A60154B00225A60134B0F224C
:101D90009A60124B47F6FF72DA60104B00221A610C
:101DA0000E4B00229A610D4B0022DA610B4B002290
:101DB0005A610A4803F0F0FF0346002B01D000F0FF
:101DC000DBF800220021054804F0E6F80346002B6A
:101DD00001D000F0D1F800BF80BD00BFE00A0020B4
:101DE0000028004080B500AF234B244A1A60224BE4
:101DF0004FF4E1325A60204B00229A601E4B0022C1
:101E0000DA601D4B4FF4C0621A611B4B0C225A6101
:101E1000194B00229A61184B0022DA61164B0022FE
:101E20001A62154B00225A62134B00229A62124822
:101E300004F08EF90346002B01D000F09DF800213C
:101E40000D4804F0DDFE0346002B01D000F094F8AD
:101E50000021094804F012FF0346002B01D000F0D6
:101E60008BF8054804F093FE0346002B01D000F0E8
:101E700083F800BF80BD00BF040B00200038014084
:101E800080B586B000AF3B1D00221A605A609A6090
:101E9000DA601A610420FFF7D8FD0220FFF7D5FDB4
:101EA0000120FFF7D2FD0820FFF7CFFD00222321FC
:101EB0001D4800F02DFF10237B600023BB60012331
:101EC000FB603B1D1946194800F0B2FD23237B60DF
:101ED0000123BB600023FB6000233B613B1D1946CF
:101EE000114800F0A5FD4FF4C0537B600223BB6096
:101EF0000023FB6000233B610A237B613B1D1946E5
:101F00004FF0904000F094FD03237B600023BB6002
:101F10000023FB603B1D1946054800F089FD00BF0A
:101F20001837BD4680BD00BF0004004800080048C7
:101F3000000C004880B483B000AF7860044B0122ED
:101F40001A7000BF0C37BD465DF8047B704700BFB8
:101F5000A00B002080B582B000AF7860391D4FF62D
:101F6000FF730122034804F043F97B6818460837E1
:101F7000BD4680BD040B002080B400AF72B600BF28
:101F8000FEE780B400AF4FF0B043D3F890304FF08D
:101F9000B04243F40043C2F8903000BFBD465DF844
:101FA000047B704780B485B000AF78604FF0B043D9
:101FB000DA6C4FF0B0417B681343CB644FF0B04311
:101FC000DA6C7B681340FB60FB6800BF1437BD46CA
:101FD0005DF8047B704780B485B000AF78604FF047
:101FE000B0431A6D4FF0B0417B6813430B654FF05F
:101FF000B0431A6D7B681340FB60FB6800BF143769
:10200000BD465DF8047B704780B485B000AF786052
:102010004FF0B0439A6D4FF0B0417B6813438B652E
:102020004FF0B0439A6D7B681340FB60FB6800BFC4
:102030001437BD465DF8047B704780B485B000AFAF
:1020400078604FF0B0431A6E4FF0B0417B68134395
:102050000B664FF0B0431A6E7B681340FB60FB6861
:1020600000BF1437BD465DF8047B704780B500AFF4
:102070004FF40020FFF7AFFF002200212E2000F0D8
:1020800078FC2E2000F08FFC00BF80BD80B59CB096
:1020900000AF786007F15C0300221A605A609A6012
:1020A000DA601A6107F10C0350220021184608F08B
:1020B00039F87B681B681B4A93422ED10423FB60CE
:1020C0004FF44033FB6207F10C03184603F0DDFBCD
:1020D0000346002B01D0FFF74FFF0220FFF762FFFE
:1020E0004FF44073FB6512233B6600237B6600239D
:1020F000BB660423FB6607F15C0319460A4800F03F
:1021000097FC4FF40010FFF77FFF002200211E20F4
:1021100000F02FFC1E2000F046FC00BF7037BD46CB
:1021200080BD00BF005400400004004880B582B06C
:1021300000AF78607B681B680D4A934213D14FF45F
:102140008010FFF748FF002200212C2000F011FC36
:102150002C2000F028FC002200212D2000F009FC9A
:102160002D2000F020FC00BF0837BD4680BD00BF19
:10217000000C005880B596B000AF786007F10803F6
:1021800050220021184607F0CDFF7B681B68114ADA
:1021900093421AD11023BB604FF00C133B6307F13D
:1021A0000803184603F071FB0346002B01D0FFF72C
:1021B000E3FE4FF00040FFF727FF002200212F2011
:1021C00000F0D7FB2F2000F0EEFB00BF5837BD46D4
:1021D00080BD00BF007C004080B596B000AF786045
:1021E00007F1080350220021184607F09BFF7B6887
:1021F0001B68124A93421DD14FF40063BB604FF439
:102200008073BB6407F10803184603F03EFB0346E6
:10221000002B01D0FFF7B0FEFFF7B3FE4FF4806054
:10222000FFF7F2FE00220021032000F0A2FB0320B2
:1022300000F0B9FB00BF5837BD4680BD0028004004
:1022400080B59CB000AF786007F15C0300221A6093
:102250005A609A60DA601A6107F10C03502200217B
:10226000184607F05FFF7B681B68164A934224D12B
:102270000123FB6000237B6207F10C03184603F087
:1022800004FB0346002B01D0FFF776FE4FF480409D
:10229000FFF7D3FE0220FFF785FEC023FB65022374
:1022A0003B6600237B660023BB660723FB6607F1C2
:1022B0005C031946044800F0BBFB00BF7037BD4605
:1022C00080BD00BF003801400004004880B400AF6A
:1022D000FEE780B400AFFEE780B400AFFEE780B455
:1022E00000AFFEE780B400AFFEE780B400AF00BFF0
:1022F000BD465DF8047B704780B400AF00BFBD46AB
:102300005DF8047B704780B400AF00BFBD465DF848
:10231000047B704780B500AF00F0B8F900BF80BD06
:1023200080B500AFFFF7C2F800BF80BD80B500AF39
:10233000024800F0E7FF00BF80BD00BF180A002080
:1023400080B500AF07F0F2FA00BF80BD80B500AFE6
:1023500007F024FB00BF80BD80B500AF00F0F0FCAB
:1023600000BF80BD80B500AF024801F057FD00BF3F
:1023700080BD00BFA80A002080B586B000AFF8601D
:10238000B9607A6000237B610AE0AFF30080014608
:10239000BB685A1CBA60CAB21A707B6901337B6190
:1023A0007A697B689A42F0DB7B6818461837BD462D
:1023B00080BD80B586B000AFF860B9607A60002358
:1023C0007B6109E0BB685A1CBA601B781846FFF7AE
:1023D000C1FD7B6901337B617A697B689A42F1DBDD
:1023E0007B6818461837BD4680BD80B483B000AF07
:1023F00078604FF0FF3318460C37BD465DF8047B1C
:10240000704780B483B000AF786039603B684FF4A8
:1024100000525A60002318460C37BD465DF8047B15
:10242000704780B483B000AF7860012318460C3742
:10243000BD465DF8047B704780B485B000AFF8609E
:10244000B9607A60002318461437BD465DF8047BF6
:102450007047000080B586B000AF7860144A154B15
:10246000D31A7B617B693B61134B1B68002B02D144
:10247000114B124A1A60104B1A687B6813443A6970
:102480009A4207D207F016FE03460C221A604FF05C
:10249000FF3309E0084B1B68FB60074B1A687B6839
:1024A0001344054A1360FB6818461837BD4680BDC3
:1024B0000000032000040000A40B0020680D002091
:1024C00080B400AF244BD3F88830234A43F4700320
:1024D000C2F888304FF0B0431B684FF0B04243F071
:1024E000010313604FF0B0434FF4E0229A604FF0C5
:1024F000B0431A684FF0B041184B13400B604FF0D7
:10250000B043D3F894304FF0B04223F00503C2F843
:1025100094304FF0B043D3F898304FF0B04223F0EE
:102520000103C2F898304FF0B0430D4ADA604FF023
:10253000B0430B4A1A614FF0B0431B684FF0B042F2
:1025400023F4802313604FF0B04300229A6100BF50
:10255000BD465DF8047B704700ED00E0FBFEF6FA37
:1025600000100422D458C4500433C4188C42F9D348
:102570007047036004308842FBD370470C4885469F
:10258000FFF79EFF0B480C490C4A0023FFF7EDFFB5
:102590000B480C490C4A0023FFF7E7FF0B480C4996
:1025A0000023FFF7E8FF07F08BFDFFF767FAFEE770
:1025B00000000320080000208C00002084B40008E4
:1025C000E3010320E3010320D1BD00085C090020E2
:1025D000680D0020FEE7000080B582B000AF002348
:1025E000FB710C4B1B680B4A43F480731360032090
:1025F00000F0B4F9002000F00FF80346002B02D0E1
:102600000123FB7101E0FFF731FDFB791846083724
:10261000BD4680BD0040005880B584B000AF7860F2
:102620000023FB73174B1B78002B24D002F09CFE79
:102630000246144B1B7819464FF47A73B3FBF1F33F
:10264000B2FBF3F3184600F0CAF90346002B0FD192
:102650007B680F2B09D8002279684FF0FF3000F01B
:1026600088F9094A7B68136007E00123FB7304E0E3
:102670000123FB7301E00123FB73FB7B184610373A
:10268000BD4680BD100000200C00002080B400AFCB
:10269000064B1B781A46064B1B681344044A13600A
:1026A00000BFBD465DF8047B704700BF10000020EE
:1026B000A80B002080B400AF034B1B681846BD4632
:1026C0005DF8047B704700BFA80B002080B400AF0A
:1026D000034B1B681846BD465DF8047B704700BF7E
:1026E0000C00002080B400AF034B1B781846BD4699
:1026F0005DF8047B704700BF1000002080B485B0F7
:1027000000AF78607B6803F00703FB600C4BDB686D
:10271000BB60BA684FF6FF031340BB60FB681A0248
:10272000BB68134343F0BF6343F40033BB60044A08
:10273000BB68D36000BF1437BD465DF8047B7047AB
:1027400000ED00E080B400AF044BDB681B0A03F02F
:1027500007031846BD465DF8047B704700ED00E0B6
:1027600080B483B000AF0346FB7197F90730002BAC
:102770000BDBFB7903F01F02074997F907305B0970
:10278000012000FA02F241F8232000BF0C37BD46B9
:102790005DF8047B704700BF00E100E080B483B0C7
:1027A00000AF0346FB7197F90730002B12DBFB7972
:1027B00003F01F020A4997F907305B09012000FA6C
:1027C00002F2203341F82320BFF34F8F00BFBFF345
:1027D0006F8F00BF00BF0C37BD465DF8047B7047AC
:1027E00000E100E080B483B000AF0346FB7197F9CD
:1027F0000730002B0CDBFB7903F01F02074997F928
:1028000007305B09012000FA02F2403341F823202F
:1028100000BF0C37BD465DF8047B704700E100E067
:1028200080B483B000AF0346FB7197F90730002BEB
:102830000CDBFB7903F01F02074997F907305B09AE
:10284000012000FA02F2603341F8232000BF0C3768
:10285000BD465DF8047B704700E100E080B483B0C2
:1028600000AF03463960FB7197F90730002B0ADB94
:102870003B68DAB20C4997F907301201D2B20B4427
:1028800083F800230AE03B68DAB20849FB7903F0D9
:102890000F03043B1201D2B20B441A7600BF0C376F
:1028A000BD465DF8047B704700E100E000ED00E00C
:1028B00080B489B000AFF860B9607A60FB6803F05B
:1028C0000703FB61FB69C3F10703042B28BF042343
:1028D000BB61FB690433062B02D9FB69033B00E0B3
:1028E00000237B614FF0FF32BB6902FA03F3DA4346
:1028F000BB681A407B699A404FF0FF317B6901FA4F
:1029000003F3D9437B680B40134318462437BD4675
:102910005DF8047B7047000080B582B000AF78603E
:102920007B68013BB3F1807F01D301230FE00A4AAA
:102930007B68013B53600F214FF0FF30FFF78EFFA4
:10294000054B00229A60044B07221A6000231846A8
:102950000837BD4680BD00BF10E000E080B582B002
:1029600000AF78607868FFF7C9FE00BF0837BD4642
:1029700080BD80B586B000AF0346B9607A60FB7356
:10298000FFF7E0FE78617A68B9687869FFF790FF31
:10299000024697F90F3011461846FFF75FFF00BF58
:1029A0001837BD4680BD80B582B000AF0346FB71CD
:1029B00097F907301846FFF7D3FE00BF0837BD462A
:1029C00080BD80B582B000AF0346FB7197F9073038
:1029D0001846FFF7E3FE00BF0837BD4680BD80B54F
:1029E00082B000AF78607868FFF796FF034618461C
:1029F0000837BD4680BD80B582B000AF0346FB718D
:102A000097F907301846FFF7EDFE00BF0837BD46BF
:102A100080BD80B582B000AF0346FB7197F90730E7
:102A20001846FFF7FDFE00BF0837BD4680BD000019
:102A300080B487B000AF7860396000237B614CE1DF
:102A40003B681A6801217B6901FA03F31340FB60BC
:102A5000FB68002B00F03E813B685B6803F00303DA
:102A6000012B05D03B685B6803F00303022B30D1D8
:102A70007B689B683B617B695B00032202FA03F37E
:102A8000DB433A6913403B613B68DA687B695B0072
:102A900002FA03F33A6913433B617B683A699A602F
:102AA0007B685B683B6101227B6902FA03F3DB43CD
:102AB0003A6913403B613B685B681B0903F0010204
:102AC0007B6902FA03F33A6913433B617B683A6915
:102AD0005A603B685B6803F00303032B17D07B68E5
:102AE000DB683B617B695B00032202FA03F3DB4393
:102AF0003A6913403B613B689A687B695B0002FA64
:102B000003F33A6913433B617B683A69DA603B68D7
:102B10005B6803F00303022B23D17B69DA087B682F
:102B2000083253F822303B617B6903F007039B00B6
:102B30000F2202FA03F3DB433A6913403B613B681F
:102B40001A697B6903F007039B0002FA03F33A69F1
:102B500013433B617B69DA087B680832396943F8C3
:102B600022107B681B683B617B695B00032202FAD1
:102B700003F3DB433A6913403B613B685B6803F056
:102B800003027B695B0002FA03F33A6913433B617A
:102B90007B683A691A603B685B6803F44033002B3A
:102BA00000F09880544A7B699B08023352F8233026
:102BB0003B617B6903F003039B000F2202FA03F3DE
:102BC000DB433A6913403B617B68B3F1904F19D006
:102BD0007B684A4A934213D07B68494A93420DD09E
:102BE0007B68484A934207D07B68474A934201D1A9
:102BF000042308E0072306E0032304E0022302E0A5
:102C0000012300E000237A6902F00302920093405E
:102C10003A6913433B6138497B699B0802333A693F
:102C200041F82320394B1B683B61FB68DB433A6961
:102C300013403B613B685B6803F48013002B03D0B7
:102C40003A69FB6813433B61304A3B6913602F4B81
:102C50005B683B61FB68DB433A6913403B613B685F
:102C60005B6803F40013002B03D03A69FB6813433D
:102C70003B61264A3B695360244BD3F880303B616B
:102C8000FB68DB433A6913403B613B685B6803F4D4
:102C90008033002B03D03A69FB6813433B611B4A26
:102CA0003B69C2F88030194BD3F884303B61FB6834
:102CB000DB433A6913403B613B685B6803F40033D4
:102CC000002B03D03A69FB6813433B610F4A3B6911
:102CD000C2F884307B6901337B613B681A687B6989
:102CE00022FA03F3002B7FF4ABAE00BF00BF1C370A
:102CF000BD465DF8047B70470000014000040048B9
:102D000000080048000C0048001000480008005867
:102D100080B483B000AF78600B467B8013467B7035
:102D20007B78002B03D07A887B689A6102E07A88EE
:102D30007B689A6200BF0C37BD465DF8047B704724
:102D400080B582B000AF0A4BDB687B60084B1A6825
:102D50007B68DB43064913400B60054A7B68536080
:102D6000786800F007F800BF0837BD4680BD00BF97
:102D70000015005880B483B000AF786000BF0C37F6
:102D8000BD465DF8047B704780B582B000AF7860C7
:102D90007B68002B01D1012381E07B6893F84130EF
:102DA000DBB2002B06D17B68002283F840207868D4
:102DB000FFF76CF97B68242283F841207B681B684D
:102DC0001A687B681B6822F001021A607B685A68E7
:102DD0007B681B6822F070621A617B681B689A68C6
:102DE0007B681B6822F400429A607B68DB68012BD9
:102DF00007D17B689A687B681B6842F400429A603E
:102E000006E07B689A687B681B6842F404429A601B
:102E10007B68DB68022B04D17B681B684FF400627F
:102E20005A607B681B685B687A68126843F00073BD
:102E300043F4004353607B681B68DA687B681B6857
:102E400022F40042DA607B681A697B685B6942EAB7
:102E500003017B689B691A027B681B680A43DA607E
:102E60007B68D9697B681A6A7B681B680A431A60A9
:102E70007B681B681A687B681B6842F001021A6055
:102E80007B6800225A647B68202283F841207B689B
:102E900000221A637B68002283F842200023184630
:102EA0000837BD4680BD000080B588B002AFF8602D
:102EB000084611461A4603467B810B463B81134662
:102EC000FB80FB6893F84130DBB2202B40F0F980A7
:102ED0003B6A002B02D0BB8C002B05D1FB684FF462
:102EE00000725A640123EDE0FB6893F84030012B37
:102EF00001D10223E6E0FB68012283F84020FFF7BE
:102F0000D9FB78617B690093192301224FF40041BA
:102F1000F86800F0DDFA0346002B01D00123D1E070
:102F2000FB68212283F84120FB68402283F842207D
:102F3000FB6800225A64FB683A6A5A62FB68BA8CE2
:102F40005A85FB6800225A63F8883A8979897B6937
:102F50000193BB6A00930346F86800F0EDF903465D
:102F6000002B05D0FB68002283F840200123A9E054
:102F7000FB685B8D9BB2FF2B0ED9FB68FF221A8585
:102F8000FB681B8DDAB27989002300934FF08073C0
:102F9000F86800F057FC0FE0FB685B8D9AB2FB68A5
:102FA0001A85FB681B8DDAB27989002300934FF0F4
:102FB0000073F86800F046FC7A69B96AF86800F0B6
:102FC000D6FA0346002B01D001237BE0FB685B6A45
:102FD0001A78FB681B689A62FB685B6A5A1CFB687C
:102FE0005A62FB685B8D9BB2013B9AB2FB685A85C3
:102FF000FB681B8D013B9AB2FB681A85FB685B8DF1
:103000009BB2002B34D0FB681B8D002B30D17B6929
:103010000093BB6A00228021F86800F059FA034649
:10302000002B01D001234DE0FB685B8D9BB2FF2B91
:103030000ED9FB68FF221A85FB681B8DDAB27989ED
:10304000002300934FF08073F86800F0FBFB0FE063
:10305000FB685B8D9AB2FB681A85FB681B8DDAB240
:103060007989002300934FF00073F86800F0EAFBC1
:10307000FB685B8D9BB2002B9ED17A69B96AF868B8
:1030800000F0BCFA0346002B01D001231AE0FB68D4
:103090001B682022DA61FB681B685968FB681A68A4
:1030A0000A4B0B405360FB68202283F84120FB68E9
:1030B000002283F84220FB68002283F8402000238E
:1030C00000E0022318461837BD4680BD00E800FE28
:1030D00080B588B002AFF860084611461A4603462C
:1030E0007B810B463B811346FB80FB6893F84130A4
:1030F000DBB2202B40F0FD803B6A002B02D0BB8C62
:10310000002B05D1FB684FF400725A640123F1E0F3
:10311000FB6893F84030012B01D10223EAE0FB6801
:10312000012283F84020FFF7C5FA78617B6900939C
:10313000192301224FF40041F86800F0C9F9034651
:10314000002B01D00123D5E0FB68222283F8412027
:10315000FB68402283F84220FB6800225A64FB6827
:103160003A6A5A62FB68BA8C5A85FB6800225A6335
:10317000F8883A8979897B690193BB6A0093034691
:10318000F86800F02DF90346002B05D0FB680022FB
:1031900083F840200123ADE0FB685B8D9BB2FF2BE1
:1031A0000ED9FB68FF221A85FB681B8DDAB279897C
:1031B000524B00934FF08073F86800F043FB0FE030
:1031C000FB685B8D9AB2FB681A85FB681B8DDAB2CF
:1031D00079894A4B00934FF00073F86800F032FB96
:1031E0007B690093BB6A00220421F86800F070F943
:1031F0000346002B01D001237CE0FB681B685A6A60
:10320000FB685B6AD2B21A70FB685B6A5A1CFB6887
:103210005A62FB681B8D013B9AB2FB681A85FB68FA
:103220005B8D9BB2013B9AB2FB685A85FB685B8D54
:103230009BB2002B34D0FB681B8D002B30D17B69F7
:103240000093BB6A00228021F86800F041F9034630
:10325000002B01D001234DE0FB685B8D9BB2FF2B5F
:103260000ED9FB68FF221A85FB681B8DDAB27989BB
:10327000002300934FF08073F86800F0E3FA0FE04A
:10328000FB685B8D9AB2FB681A85FB681B8DDAB20E
:103290007989002300934FF00073F86800F0D2FAA8
:1032A000FB685B8D9BB2002B9AD17A69B96AF8688A
:1032B00000F0A4F90346002B01D001231AE0FB68BB
:1032C0001B682022DA61FB681B685968FB681A6872
:1032D0000B4B0B405360FB68202283F84120FB68B6
:1032E000002283F84220FB68002283F8402000235C
:1032F00000E0022318461837BD4680BD0024008038
:1033000000E800FE80B584B000AF78607B681B6881
:103310009B69FB607B681B681B68BB607B685B6BA1
:10332000002B05D07B685B6BBA68F96878689847B2
:1033300000BF1037BD4680BD80B586B002AFF860D3
:10334000084611461A4603467B810B463B811346CD
:10335000FB80FB88DAB27989204B00934FF08073B1
:10336000F86800F06FFAFA69B969F86800F0FFF8D8
:103370000346002B01D001232CE0FB88012B05D153
:103380003B89DAB2FB681B689A6215E03B891B0A2D
:103390009BB2DAB2FB681B689A62FA69B969F8688D
:1033A00000F0E5F80346002B01D0012312E03B8931
:1033B000DAB2FB681B689A62FB690093BB69002262
:1033C0008021F86800F084F80346002B01D0012327
:1033D00000E0002318461037BD4680BD0020008065
:1033E00080B586B002AFF860084611461A4603461B
:1033F0007B810B463B811346FB80FB88DAB27989DF
:10340000204B00930023F86800F01CFAFA69B969B0
:10341000F86800F0ACF80346002B01D001232CE043
:10342000FB88012B05D13B89DAB2FB681B689A62E5
:1034300015E03B891B0A9BB2DAB2FB681B689A62F3
:10344000FA69B969F86800F092F80346002B01D0D8
:10345000012312E03B89DAB2FB681B689A62FB69C0
:103460000093BB6900224021F86800F031F8034660
:10347000002B01D0012300E0002318461037BD4681
:1034800080BD00BF0020008080B483B000AF7860B2
:103490007B681B689B6903F00203022B03D17B68E6
:1034A0001B6800229A627B681B689B6903F001031A
:1034B000012B07D07B681B689A697B681B6842F008
:1034C00001029A6100BF0C37BD465DF8047B70476E
:1034D00080B584B000AFF860B9603B601346FB7103
:1034E00031E03B68B3F1FF3F2DD0FFF7E3F8024630
:1034F000BB69D31A3A689A4202D33B68002B22D1A7
:10350000FB681B689A69BB681340BA689A420CBF93
:1035100001230023DBB21A46FB799A4213D1FB68E0
:103520005B6C43F02002FB685A64FB68202283F83E
:103530004120FB68002283F84220FB68002283F8C8
:10354000402001230FE0FB681B689A69BB681340A9
:10355000BA689A420CBF01230023DBB21A46FB79FA
:103560009A42BED0002318461037BD4680BD80B5B4
:1035700084B000AFF860B9607A6033E07A68B96807
:10358000F86800F07FF80346002B01D0012331E0FA
:10359000BB68B3F1FF3F25D0FFF78CF802467B688C
:1035A000D31ABA689A4202D3BB68002B1AD1FB68BF
:1035B0001B689B6903F00203022B13D0FB685B6C52
:1035C00043F02002FB685A64FB68202283F8412004
:1035D000FB68002283F84220FB68002283F8402029
:1035E000012307E0FB681B689B6903F00203022BC1
:1035F000C4D1002318461037BD4680BD80B584B0C5
:1036000000AFF860B9607A602FE07A68B968F8684E
:1036100000F038F80346002B01D001232DE0FFF71E
:1036200049F802467B68D31ABA689A4202D3BB684B
:10363000002B1AD1FB681B689B6903F02003202B29
:1036400013D0FB685B6C43F02002FB685A64FB6894
:10365000202283F84120FB68002283F84220FB6887
:10366000002283F84020012307E0FB681B689B6968
:1036700003F02003202BC8D1002318461037BD4685
:1036800080BD000080B58AB000AFF860B9607A6094
:10369000002387F82730FB681B689B69BB61002308
:1036A0003B627B68FB61BB6903F01003002B68D0B1
:1036B000FB681B681022DA6149E0BB68B3F1FF3F89
:1036C00045D0FEF7F7FF0246FB69D31ABA689A4263
:1036D00002D3BB68002B3AD1FB681B685B6803F41C
:1036E00080437B61FB6893F84230FB74FB681B6886
:1036F0009B6903F40043B3F5004F21D17B69B3F517
:10370000804F1DD0FB7C202B1AD0FB681B685A68A9
:10371000FB681B6842F480425A60FEF7CBFFF861F9
:103720000EE0FEF7C7FF0246FB69D31A192B07D933
:103730003B6A43F020033B62012387F8273006E011
:10374000FB681B689B6903F02003202BE9D1FB6811
:103750001B689B6903F02003202B03D097F82730C8
:10376000002BAAD097F82730002B03D1FB681B68E9
:103770002022DA613B6A43F004033B62012387F8AD
:103780002730FB681B689B69BB61BB6903F48073CE
:10379000002B0BD03B6A43F001033B62FB681B68C4
:1037A0004FF48072DA61012387F82730BB6903F494
:1037B0008063002B0BD03B6A43F008033B62FB683D
:1037C0001B684FF48062DA61012387F82730BB69F8
:1037D00003F40073002B0BD03B6A43F002033B62FF
:1037E000FB681B684FF40072DA61012387F8273009
:1037F00097F82730002B1CD0F868FFF745FEFB68D0
:103800001B685968FB681A680D4B0B405360FB68D6
:103810005A6C3B6A1A43FB685A64FB68202283F89F
:103820004120FB68002283F84220FB68002283F8D5
:10383000402097F8273018462837BD4680BD00BF86
:1038400000E800FE80B487B000AFF8607B600B46F4
:103850007B8113467B727B89C3F309027B7A1B044D
:1038600003F47F031A437B681A433B6A134323F034
:1038700000437B61FB681B685A683B6A5B0D03F47D
:103880008061084B0B43DB4302EA0301FB681B68C2
:103890007A690A435A6000BF1C37BD465DF8047B55
:1038A000704700BFFF63FF0380B483B000AF786050
:1038B00039607B6893F84130DBB2202B38D17B68CC
:1038C00093F84030012B01D1022332E07B680122C2
:1038D00083F840207B68242283F841207B681B68A2
:1038E0001A687B681B6822F001021A607B681B68FB
:1038F0001A687B681B6822F480521A607B681B6818
:1039000019687B681B683A680A431A607B681B6801
:103910001A687B681B6842F001021A607B682022EB
:1039200083F841207B68002283F84020002300E0D8
:10393000022318460C37BD465DF8047B704780B4FF
:1039400085B000AF786039607B6893F84130DBB2B6
:10395000202B39D17B6893F84030012B01D1022311
:1039600033E07B68012283F840207B68242283F8BF
:1039700041207B681B681A687B681B6822F0010283
:103980001A607B681B681B68FB60FB6823F470632C
:10399000FB603B681B02FA681343FB607B681B6893
:1039A000FA681A607B681B681A687B681B6842F0BB
:1039B00001021A607B68202283F841207B68002284
:1039C00083F84020002300E0022318461437BD4648
:1039D0005DF8047B7047000080B584B000AF78606C
:1039E0000023FB737B68002B1ED0134BBB607B68EE
:1039F00093F83830DBB2002B02D17868FEF796FBE3
:103A0000B86800F05BF8BB681B6843F00112BB6844
:103A10001A60786800F02CF87B6800225A637B6893
:103A2000012283F8382001E00123FB73FB7B184659
:103A30001037BD4680BD00BF000C005880B485B073
:103A400000AFF860B9601346FB7100BF1437BD4684
:103A50005DF8047B704780B485B000AFF860B96052
:103A60001346FB7100BF1437BD465DF8047B7047F9
:103A700080B485B000AF78600023FB600FE07A6807
:103A8000FB689B0013440B4A5A607A68FB68063354
:103A90009B001344084A5A60FB680133FB60FB68D3
:103AA000052BECD900BF00BF1437BD465DF8047B81
:103AB000704700BF3D3A0008573A000880B483B011
:103AC00000AF78607B6800221A607B684FF03F127D
:103AD0005A607B683F229A6000BF0C37BD465DF894
:103AE000047B704780B483B000AF78604FF0B04380
:103AF000D3F888207B681B0C1B04DB431A407B68CF
:103B00001B044FF0B0411343C1F8883000BF0C379D
:103B1000BD465DF8047B704780B483B000AF786029
:103B20004FF0B043D3F888207B6813401A0C7B68B1
:103B3000134318460C37BD465DF8047B704780B4CC
:103B400083B000AF78604FF0B0439A6B4FF0B04154
:103B50007B6813438B6300BF0C37BD465DF8047B65
:103B6000704780B483B000AF78604FF0B043DA6B39
:103B70004FF0B0417B681343CB6300BF0C37BD46A9
:103B80005DF8047B704780B483B000AF78604FF07D
:103B9000B0439A6B7B68DB434FF0B04113408B63BB
:103BA00000BF0C37BD465DF8047B704780B483B01E
:103BB00000AF78604FF0B043DA6B7B68DB434FF0C7
:103BC000B0411340CB6300BF0C37BD465DF8047BAA
:103BD0007047000080B584B000AF78607B68002B30
:103BE00001D101238FE07B685B68012B7B6893F830
:103BF0003630DBB2002B06D17B68002283F83520FB
:103C00007868FEF7B7FA7B68022283F836207B6873
:103C10001B68DB68FB607B685B68012B04D07B68FA
:103C20009B6AB3F5000F03D1FB6823F01E03FB6012
:103C30007B685B694FF6FF72934205D0FB6823F403
:103C4000604323F0C003FB60FA68314B1340FB6014
:103C50007B685A687B689B681A437B681B6A1A43B7
:103C60007B685B6A1A437B689B6A1343FA68134359
:103C7000FB607B685B68002B07D17B68DA697B6837
:103C80001B691343FA681343FB607B685B68012B75
:103C900004D07B689B6AB3F5000F07D17B68DA68B4
:103CA0007B681B691343FA681343FB607B685B699D
:103CB0004FF6FF7293420AD07B685A697B689B6912
:103CC0001A437B68DB691343FA681343FB607B6824
:103CD0001B68FA68DA607B681B680E4A934208D159
:103CE0007B68D96A7B681A6B7B681B680A431A6217
:103CF00004E07B681B687A68D26A1A627B680122DA
:103D000083F83620002318461037BD4680BD00BF1B
:103D1000FEF119FF007C004080B584B000AFF86070
:103D2000B9607A60FB68022283F83620FB681B6862
:103D3000384A934208D1384BD3F88030364A43F0A2
:103D40000053C2F8803007E0334BD3F88030324A5A
:103D500043F08043C2F88030FB681B68DA68FB6878
:103D60001B6842F40022DA60FB681B681A69FB6872
:103D70001B6842F001021A61FB681B6810225A603E
:103D8000FB681B68BA689A611021F86800F02CF98A
:103D90000346032B01D1032338E0FB681B6808228C
:103DA0005A60FB681B687A685A610821F86800F05D
:103DB0001BF90346032B01D1032327E0F86800F029
:103DC00043F9F86800F001F90346032B01D10323FE
:103DD0001CE0FB681B689A68FB681B6842F00102E4
:103DE0009A60FB681B681A69FB681B6842F0010255
:103DF0001A61FB681B681A69FB681B6842F00402C1
:103E00001A61FB68012283F8362000231846103718
:103E1000BD4680BD007C00400008005880B582B0DF
:103E200000AF78607B681B681B6803F00103012BFF
:103E30000DD17B681B689B6803F00103012B06D141
:103E40007B681B6801225A607868FEF773F87B680C
:103E50001B681B6803F00203022B0DD17B681B68F3
:103E60009B6803F00203022B06D17B681B680222C9
:103E70005A60786800F06DF87B681B681B6803F077
:103E80000403042B0DD17B681B689B6803F00403BB
:103E9000042B06D17B681B6804225A60786800F006
:103EA00062F87B681B681B6803F00803082B0DD1C0
:103EB0007B681B689B6803F00803082B06D17B68AE
:103EC0001B6808225A60786800F057F87B681B6806
:103ED0001B6803F01003102B0DD17B681B689B68D7
:103EE00003F01003102B06D17B681B6810225A6068
:103EF000786800F04CF87B681B681B6803F02003AF
:103F0000202B0DD17B681B689B6803F02003202BBE
:103F100006D17B681B6820225A60786800F041F85F
:103F20007B681B681B6803F04003402B0DD17B6846
:103F30001B689B6803F04003402B06D17B681B681D
:103F400040225A60786800F036F800BF0837BD4656
:103F500080BD80B483B000AF786000BF0C37BD4631
:103F60005DF8047B704780B483B000AF786000BF19
:103F70000C37BD465DF8047B704780B483B000AF5A
:103F8000786000BF0C37BD465DF8047B704780B495
:103F900083B000AF786000BF0C37BD465DF8047B8E
:103FA000704780B483B000AF786000BF0C37BD4667
:103FB0005DF8047B704780B483B000AF786000BFC9
:103FC0000C37BD465DF8047B704780B483B000AF0A
:103FD00078607B6893F83630DBB218460C37BD4604
:103FE0005DF8047B7047000080B485B000AF786056
:103FF00039600023FB73124B1B68124AA2FB032398
:104000009B0B4FF47A7202FB03F3BB60BB68013B6E
:10401000BB60BB68002B01D10323FB737B681B686B
:104020001A683B6813403A689A4202D0BB68002B7A
:10403000ECD1FB7B18461437BD465DF8047B704716
:10404000080000205917B7D180B58CB000AF786058
:104050000023FB62EFF31083FB60FB68BB6201236C
:104060003B613B6983F3108800BF7B681B68624A31
:10407000934203D0614A934206D00BE04FF44020B4
:10408000FFF74AFDF86205E04FF44010FFF744FDEA
:10409000F86200BF7B681B689B687B627B681B685B
:1040A000DB683B627B681B685B69FB617B681B6844
:1040B0009B69BB617B681B681B6A7B617B681B68B3
:1040C0004D4A934203D04D4A934209D00FE04FF03E
:1040D0000040FFF734FD4FF00040FFF754FD06E0CD
:1040E0002020FFF73EFD2020FFF760FD00BFFB69A9
:1040F000002B02D1BB69002B5FD07B681B683E4A56
:10410000934203D03D4A934205D009E04FF440204A
:10411000FFF7E8FC04E04FF44010FFF7E3FC00BFBA
:10412000FB69002B1AD07B681B681A697B681B68C7
:1041300042F001021A617B681B68FA695A61082122
:104140007868FFF751FF0346032B03D17B680322F6
:1041500083F836207B681B6808225A60BB69002BF5
:104160001AD07B681B681A697B681B6842F00102E1
:104170001A617B681B68BA699A6110217868FFF739
:1041800033FF0346032B03D17B68032283F83620D9
:104190007B681B6810225A607B681B68164A934232
:1041A00003D0164A934204D008E0F86AFFF79AFC5D
:1041B00004E0F86AFFF796FC00E000BF7B681B682C
:1041C0001A697B681B6822F001021A617B681B6810
:1041D0007A6A9A607B681B683A6ADA607B681B6857
:1041E0007A691A62BB6ABB60BB6883F3108800BF40
:1041F00000BF3037BD4680BD007C004000940040C9
:1042000080B400AF054B1B68044A43F4807313600D
:1042100000BFBD465DF8047B704700BF0004005836
:1042200080B400AF044B1B6803F4C0631846BD465E
:104230005DF8047B704700BF0004005880B400AFF5
:104240004FF0B0431B6803F48013B3F5801F01D116
:10425000012300E000231846BD465DF8047B70474B
:1042600080B400AF4FF0B0431B684FF0B04243F44E
:104270008033136000BFBD465DF8047B704780B497
:1042800000AF4FF0B0431B684FF0B04223F48033CF
:10429000136000BFBD465DF8047B704780B400AF7B
:1042A0004FF0B0431B6803F40033B3F5003F01D176
:1042B000012300E000231846BD465DF8047B7047EB
:1042C00080B400AF4FF0B0431B684FF0B04243F4EE
:1042D0008073136000BFBD465DF8047B704780B4F7
:1042E00000AF4FF0B0431B684FF0B04223F480732F
:1042F000136000BFBD465DF8047B704780B400AF1B
:104300004FF0B0431B6803F48063B3F5806F01D1B5
:10431000012300E000231846BD465DF8047B70478A
:1043200080B483B000AF78604FF0B0435B6823F097
:10433000FE427B681B064FF0B04113434B6000BF49
:104340000C37BD465DF8047B704780B400AF4FF07A
:10435000B043D3F898304FF0B04243F00103C2F8B5
:10436000983000BFBD465DF8047B704780B400AF55
:104370004FF0B043D3F898304FF0B04223F0010330
:10438000C2F8983000BFBD465DF8047B704780B42A
:1043900000AF4FF0B043D3F8983003F00203022B84
:1043A00001D1012300E000231846BD465DF8047BDF
:1043B000704780B400AF4FF0B043D3F890304FF067
:1043C000B04243F00103C2F8903000BFBD465DF833
:1043D000047B704780B400AF4FF0B043D3F8903007
:1043E0004FF0B04223F00103C2F8903000BFBD4649
:1043F0005DF8047B704780B400AF4FF0B043D3F852
:1044000090304FF0B04243F00403C2F8903000BF48
:10441000BD465DF8047B704780B400AF4FF0B043F9
:10442000D3F890304FF0B04223F00403C2F890303C
:1044300000BFBD465DF8047B704780B400AF4FF00D
:10444000B043D3F8903003F00203022B01D10123D3
:1044500000E000231846BD465DF8047B704780B439
:1044600000AF4FF0B043D3F894304FF0B04243F078
:104470000103C2F8943000BFBD465DF8047B70476D
:1044800080B400AF4FF0B043D3F894304FF0B04257
:1044900023F00103C2F8943000BFBD465DF8047BF1
:1044A000704780B400AF4FF0B043D3F8943003F0BE
:1044B0000203022B01D1012300E000231846BD4670
:1044C0005DF8047B704780B400AF4FF0B043D3F881
:1044D00094304FF0B04243F00403C2F8943000BF70
:1044E000BD465DF8047B704780B400AF4FF0B04329
:1044F000D3F894304FF0B04223F00403C2F8943064
:1045000000BFBD465DF8047B704780B400AF4FF03C
:10451000B043D3F8943003F00803082B01D10123F2
:1045200000E000231846BD465DF8047B704780B468
:1045300083B000AF78604FF0B043D3F8943023F4E9
:1045400070627B681B024FF0B0411343C1F8943096
:1045500000BF0C37BD465DF8047B704780B400AFE8
:104560004FF0B0431B684FF0B04243F001031360BB
:1045700000BFBD465DF8047B704780B400AF4FF0CC
:10458000B0431B684FF0B04223F00103136000BF3B
:10459000BD465DF8047B704780B400AF4FF0B04378
:1045A0001B6803F00203022B01D1012300E000236A
:1045B0001846BD465DF8047B704780B483B000AFF9
:1045C00078604FF0B0431B6823F0F0024FF0B04129
:1045D0007B6813430B6000BF0C37BD465DF8047B5E
:1045E000704780B483B000AF4FF0B0431B6803F056
:1045F000F0037B607B68B02B01D9B0237B607B68C4
:1046000018460C37BD465DF8047B704780B483B014
:1046100000AF78604FF0B0435B6823F47F427B6863
:104620001B024FF0B04113434B6000BF0C37BD4637
:104630005DF8047B704780B483B000AF78604FF0C2
:10464000B0439B6823F003024FF0B0417B681343F3
:104650008B6000BF0C37BD465DF8047B704780B4AB
:1046600000AF4FF0B0439B6803F00C031846BD4603
:104670005DF8047B704780B483B000AF78604FF082
:10468000B0439B6823F0F0024FF0B0417B681343C6
:104690008B6000BF0C37BD465DF8047B704780B46B
:1046A00083B000AF78604FF0B043D3F8083123F007
:1046B000F0024FF0B0417B681343C1F8083100BFEE
:1046C0000C37BD465DF8047B704780B483B000AF03
:1046D00078604FF0B043D3F8083123F00F027B68C5
:1046E0001B094FF0B0411343C1F8083100BF0C372C
:1046F000BD465DF8047B704780B483B000AF78603E
:104700004FF0B0439B6823F4E0624FF0B0417B6808
:1047100013438B6000BF0C37BD465DF8047B7047C8
:1047200080B483B000AF78604FF0B0439B6823F44F
:1047300060524FF0B0417B6813438B6000BF0C3771
:10474000BD465DF8047B704780B400AF4FF0B043C6
:104750009B6803F0F0031846BD465DF8047B704784
:1047600080B400AF4FF0B043D3F808311B0103F021
:10477000F0031846BD465DF8047B704780B400AF77
:104780004FF0B0439B6803F4E0631846BD465DF804
:10479000047B704780B400AF4FF0B0439B6803F4D4
:1047A00060531846BD465DF8047B704780B400AF87
:1047B0004FF0B0431B684FF0B04243F0807313607A
:1047C00000BFBD465DF8047B704780B400AF4FF07A
:1047D000B0431B684FF0B04223F08073136000BFFA
:1047E000BD465DF8047B704780B400AF4FF0B04326
:1047F0001B6803F00073B3F1007F01D1012300E0D7
:1048000000231846BD465DF8047B704780B400AFB6
:104810004FF0B043DB681B0A03F07F031846BD4628
:104820005DF8047B704780B400AF4FF0B043DB68A5
:1048300003F060431846BD465DF8047B704780B4C2
:1048400000AF4FF0B043DB6803F070031846BD467D
:104850005DF8047B704780B400AF4FF0B043DB6875
:1048600003F003031846BD465DF8047B704780B42F
:1048700000AF4FF0B0439B6803F48033B3F5803F43
:1048800001D1012300E000231846BD465DF8047BFA
:10489000704780B400AF4FF0B043D3F8083103F451
:1048A0000033B3F5003F01D1012300E00023184697
:1048B000BD465DF8047B704780B400AF4FF0B04355
:1048C000D3F8083103F48033B3F5803F01D10123DD
:1048D00000E000231846BD465DF8047B704780B4B5
:1048E00000AF4FF0B0439B6803F40033B3F5003FD3
:1048F00001D1012300E000231846BD465DF8047B8A
:10490000704780B400AF4FF0B0439B6803F480233E
:10491000B3F5802F01D1012300E000231846BD46E6
:104920005DF8047B7047000090B58DB000AF7860F3
:104930007B68002B01D1012363E37B681B6803F0D4
:104940002003002B00F08D80FFF789FEF862FFF74F
:1049500082FFB862FB6A002B05D0FB6A0C2B47D1A3
:10496000BB6A012B44D17B68DB69002B01D1012399
:1049700047E37B685C6AFFF734FE03469C4214D928
:104980007B685B6A184600F02FFD0346002B01D0C0
:10499000012336E37B685B6A1846FFF70EFE7B68EF
:1049A0001B6A1846FFF732FE13E07B685B6A184605
:1049B000FFF703FE7B681B6A1846FFF727FE7B683C
:1049C0005B6A184600F010FD0346002B01D001235E
:1049D00017E300F0C9FC0346A44A1360A44B1B680C
:1049E0001846FDF719FE0346002B39D0012308E3D2
:1049F0007B68DB69002B1ED0FFF7B0FDFDF75AFE88
:104A0000786208E0FDF756FE02467B6AD31A022B55
:104A100001D90323F5E2FFF7BFFD0346002BF1D0D8
:104A20007B685B6A1846FFF7C8FD7B681B6A1846FF
:104A3000FFF7ECFD15E0FFF7A0FDFDF73BFE786208
:104A400008E0FDF737FE02467B6AD31A022B01D934
:104A50000323D6E2FFF7A0FD0346002BF1D100E0CF
:104A600000BF7B681B6803F00103002B47D0FFF7F2
:104A7000F6FD3862FFF7EFFEF8613B6A082B05D0C0
:104A80003B6A0C2B08D1FB69032B05D17B685B6863
:104A9000002B34D10123B4E27B685B68B3F5803F1F
:104AA00002D1FFF7DDFB01E0FFF7E9FB7B685B6804
:104AB000002B12D0FDF7FEFD786208E0FDF7FAFD4D
:104AC00002467B6AD31A642B01D9032399E2FFF7CC
:104AD000E5FB0346002BF1D011E0FDF7EBFD78621A
:104AE00008E0FDF7E7FD02467B6AD31A642B01D983
:104AF000032386E2FFF7D2FB0346002BF1D17B684C
:104B00001B6803F00203002B4CD0FFF7A8FDB8612F
:104B1000FFF7A1FE7861BB69042B05D0BB690C2BA4
:104B20000ED17B69022B0BD17B68DB68002B01D196
:104B3000012366E27B681B691846FFF7F1FB31E051
:104B40007B68DB68002B19D0FFF7BAFBFDF7B2FDDD
:104B5000786208E0FDF7AEFD02467B6AD31A022BAD
:104B600001D903234DE2FFF7C9FB0346002BF1D027
:104B70007B681B691846FFF7D3FB13E0FFF7AFFB19
:104B8000FDF798FD786208E0FDF794FD02467B6A28
:104B9000D31A022B01D9032333E2FFF7AFFB0346FD
:104BA000002BF1D17B681B6803F00803002B06D1B2
:104BB0007B681B6803F01003002B00F0A3807B6868
:104BC0005B69002B76D07B681B6803F01003002B19
:104BD00046D0FFF766FC0346002B13D1FFF73FFCDE
:104BE000FDF768FD786208E0FDF764FD02467B6A28
:104BF000D31A022B01D9032303E2FFF752FC034629
:104C0000002BF1D0FFF75FFCFDF754FD786208E060
:104C1000FDF750FD02467B6AD31A032B01D903230B
:104C2000EFE1FFF772FC0346002BF1D07B689B6934
:104C30001846FFF77CFCFFF723FCFDF73BFD78628D
:104C400008E0FDF737FD02467B6AD31A022B01D933
:104C50000323D6E1FFF725FC0346002BF1D151E0F9
:104C6000FFF7FDFBFDF726FD78620CE00800002051
:104C70000C000020FDF71EFD02467B6AD31A022BB2
:104C800001D90323BDE1FFF70CFC0346002BF1D053
:104C9000FFF72AFC08E0FDF70DFD02467B6AD31AF8
:104CA000032B01D90323ACE1FFF72FFC0346002BB4
:104CB000F1D127E0FFF718FCFDF7FCFC786208E073
:104CC000FDF7F8FC02467B6AD31A032B01D90323B4
:104CD00097E1FFF71AFC0346002BF1D1FFF7D0FB59
:104CE000FDF7E8FC786208E0FDF7E4FC02467B6A29
:104CF000D31A022B01D9032383E1FFF7D2FB03462A
:104D0000002BF1D17B681B6803F00403002B5BD000
:104D1000A74B1B6803F48073002B14D1FFF770FAC4
:104D2000FDF7C8FC786208E0FDF7C4FC02467B6A28
:104D3000D31A022B01D9032363E19D4B1B6803F4B3
:104D40008073002BF0D07B689B68012B02D1FFF7AA
:104D500030FB0CE07B689B68052B04D1FFF74BFB15
:104D6000FFF727FB03E0FFF735FBFFF755FB7B68F9
:104D70009B68002B14D0FDF79DFC78620AE0FDF7DC
:104D800099FC02467B6AD31A41F28832934201D9D8
:104D9000032336E1FFF751FB0346002BEFD013E06E
:104DA000FDF788FC78620AE0FDF784FC02467B6A26
:104DB000D31A41F28832934201D9032321E1FFF74C
:104DC0003CFB0346002BEFD17B681B6803F04003DC
:104DD000002B2CD07B689B6A002B14D0FFF7B5FA10
:104DE000FDF768FC786208E0FDF764FC02467B6A28
:104DF000D31A022B01D9032303E1FFF7C8FA0346B4
:104E0000002BF1D013E0FFF7B1FAFDF753FC786205
:104E100008E0FDF74FFC02467B6AD31A022B01D94A
:104E20000323EEE0FFF7B3FA0346002BF1D17B68D2
:104E3000DB6A002B00F0E480FFF711FC38614FF0D3
:104E4000B043DB68FB607B68DB6A022B40F0B48018
:104E5000FB6803F003027B681B6B9A4223D1FB685B
:104E600003F070027B685B6B9A421CD1FB681B0AE3
:104E700003F07F027B689B6B9A4214D1FB6803F4BA
:104E800078127B68DB6B9A420DD1FB6803F060629D
:104E90007B681B6C9A4206D1FB6803F060427B681A
:104EA0005B6C9A425DD03B690C2B58D04FF0B043FD
:104EB0001B6803F08063002B01D00123A1E0FFF702
:104EC00084FCFDF7F7FB786208E0FDF7F3FB024690
:104ED0007B6AD31A022B01D9032392E04FF0B0432F
:104EE0001B6803F00073002BEFD14FF0B043DA687A
:104EF000304B13407A68116B7A68526B11437A68B1
:104F0000926B120211437A68D26B11437A68126C69
:104F100011437A68526C0A434FF0B0411343CB609F
:104F2000FFF744FC4FF0B043DB684FF0B04243F072
:104F30008053D360FDF7BEFB786208E0FDF7BAFB53
:104F400002467B6AD31A022B01D9032359E04FF0A2
:104F5000B0431B6803F00073002BEFD050E0012337
:104F60004FE04FF0B0431B6803F00073002B47D1B4
:104F7000FFF71CFC4FF0B043DB684FF0B04243F04A
:104F80008053D360FDF796FB786208E0FDF792FB53
:104F900002467B6AD31A022B01D9032331E04FF07A
:104FA000B0431B6803F00073002BEFD028E000BF74
:104FB000000400588C80C1113B690C2B1ED0FFF7F8
:104FC00004FCFDF777FB786208E0FDF773FB02460F
:104FD0007B6AD31A022B01D9032312E04FF0B043AE
:104FE0001B6803F00073002BEFD14FF0B043DA6879
:104FF0004FF0B041054B1340CB6001E0012300E0CE
:10500000002318463437BD4690BD00BFFCFFFEEEBE
:1050100080B584B000AF786039607B68002B01D127
:1050200001232DE1984B1B6803F007033A689A426D
:105030001BD9954B1B6823F0070293493B68134328
:105040000B60FDF737FBF86008E0FDF733FB024625
:10505000FB68D31A022B01D9032311E18A4B1B6889
:1050600003F007033A689A42EFD17B681B6803F0AC
:105070000203002B16D07B689B681846FFF7FBFAEB
:10508000FDF718FBF86008E0FDF714FB0246FB682B
:10509000D31A022B01D90323F2E0FFF7E8FB034602
:1050A000002BF1D07B681B6803F02003002B16D087
:1050B0007B685B691846FFF7F2FAFDF7FBFAF860C8
:1050C00008E0FDF7F7FA0246FB68D31A022B01D974
:1050D0000323D5E0FFF7DDFB0346002BF1D07B680F
:1050E0001B6803F04003002B16D07B689B691846B1
:1050F000FFF7EBFAFDF7DEFAF86008E0FDF7DAFA01
:105100000246FB68D31A022B01D90323B8E0FFF74C
:10511000D3FB0346002BF1D07B681B6803F004032C
:10512000002B16D07B68DB681846FFF7E5FAFDF721
:10513000C1FAF86008E0FDF7BDFA0246FB68D31A31
:10514000022B01D903239BE0FFF7C9FB0346002B89
:10515000F1D07B681B6803F00803002B17D07B6835
:105160001B69DB001846FFF7DBFAFDF7A3FAF860CE
:1051700008E0FDF79FFA0246FB68D31A022B01D91B
:1051800003237DE0FFF7BDFB0346002BF1D07B68D6
:105190001B6803F00103002B43D07B685B68022B84
:1051A00006D1FFF77BF80346002B1ED1012367E0F1
:1051B0007B685B68032B06D1FFF716FB0346002BC9
:1051C00013D101235CE07B685B68002B06D1FFF7FD
:1051D000E3F90346002B08D1012351E0FFF78EF8D5
:1051E0000346002B01D101234AE07B685B68184627
:1051F000FFF721FAFDF75EFAF8600AE0FDF75AFAC8
:105200000246FB68D31A41F28832934201D9032344
:1052100036E0FFF724FA02467B685B689B009A42FF
:10522000ECD1194B1B6803F007033A689A421BD272
:10523000154B1B6823F0070213493B6813430B60AF
:10524000FDF738FAF86008E0FDF734FA0246FB682B
:10525000D31A022B01D9032312E00B4B1B6803F076
:1052600007033A689A42EFD100F07EF80346074AF6
:105270001360FDF72BFA03461846FDF7CDF90346F8
:1052800018461037BD4680BD004000580800002079
:1052900090B585B000AFFFF7E2F978607B68002B2E
:1052A0000AD1FFF79EF903461B0903F00F032B4AAF
:1052B00052F82330FB604BE07B68042B02D1284B73
:1052C000FB6045E07B68082B0AD1FEF7B7FF034679
:1052D000012B02D1224BFB603AE0224BFB6037E00E
:1052E000FFF7B9FA38603B68022B03D03B68032B09
:1052F00003D00DE01A4BBB6015E0FEF79FFF03469D
:10530000012B02D1164BBB600DE0164BBB600AE0CF
:10531000FFF767F903461B0903F00F030F4A52F822
:105320002330BB6000BFFFF771FA0246BB6803FB86
:1053300002F4FFF784FA03461B090133B4FBF3F4CC
:10534000FFF771FA03465B0F0133B4FBF3F3FB6025
:10535000FB6818461437BD4690BD00BF3CB300083B
:105360000024F4000048E80198B500AFFFF790FF73
:105370000446FFF7E9F903461B0903F00F03034A4C
:1053800052F82330B4FBF3F3184698BDDCB20008A2
:1053900098B500AFFFF7E8FF0446FFF7EFF90346C3
:1053A0001B0A03F00703044A52F8233003F01F03DB
:1053B00024FA03F3184698BD1CB3000898B500AF53
:1053C000FFF7D2FF0446FFF7E5F90346DB0A03F0D7
:1053D0000703044A52F8233003F01F0324FA03F3AF
:1053E000184698BD1CB3000890B585B000AF786032
:1053F0007B68B02B03D9154BDB6AFB6007E07B6849
:105400001B0903F00F03114A52F82330FB60FFF72A
:10541000A7F903461B0903F00F030D4A52F8233086
:10542000FA68B2FBF3F3BB60BB680A4AA2FB032332
:105430009C0CFEF7F5FE03461946204600F00CF8DA
:10544000034618461437BD4690BD00BF3CB3000864
:10545000DCB2000883DE1B4390B593B000AF7860E8
:105460003960374B07F128040FCB84E80F00354A29
:1054700007F11C0307CA83E80700334B07F10C044C
:105480000FCB84E80F0000237B643B68B3F5007FFB
:105490001AD100233B6413E03B6C9B0048333B4430
:1054A00053F8203C7A689A4207D83B6C9B004833FB
:1054B0003B4453F83C3C7B6420E03B6C01333B6451
:1054C0003B6C032BE8D919E00023FB6313E0FB6B73
:1054D0009B0048333B4453F82C3C7A689A4207D8E7
:1054E000FB6B9B0048333B4453F83C3C7B6405E03A
:1054F000FB6B0133FB63FB6B022BE8D9134B1B687F
:1055000023F0070211497B6C13430B60FDF7D2F8BF
:10551000B86308E0FDF7CEF80246BB6BD31A022B46
:1055200001D9032307E0094B1B6803F007037A6CDA
:105530009A42EFD1002318464C37BD4690BD00BFBC
:1055400038B1000848B1000854B1000800400058C4
:1055500080B400AF4FF0B043D3F8903003F00103B4
:10556000012B01D1012300E000231846BD465DF860
:10557000047B704780B400AF4FF0B043D3F8903055
:1055800003F00203022B01D1012300E0002318469F
:10559000BD465DF8047B704780B483B000AF78608F
:1055A0004FF0B043D3F8943023F440424FF0B04171
:1055B0007B681343C1F8943000BF0C37BD465DF8DB
:1055C000047B704780B483B000AF78604FF0B04385
:1055D0005B6A23F003024FF0B0417B6813434B62D8
:1055E00000BF0C37BD465DF8047B704780B483B0C4
:1055F00000AF78604FF0B0435B6A23F030024FF0A9
:10560000B0417B6813434B6200BF0C37BD465DF869
:10561000047B704780B483B000AF78604FF0B04334
:10562000D3F8883023F003024FF0B0417B68134376
:10563000C1F8883000BF0C37BD465DF8047B704769
:1056400080B483B000AF78604FF0B043D3F88830B7
:1056500023F440624FF0B0417B681343C1F88830B7
:1056600000BF0C37BD465DF8047B704780B483B043
:1056700000AF78604FF0B043D3F888207B681B09F7
:1056800003F47F23DB431A407B681B0103F47F2371
:105690004FF0B0411343C1F8883000BF0C37BD460E
:1056A0005DF8047B704780B483B000AF78604FF042
:1056B000B043D3F888207B681B0C1B04DB431A40E3
:1056C0007B681B044FF0B0411343C1F8883000BF22
:1056D0000C37BD465DF8047B704780B483B000AFE3
:1056E00078604FF0B043D3F8883023F440024FF095
:1056F000B0417B681343C1F8883000BF0C37BD460A
:105700005DF8047B704780B483B000AF78604FF0E1
:10571000B043D3F8883023F040424FF0B0417B686B
:105720001343C1F8883000BF0C37BD465DF8047BD9
:10573000704780B483B000AF78604FF0B043D3F8C7
:10574000883023F040624FF0B0417B681343C1F8CA
:10575000883000BF0C37BD465DF8047B704780B5CC
:1057600082B000AF78607868FFF7E3FF00BF0837CA
:10577000BD4680BD80B483B000AF78604FF0B043C9
:10578000D3F8883023F040524FF0B0417B68134388
:10579000C1F8883000BF0C37BD465DF8047B704708
:1057A00080B483B000AF78604FF0B043D3F890304E
:1057B00023F440724FF0B0417B681343C1F890303E
:1057C00000BF0C37BD465DF8047B704780B400AF66
:1057D0004FF0B043D3F8903003F440731846BD4601
:1057E0005DF8047B704780B400AF4FF0B043D3F84E
:1057F00090304FF0B04243F48033C2F8903000BF95
:10580000BD465DF8047B704780B400AF4FF0B043F5
:10581000D3F890304FF0B04223F48033C2F8903088
:1058200000BFBD465DF8047B704780B400AF4FF009
:10583000B0431B684FF0B04243F08063136000BF79
:10584000BD465DF8047B704780B400AF4FF0B043B5
:105850001B684FF0B04223F08063136000BFBD4669
:105860005DF8047B704780B400AF4FF0B0431B6815
:1058700003F00063B3F1006F01D1012300E00023C6
:105880001846BD465DF8047B704780B588B000AF10
:1058900078600023FB770023BB777B681B6803F0ED
:1058A0004003002B34D07B681B6BB3F5400F21D035
:1058B000B3F5400F1BD8B3F5000F1DD0B3F5000FA3
:1058C00015D8002B0BD0B3F5800F10D14FF0B0439B
:1058D000DB684FF0B04243F48033D3600DE07B6867
:1058E0000433184600F047F90346FB7705E001232F
:1058F000FB7702E000BF00E000BFFB7F002B05D17B
:105900007B681B6B1846FFF7E8FE01E0FB7FBB7767
:105910007B681B6803F40063002B46D0FFF756FF3B
:10592000B8617B681B6CBA699A423CD0FEF768FC90
:10593000BB69002B05D17B681B6C1846FFF730FF55
:105940002EE04FF0B043D3F890307B61FFF74BFF70
:10595000FFF75AFF7B6923F440727B681B6C13438B
:105960007B614FF0B0427B69C2F89030FFF7F0FDE9
:105970000346012B14D1FCF79DFE38610BE0FCF7C8
:1059800099FE02463B69D31A41F28832934202D90A
:105990000323FB7704E0FFF7EDFD0346012BEED177
:1059A000FB7FBB7701E0FB7FBB777B681B6803F065
:1059B0000103002B04D07B689B691846FFF72AFE81
:1059C0007B681B6803F00203002B04D07B68DB6953
:1059D0001846FFF735FE7B681B6803F01003002BA9
:1059E00004D07B689B6A1846FFF75DFE7B681B68E6
:1059F00003F02003002B04D07B68DB6A1846FFF716
:105A000052FE7B681B6803F00403002B04D07B6804
:105A10001B6A1846FFF72AFE7B681B6803F0080321
:105A2000002B04D07B685B6A1846FFF71FFE7B687B
:105A30001B6803F48073002B22D07B685B6B1846D5
:105A4000FFF78DFE7B685B6BB3F1006F07D14FF002
:105A5000B043DB684FF0B04243F08073D3607B68A3
:105A60005B6BB3F1806F0BD17B680433184600F099
:105A7000DDF80346FB77FB7F002B01D0FB7FBB7774
:105A80007B681B6803F40073002B2BD07B689B6B37
:105A9000B3F1804F08D07B689B6BB3F1004F03D00C
:105AA0007B689B6B002B05D17B689B6B1846FFF7CF
:105AB0002AFE0AE07B689B6B23F08053FB6000208A
:105AC000FFF721FEF868FFF734FE7B689B6BB3F1AC
:105AD000C05F07D14FF0B043DB684FF0B04243F0F6
